:060000000A128A1110280B
:10000800FE00030EF1000408F2000A08F3007F085E
:10001800F4000A128A1104290A128A111328F50118
:10002800F601F701F80183010A128A11B929672834
:100038009F121F129F111F119A289F121F129F11A2
:100048001F159A289F121F129F151F119A289F1279
:100058001F129F151F159A289F121F169F111F11F7
:100068009A289F121F169F111F159A289F121F1654
:100078009F151F119A289F121F169F151F159A2842
:100088009F161F129F111F119A289F161F129F114A
:100098001F159A289F161F129F151F119A289F1621
:1000A8001F129F151F159A289F161F169F111F11A3
:1000B8009A289F161F169F111F159A289F121F1204
:1000C8009F111F119A28831203132108003A03195C
:1000D8006E2862282008003A03191C28013A0319DF
:1000E8002128033A03192628013A03192B28073A2D
:1000F80003193028013A03193528033A03193A2815
:10010800013A03193F280F3A03194428013A031901
:100118004928033A03194E28013A03195328073A84
:1001280003195828013A03195D2862280800831228
:100138000313A601A11FA128A228A928A009A10983
:10014800A00A0319A10AA601A60AA31FAC28AD2874
:10015800B628A209A309A20A0319A30A0130A40018
:100168002408A606A701A801200821040319BD2810
:10017800BE28F528A501A50ACC2801300310A00D3A
:10018800A10DFF3E031DC2280130A4002408A507C5
:10019800A11FCF28D028C12801300310A70DA80D12
:1001A800FF3E031DD12821082302031DDD28200856
:1001B8002202031CE028E128E8282008A2022108DE
:1001C800031CA303A302271401300310A10CA00CE5
:1001D800FF3E031DE9280130A502031DF428F52878
:1001E800D02826080319F928FA28FF28A709A809FA
:1001F800A70A0319A80A2808A1002708A0000800D0
:100208000B1C0729082923298312031306180D2913
:100218000E29172906181129122921290130F00061
:1002280070088507212986181A291B29212986186B
:100238001E291F292129013085020B1059290B1D60
:100248002629272959298312031388017603031DB8
:100258002E292F293A2908147808013E84000A1209
:100268008A1100220A128A11870052290230760662
:10027800031D3F2940294B2988147708013E840033
:100288000A128A1100220A128A11870052290330A1
:100298007606031D502951295229F6010130F00034
:1002A8007008F6070B11F43081007408FF0073081A
:1002B8008A0072088400710E8300FE0E7E0E09000B
:1002C80020308316031788008901831603138501DC
:1002D8000330860087018801831203138501860194
:1002E80087018801831603130F178F160F120F1437
:1002F80007300A128A1129220A128A11F43083124D
:100308000313810003300A128A1116220A128A1175
:10031800053083120313A0000030A1000A128A11CD
:100328001B200A128A11831603131F129F168312A9
:1003380003131F139F13831603139F1383120313AF
:100348001F140F3083120313A200A20BA929AC2992
:10035800831203139F148B178B150B100B118B161D
:10036800F801F701F601F50108000A128A11642163
:100378000A128A11831203139F18C329C429D22988
:100388001E08A9002908F5000F3083120313A900DD
:10039800A90BCC29CF29831203139F1475080F3991
:1003A800A9002908F7001030A0000030A100750846
:1003B800A900AA012908A2002A08A3000A128A1182
:1003C8009B200A128A118312031320080F39AB00ED
:1003D8002B08F80075080502031CF329F729831276
:1003E80003138617FA29831203138613BE290A12E8
:0403F8008A1110282E
:1004000002308A000408840A82070034FC34603415
:10041000DA34F2346634B634BE34E034FE34F634C2
:10042000EE343E349C347A349E348E34831203137B
:10043000A00083160313811383120313200883166D
:1004400003139500831203132008831603139600E9
:10045000080083120313A0008316031381120108FE
:10046000831203132006F839200683160313810034
:02047000080082
:08400000FF3FFF3FFF3FFF3FC0
:04400E00D420FF3F7C
:00000001FF
