:060000000A128A110C280F
:10000800FE00030EF1000A08F2000A128A111328F2
:100018000A128A110F2883010A128A1148280B1C18
:100028001628172829288312031306181C281D28A8
:1000380022280130F000700885072828861825280E
:1000480026282828013085020B1072088A00710EB4
:100058008300FE0E7E0E09008316031788018901AE
:100068008316031385010330860083120313850169
:100078008601831603138113151495141614961408
:100088008B178B150B1008000A128A1130200A12E0
:0A0098008A114D280A128A110C2863
:08400000FF3FFF3FFF3FFF3FC0
:04400E00D420FF3F7C
:00000001FF
