:060000000A128A1110280B
:10000800FE00030EF1000408F2000A08F3007F085E
:10001800F4000A128A1166290A128A111328F501B6
:10002800F601F701F80183010A128A117D2A67286F
:100038009F121F129F111F119A289F121F129F11A2
:100048001F159A289F121F129F151F119A289F1279
:100058001F129F151F159A289F121F169F111F11F7
:100068009A289F121F169F111F159A289F121F1654
:100078009F151F119A289F121F169F151F159A2842
:100088009F161F129F111F119A289F161F129F114A
:100098001F159A289F161F129F151F119A289F1621
:1000A8001F129F151F159A289F161F169F111F11A3
:1000B8009A289F161F169F111F159A289F121F1204
:1000C8009F111F119A28831203132108003A03195C
:1000D8006E2862282008003A03191C28013A0319DF
:1000E8002128033A03192628013A03192B28073A2D
:1000F80003193028013A03193528033A03193A2815
:10010800013A03193F280F3A03194428013A031901
:100118004928033A03194E28013A03195328073A84
:1001280003195828013A03195D2862280800831228
:100138000313A601A11FA128A228A928A009A10983
:10014800A00A0319A10AA601A60AA31FAC28AD2874
:10015800B628A209A309A20A0319A30A0130A40018
:100168002408A606A701A801200821040319BD2810
:10017800BE28F528A501A50ACC2801300310A00D3A
:10018800A10DFF3E031DC2280130A4002408A507C5
:10019800A11FCF28D028C12801300310A70DA80D12
:1001A800FF3E031DD12821082302031DDD28200856
:1001B8002202031CE028E128E8282008A2022108DE
:1001C800031CA303A302271401300310A10CA00CE5
:1001D800FF3E031DE9280130A502031DF428F52878
:1001E800D02826080319F928FA28FF28A709A809FA
:1001F800A70A0319A80A2808A1002708A0000800D0
:1002080083120313A200831603130F1441298316C4
:1002180003130F178F160F166529831603130F176D
:100228008F160F126529831603130F178F120F16D7
:100238006529831603130F178F120F12652983166A
:1002480003130F138F160F166529831603130F1345
:100258008F160F126529831603130F138F120F16AB
:100268006529831603130F138F120F12652983163E
:1002780003130F178F160F12652983120313220811
:10028800A000A1012108003A03194B293B292008A5
:10029800013A03190B29033A03191129013A0319E1
:1002A8001729073A03191D29013A03192329033A83
:1002B80003192929013A03192F290F3A0319352956
:1002C8003B2908000B1C69296A2985298312031315
:1002D80006186F2970297929061873297429832922
:1002E8000130F00070088507832986187C297D294C
:1002F80083298618802981298329013085020B10DA
:10030800BB290B1D88298929BB298312031388015E
:100318007603031D902991299C2908147808013E29
:1003280084000A128A11DF220A128A118700B4296E
:1003380002307606031DA129A229AD298814770861
:10034800013E84000A128A11DF220A128A118700EC
:10035800B42903307606031DB229B329B429F6015E
:100368000130F0007008F6070B11F43081007408B2
:10037800FF0073088A0072088400710E8300FE0E65
:100388007E0E09008316031381128111012A831638
:100398000313011181100110222A8316031301117E
:1003A80081100114222A83160313011181140110EC
:1003B800222A83160313011181140114222A831699
:1003C8000313011581100110222A83160313011546
:1003D80081100114222A83160313011581140110B8
:1003E800222A83160313011581140114222A831665
:1003F8000313011581140114222A831203132108FF
:10040800003A0319082AFB292008003A0319CB29C6
:10041800013A0319D129033A0319D729013A0319D3
:10042800DD29073A0319E329013A0319E929033AAF
:100438000319EF29013A0319F529FB29080020308F
:100448008316031788008901831603138501033077
:1004580086008701880183120313850186018701BD
:10046800880102300A128A1104210A128A110730FF
:1004780083120313A0000030A1000A128A11C621BA
:100488000A128A11F43083120313810003300A120E
:100498008A11F5220A128A11053083120313A0006B
:1004A8000030A1000A128A111B200A128A11831631
:1004B80003131F129F12831203131F139F17831610
:1004C80003139F13831203131F140F308312031394
:1004D800A300A30B6D2A702A831203139F148B1792
:1004E8008B150B100B118B16F801F701F601F501AE
:1004F80008000A128A1123220A128A11831203138E
:100508009F18872A882A9D2A0A128A1112230A12FA
:100518008A11831203132008AD002D08F5000F304F
:1005280083120313AD00AD0B972A9A2A8312031383
:100538009F1475080A128A1108230A128A11831255
:100548000313AD002D08F70075080A128A11C3229B
:100558000A128A1183120313AD002D08F8007508DA
:100568000502031CB82ABC2A831203138617BF2A64
:10057800831203138613822A0A128A1110288312FF
:100588000313AC001030A0000030A1002C08A90013
:10059800AA012908A2002A08A3000A128A119B208E
:1005A8000A128A118312031320080F39AB002B0893
:1005B800AC002C08080002308A000408840A82076C
:1005C8000034FC346034DA34F2346634B634BE3481
:1005D800E034FE34F634EE343E349C347A349E34BF
:1005E8008E3483120313A00083160313811383121E
:1005F800031320088316031395008312031320089E
:10060800831603139600080083120313A100210820
:100618000F39A0002008A100210808008312031345
:100628001E08A200A3012208A0002308A1000800B8
:08400000FF3FFF3FFF3FFF3FC0
:04400E00D420FF3F7C
:00000001FF
