:060000000A128A110C280F
:10000800FE00030EF1000A08F2000A128A11F22813
:100018000A128A110F2883010A128A1142297D289F
:10002800831203139F121F129F111F11AE288312F0
:1000380003139F121F129F111F15AE28831203135B
:100048009F121F129F151F11AE28831203139F12B0
:100058001F129F151F15AE28831203139F121F1618
:100068009F111F11AE28831203139F121F169F1191
:100078001F15AE28831203139F121F169F151F11F9
:10008800AE28831203139F121F169F151F15AE2843
:10009800831203139F161F129F111F11AE2883127C
:1000A80003139F161F129F111F15AE2883120313E7
:1000B8009F161F129F151F11AE28831203139F1638
:1000C8001F129F151F15AE28831203139F161F16A4
:1000D8009F111F11AE28831203139F161F169F111D
:1000E8001F15AE28831203139F121F129F111F1191
:1000F800AE287408003A0319822876287308003A53
:1001080003191428013A03191B28033A0319222852
:10011800013A03192928073A03193028013A031923
:100128003728033A03193E28013A031945280F3A9C
:1001380003194C28013A03195328033A03195A287A
:10014800013A03196128073A03196828013A031983
:100158006F28762808002030831603178800890145
:1001680083160313850103308600870188018312F3
:1001780003138501860187018801831603130F176E
:100188008F160F120F1403300A128A1154210A1203
:100198008A110530F3000030F4000A128A11132086
:1001A8000A128A11831603131F129F128312031354
:1001B8001F139F13831603139F13831203131F1414
:1001C8001030F500F50BE6280000831203139F1486
:1001D8008B178B150B100B118B1608000B1CF528B1
:1001E800F6281029831203130618FB28FC28052972
:1001F8000618FF2800290F290130F000700885072C
:100208000F298618082909290F2986180C290D296C
:100218000F29013085020B1072088A00710E8300C5
:10022800FE0E7E0E090001308A000408840A820747
:100238000034FC346034DA34F2346634B634BE3414
:10024800E034FE34F634EE343E349C347A349E3452
:100258008E34831203139F143D299F18342935299E
:100268003D291E08F500F6017508F3007608F4002C
:1002780041299F1840294129312908000A128A1169
:10028800AF200A128A110A128A112D210A128A1124
:10029800730883120313870047290A128A110C284E
:1002A800F3008316031381137308950073089600EF
:0202B80008003C
:08400000FF3FFF3FFF3FFF3FC0
:04400E00D420FF3F7C
:00000001FF
