:060000000A128A110C280F
:10000800FE00030EF2000A08F3000A128A111729EB
:100018000A128A110F28F701F801F90183010A125F
:100028008A11C629F6008128831203139F121F1212
:100038009F111F11B528831203139F121F129F11BE
:100048001F15B528831203139F121F129F151F1126
:10005800B528831203139F121F129F151F15B52869
:10006800831203139F121F169F111F11B5288312A5
:1000780003139F121F169F111F15B5288312031310
:100088009F121F169F151F11B528831203139F1265
:100098001F169F151F15B528831203139F161F12CD
:1000A8009F111F11B528831203139F161F129F114A
:1000B8001F15B528831203139F161F129F151F11B2
:1000C800B528831203139F161F129F151F15B528F5
:1000D800831203139F161F169F111F11B528831231
:1000E80003139F161F169F111F15B528831203139C
:1000F8009F121F129F111F11B5287608F400F501F1
:100108007508003A031989287A287408003A0319EF
:100118001828013A03191F28033A03192628013A17
:1001280003192D28073A03193428013A03193B28E3
:10013800033A03194228013A031949280F3A0319C7
:100148005028013A03195728033A03195E28013A3F
:1001580003196528073A03196C28013A031973280B
:100168007A28831603131F129F12831203131F1377
:100178009F17831603139F13831203131F14213031
:10018800F400F40BC528831203139F140800F6002B
:10019800831603130F14F4280F178F160F1616293A
:1001A8000F178F160F1216290F178F120F161629F1
:1001B8000F178F120F1216290F138F160F161629E5
:1001C8000F138F160F1216290F138F120F161629D9
:1001D8000F138F120F1216290F178F160F121629C9
:1001E8007608F400F5017508003A0319FC28F02890
:1001F8007408013A0319D028033A0319D428013A9C
:100208000319D828073A0319DC28013A0319E0280A
:10021800033A0319E428013A0319E8280F3A0319A5
:10022800EC28F02808000B1C1A291B2936298312F0
:1002380003130618202921292A29061824292529E3
:1002480034290130F1007108F707342986182D295F
:100258002E29342986183129322934290130F70208
:100268000B105A29831203138C1D3B293C295A2948
:100278000A128A11E2210A128A11F1007108F800A3
:10028800AA307806031D49294A29512979080A12F2
:100298008A11F2210A128A11572977080A128A113B
:1002A800F2210A128A11831203138C1173088A002F
:1002B800720E8300FE0E7E0E090001300A128A11AA
:1002C800CB200A128A11203083160317880089016F
:1002D8000330831603138600831203138601033049
:1002E8000A128A11D9210A128A1105300A128A11B2
:1002F80016200A128A118B170B17831203138C11FD
:10030800831603138C158B150B108516F401F50154
:10031800F60124300A128A1194210A128A1108005F
:1003280083120313A0008316031387128312031387
:10033800201D9F29A029A629760883160313940057
:100348008715AC2974087604831603139400871163
:100358008312031320087504940008008312031302
:100368009F148230F500DD30F400F40BB929F50B49
:10037800B929BE29831203139F18C329C429BE298A
:100388001E0808000A128A1161210A128A110A122B
:100398008A11B2210A128A1183120313A1002108BB
:1003A800F900CB290A128A110C28F40083160313CA
:1003B8008113740895007408960008000A128A11BF
:1003C800EB210A128A1183120313130808008316FB
:1003D8000313141CF029F129EB290800F000700818
:0803E8008312031393000800C7
:08400000FF3FFF3FFF3FFF3FC0
:04400E00D420FF3F7C
:00000001FF
