:060000000A128A110C280F
:10000800FE00030EF1000A08F2000A128A115629AE
:100018000A128A110F2883010A128A118029F50011
:100028007E28831203139F121F129F111F11B228DB
:10003800831203139F121F129F111F15B2288312D8
:1000480003139F121F129F151F11B2288312031347
:100058009F121F129F151F15B228831203139F1298
:100068001F169F111F11B228831203139F121F1608
:100078009F111F15B228831203139F121F169F1575
:100088001F11B228831203139F121F169F151F15E5
:10009800B228831203139F161F129F111F11B22833
:1000A800831203139F161F129F111F15B228831264
:1000B80003139F161F129F151F11B22883120313D3
:1000C8009F161F129F151F15B228831203139F1620
:1000D8001F169F111F11B228831203139F161F1694
:1000E8009F111F15B228831203139F121F129F110D
:1000F8001F11B2287508F300F4017408003A0319B7
:10010800862877287308003A03191528013A031935
:100118001C28033A03192328013A03192A28073A05
:1001280003193128013A03193828033A03193F28DB
:10013800013A031946280F3A03194D28013A0319C1
:100148005428033A03195B28013A03196228073A2D
:1001580003196928013A03197028772883160313AD
:100168001F129F12831203131F139F178316031363
:100178009F13831203131F142130F300F30BC228BB
:10018800831203139F140800F500831603130F143A
:10019800F1280F178F160F1613290F178F160F1226
:1001A80013290F178F120F1613290F178F120F12FB
:1001B80013290F138F160F1613290F138F160F12EB
:1001C80013290F138F120F1613290F138F120F12E3
:1001D80013290F178F160F1213297508F300F4014E
:1001E8007408003A0319F928ED287308013A03192D
:1001F800CD28033A0319D128013A0319D528073A1B
:100208000319D928013A0319DD28033A0319E1280B
:10021800013A0319E5280F3A0319E928ED280800DF
:1002280001300A128A11C8200A128A112030831656
:100238000317880089018316031386018801831236
:1002480003138601880105300A128A1113200A1245
:100258008A118B170B17831203138C118316031340
:100268008C158516F301F401F50124300A128A1160
:1002780040210A128A110800F60083160313871218
:10028800761D472948294C29750894008715502957
:100298007308750494008711760874048312031395
:1002A80094000800831203138C1D5B295C296529BF
:1002B80008080A128A1191210A128A11831203135B
:1002C8008C1172088A00710E8300FE0E7E0E0900E2
:1002D800831203139F140630F4003030F300F30B3D
:1002E8007329F40B73290000831203139F187D29C7
:1002F8007E2978291E0808000A128A1114210A1278
:100308008A110A128A116C210A128A1183120313A4
:10031800880085290A128A110C28F00070088312B7
:060328000313930008001E
:08400000FF3FFF3FFF3FFF3FC0
:04400E00D420FF3F7C
:00000001FF
