:060000000A128A11F42F20
:10000800F30083120313071073080A128A155A2083
:100018000A128A118312031387140D30F200FB3081
:10002800F100F10B1528F20B15281A288312031377
:10003800871008008312031341088039C200420860
:10004800CB004108C2004207C3004308D200C01FCA
:100058002E282F28302852145208031934283528FE
:100068004528520A031D39283A2842280030C10081
:100078000030C0000030BF000030BE00C017C10112
:100088004D280030C1000030C0000030BF000030F3
:10009800BE003D088039C2004208CB063D08C200B8
:1000A8004207C3004308D300BC1F5B285C285D28B7
:1000B800531453080319612862287228530A031D30
:1000C800662867286F280030BD000030BC0000306B
:1000D800BB000030BA00BC17BD017A280030BD0053
:1000E8000030BC000030BB000030BA003D083C04C2
:1000F8003B043A04031D812882289B280030C10054
:100108000030C0000030BF000030BE008030C004A6
:100118007F30C1044B08C2004208C1044108BD0039
:100128004008BC003F08BB003E08BA00FA29520844
:10013800031D9F28A028A9280030BD000030BC005E
:100148000030BB000030BA00FA295208C200C301CF
:100158004308C50053084202C400031CC5034408F1
:100168007F3ECC0045080318013E003ECD00410803
:10017800CA004008C9003F08C8003E08C700003050
:10018800C1000030C0000030BF000030BE000030A9
:10019800D1000030D0000030CF000030CE00D301B5
:1001A8001F2953080319D928DA28FA280130C20070
:1001B8000310C70DC80DC90DCA0DC20BDC280130CC
:1001C800C2000310BE0DBF0DC00DC10DC20BE52846
:1001D800D11FEF28F028F1283E140130C200031087
:1001E800CE0DCF0DD00DD10DC20BF3283D084A021C
:1001F800031D08293C084902031D08293B08480239
:10020800031D08293A084702031C0B290C291B293E
:1002180051173A08C7023B08031C3B0FC8023C08A9
:10022800031C3C0FC9023D08031C3D0FCA020130E4
:10023800C2004208D3071A305302031C2429252977
:10024800D5284A0849044804470403192C292D29AC
:100258004C294E144C290130C2000310BE0DBF0DAD
:10026800C00DC10DC20B3129D11F3B293C293D29A5
:100278003E140130C2000310CE0DCF0DD00DD10DAC
:10028800C20B3F29FF30CC070318CD0AFF30CD073A
:10029800C01F4F2950292F29D301D11F542955296F
:1002A8007129FF304E05C200FF304F05C300FF30F3
:1002B8005005C4007F305105C50045084404430477
:1002C80042040319682969296C29D301D30A7129C1
:1002D8003E1C6F297029712969295308031975294A
:1002E8007629A7290130BE07003003180130BF075F
:1002F800003003180130C007003003180130C1076F
:10030800411C87298829A7293E08C2003F08C30045
:100318004008C4004108C5000130C600450DC50CA1
:10032800C40CC30CC20CC60B92294508C100440872
:10033800C0004308BF004208BE000130CC070318C4
:10034800CD0A0030CD074D08803AFF0080307F028B
:10035800031DB029FF304C02031CB329B429C2295C
:10036800FF3083120313CC000030CD000030C100F1
:100378000030C0000030BF000030BE0083120313FD
:100388004D08803AFF0080307F02031DCD290130DF
:100398004C020318D029D129DE2983120313CC017A
:1003A800CD010030C1000030C0000030BF00003077
:1003B800BE00CB01831203134C08C2004208D200CE
:1003C800521CE729E829EA29C017EE297F30C20024
:1003D8004208C0055208C2000310420CC30043087B
:1003E800C1004B08C2004208C104922808007308E3
:1003F800803983120313A0002008F8007308A000B6
:100408002007A1002108FA00F21F0B2A0C2A0D2A46
:100418007A147A080319112A122A222A7A0A031D41
:10042800162A172A1F2A0030F3000030F200003085
:10043800F1000030F000F217F3012A2A0030F3002F
:100448000030F2000030F1000030F0007708803909
:10045800A0002008F900790878060319342A352AFB
:10046800362A78177708A0002007A1002108F9008C
:10047800F61F3F2A402A412A791479080319452A88
:10048800462A562A790A031D4A2A4B2A532A00303B
:10049800F7000030F6000030F5000030F400F617E1
:1004A800F7015E2A0030F7000030F6000030F50052
:1004B8000030F4007A0879020318632A642AA82A0B
:1004C800781F672A682A6C2A8030A0002008F8065E
:1004D8007A08A0002008FB007908A0002008FA008C
:1004E8007B08A0002008F9007008A0002008FB0085
:1004F8007408A0002008F0007B08A0002008F40081
:100508007108A0002008FB007508A0002008F10071
:100518007B08A0002008F5007208A0002008FB0056
:100528007608A0002008F2007B08A0002008F6004A
:100538007308A0002008FB007708A0002008F3003B
:100548007B08A0002008F700FB017908A000A101A2
:100558002108A3007A082002A200031CA303230891
:10056800803AFF0080307F02031DBC2A1A30220225
:10057800031CBF2AC02A012B73087204710470047B
:10058800031DC72AC92A0130CA2A0030831203135F
:10059800A0002008FB000030F3000030F20000301B
:1005A800F1000030F0007908A0002008FA00072BBD
:1005B8007B1CDF2AE02AEB2A7B0883120313A000A6
:1005C8000310200C0138A1002108FB00ED2A0310BC
:1005D800FB0C701CF02AF12AF22AFB170130831257
:1005E8000313A000730DF30CF20CF10CF00CA00B2C
:1005F800F62A0130A0002008FA0779087A02031CBD
:10060800062B072BDC2A781B0A2B0B2B5A2B7A0874
:10061800031D0F2B102B192B0030F3000030F200B4
:100628000030F1000030F000922C7408F0077508D3
:1006380003110318013E0319222BF1077608031151
:100648000318013E0319292BF20777080311031831
:10065800013E0319302BF307731C332B342B122C58
:100668007B1C372B382B432B7B0883120313A000EA
:100678000310200C0138A1002108FB00452B0310B2
:10068800FB0C701C482B492B4A2BFB17013083129B
:100698000313A000730DF30CF20CF10CF00CA00B7B
:1006A8004E2B0130A0002008FA07122C7308803A5C
:1006B800FF007708803A7F02031D6C2B76087202D0
:1006C800031D6C2B75087102031D6C2B74087002D6
:1006D80003186F2B702BCA2BFF3083120313A00053
:1006E800FF30A100FF30A200FF30A3007408A4006F
:1006F8007508A5007608A6007708A7007008A40268
:100708007108031C710F892B8A2BA5027208031C20
:10071800720F8F2B902BA6027308031C730F952B57
:10072800962BA7022408A00725080318250F9D2B40
:100738009E2BA10726080318260FA32BA42BA2077C
:1007480027080318270AA3072308F3002208F20042
:100758002108F1002008F0008030A0002008F806E9
:10076800FB09FB0A7B08031DBA2BBB2BD82B0130D6
:10077800F007003003180130F1070030031801308A
:10078800F207003003180130F307D82B7408F00281
:100798007508031C750FF1027608031C760FF20228
:1007A8007708031C770FF30273087204710470044E
:1007B800031DDF2BE02B0E2C7B08031DE42BE52B00
:1007C8000E2C0030F3000030F2000030F100003051
:1007D800F000922C013083120313A0000310F00DD7
:1007E800F10DF20DF30DA00BF22BFB1FFC2BFD2BD3
:1007F800FE2B70147B1C012C022C052C0314FB0D02
:10080800072C0310FB0D7A0803190B2C0C2C0E2C4B
:100818000130FA02F21F112C122CEE2BF901FB1FEA
:10082800162C172C252C7B087F3903191C2C1D2C02
:10083800202CF901F90A252C701C232C242C252C9A
:100848001D2C79080319292C2A2C602C0130F0075B
:10085800003003180130F107003003180130F207A7
:10086800003003180130F307731C3B2C3C2C602C20
:10087800700883120313A0007108A1007208A20077
:100888007308A3000130A400230DA30CA20CA10C33
:10089800A00CA40B482C2308F3002208F20021081E
:1008A800F1002008F0007A0A03195B2C5C2C602CFC
:1008B8000130A0002008FA077A0A0319642C652C75
:1008C8006A2C7A08031D692C6A2C782C0030F300F6
:1008D8000030F2000030F1000030F0007A08031D0B
:1008E800762C772C782CF8017A1C7B2C7C2C7E2C8F
:1008F800F217842C7F3083120313A0002008F2051E
:100908007A0883120313A0000310200CA100210809
:10091800F300F81F902C912C922CF31708008312E7
:10092800031323088039A8002808AD002308A8006D
:100938002807A9002908B300A21FA32CA42CA52CC2
:10094800331433080319A92CAA2CB92C330A031D14
:10095800AE2CAF2CB72C0030A3000030A200003022
:10096800A1000030A000A217C12C0030A300003065
:10097800A2000030A1000030A00027088039A8009C
:100988002808AD062708A8002807A9002908B200EA
:10099800A61FCF2CD02CD12C321432080319D52CF9
:1009A800D62CE52C320A031DDA2CDB2CE32C003084
:1009B800A7000030A6000030A5000030A400A6174C
:1009C800ED2C0030A7000030A6000030A500003054
:1009D800A40032080319F12CF22CF72C3308031D5C
:1009E800F62CF72C002D0030A3000030A2000030B8
:1009F800A1000030A000F32F2008A8002808F0006C
:100A080026080A168A1166270A128A1171088312A3
:100A18000313B9007008B8003808A800A901AA0192
:100A2800AB012B08B1002A08B0002908AF0028083C
:100A3800AE003908A800A901AA01AB012B08B7002C
:100A48002A08B6002908B5002808B4002108A8001B
:100A58002808F00025080A168A1166270A128A1142
:100A6800710883120313B9007008B8003808A80089
:100A7800A901AA01AB012808AE0729080311031828
:100A8800013E0319482DAF072A0803110318013E38
:100A980003194F2DB0072B0803110318013E031942
:100AA800562DB1073908A800A901AA01AB012808E9
:100AB800B407290803110318013E0319642DB5076B
:100AC8002A0803110318013E03196B2DB6072B08DA
:100AD80003110318013E0319722DB7072208A80055
:100AE8002808F00024080A168A1166270A128A11B3
:100AF800710883120313B9007008B8003808A800F9
:100B0800A901AA01AB012808AE0729080311031897
:100B1800013E0319902DAF072A0803110318013E5F
:100B28000319972DB0072B0803110318013E031969
:100B38009E2DB1073908A800A901AA01AB01280810
:100B4800B407290803110318013E0319AC2DB50792
:100B58002A0803110318013E0319B32DB6072B0801
:100B680003110318013E0319BA2DB7070830A8006E
:100B78000310AE0DAF0DB00DB10DA80BBC2D2108A3
:100B8800A8002808F00024080A168A1166270A1205
:100B98008A11710883120313B9007008B800380865
:100BA800A8003908A900AA01AB012808AE0729083E
:100BB80003110318013E0319E22DAF072A08031198
:100BC8000318013E0319E92DB0072B080311031878
:100BD800013E0319F02DB1072008A8002808F000ED
:100BE80025080A168A1166270A128A1171088312C3
:100BF8000313B9007008B8003808A8003908A9001C
:100C0800AA01AB012808AE07290803110318013E01
:100C180003190F2EAF072A0803110318013E031901
:100C2800162EB0072B0803110318013E03191D2EB9
:100C3800B1070830A8000310AE0DAF0DB00DB10D0F
:100C4800A80B1F2E2008A8002808F00024080A1660
:100C58008A1166270A128A11710883120313B900D0
:100C68007008B8003808A8003908A900AA01AB0123
:100C78002808AE07290803110318013E0319452E59
:100C8800AF072A0803110318013E03194C2EB007B9
:100C98002B0803110318013E0319532EB10721082D
:100CA800A8002808F00026080A168A1166270A12E2
:100CB8008A11710883120313B9007008B800380844
:100CC800A8003908A900AA01AB012808B407290817
:100CD80003110318013E0319722EB5072A080311E0
:100CE8000318013E0319792EB6072B0803110318C0
:100CF800013E0319802EB7072208A8002808F00033
:100D080025080A168A1166270A128A1171088312A1
:100D18000313B9007008B8003808A8003908A900FA
:100D2800AA01AB012808B407290803110318013EDA
:100D380003199F2EB5072A0803110318013E03194A
:100D4800A62EB6072B0803110318013E0319AD2E72
:100D5800B7072208A8002808F00026080A168A11F2
:100D680066270A128A11710883120313B9007008E2
:100D7800B8003808A8003908A900AA01AB01083052
:100D88000310A80DA90DAA0DAB0DFF3E031DC42E1F
:100D98002808B407290803110318013E0319D52EA2
:100DA800B5072A0803110318013E0319DC2EB607FC
:100DB8002B0803110318013E0319E32EB7072E0869
:100DC800A8002F08A9003008AA003108AB00183085
:100DD8000310AB0CAA0CA90CA80CFF3E031DEC2EAB
:100DE8002808B407290803110318013E0319FD2E2A
:100DF800B5072A0803110318013E0319042FB60783
:100E08002B0803110318013E03190B2FB7070830ED
:100E1800A8000310AE0DAF0DB00DB10DA80B0D2F2E
:100E280033083207A800A901A90D2808823EB80096
:100E380029080318013EFF3EB9003F2F0130A800E2
:100E48000310B40DB50DB60DB70DA80B242FB11FA7
:100E58002E2F2F2F302F34140130A8000310AE0D81
:100E6800AF0DB00DB10DA80B322FFF30B807031826
:100E7800B90AFF30B907B61F422F432F222FB201FC
:100E8800B11F472F482F642FFF302E05A800FF30D1
:100E98002F05A900FF303005AA007F303105AB00CF
:100EA8002B082A042904280403195B2F5C2F5F2FC1
:100EB800B201B20A642F341C622F632F642F5C2F97
:100EC80032080319682F692F9A2F0130B4070030B0
:100ED80003180130B507003003180130B607003099
:100EE80003180130B707371C7A2F7B2F9A2F340845
:100EF800A8003508A9003608AA003708AB00013059
:100F0800AC002B0DAB0CAA0CA90CA80CAC0B852FB4
:100F18002B08B7002A08B6002908B5002808B4002D
:100F28000130B8070318B90A0030B9073908803A00
:100F3800FF0080307F02031DA32FFF303802031CFF
:100F4800A62FA72FB22F7F3083120313B70080304C
:100F5800B6000030B5000030B400E72F8312031349
:100F68003908803AFF0080307F02031DBD2F013011
:100F780038020318C02FC12FCD2F0030831203135E
:100F8800B7000030B6000030B5000030B400AD0145
:100F9800E72F831203133808A8002808B300FF308E
:100FA800B405FF30B5057F30B6050030B705331CF2
:100FB800DE2FDF2FE02FB6173308A8000310280C08
:100FC800A9002908B7002D08A8002808B704370881
:100FD800A3003608A2003508A1003408A0000800C4
:100FE80083160313C801C901CA01CB01CC01CD0185
:100FF80083010A128A15A12E08308A000408840A7F
:10100800820700340A340D342B34203441347534CB
:101018006D3465346E34743461347234203463341E
:101028006F346E347434613464346F3472340A3417
:101038000D3400342D3420344434693473346D3421
:1010480069346E34753469347234203463346F34DF
:101058006E347434613464346F3472340A340D3449
:10106800003456346F346C34743461346A34653403
:10107800203464346534203450344F3454343A3492
:10108800203400340A340D340A340D340034433427
:10109800503455343A34003450344F3454340034D6
:0810A8002E34003456340034EC
:1010B400F0007008831203138800080000300A123D
:1010C4008A155A200A128A1501300A128A155A20E2
:1010D4000A128A1508002030831603178800890134
:1010E400831603138501880180308700831203135C
:1010F40085018801870101300A168A11B4270A1272
:101104008A150530F0000030F1000A128A15C32256
:101114000A128A15831603131F129F1283120313D4
:101124001F139F17831603139F13831203131F1494
:101134002130FA00FA0B9C28831203139F148316A0
:101144000313CD01CC01CB01CA01C901C8010A12A4
:101154008A15BA200A128A15803083120313A60056
:101164002530A7000A128A1508210A128A150800D8
:1011740000300A128A155A200A128A1583120313A0
:1011840007104130F500EE30F400F40BC728F50BDE
:10119400C728000030300A128A1104200A128A1566
:1011A4000D30F500FB30F400F40BD628F50BD628EF
:1011B400DB2830300A128A1104200A128A152730DB
:1011C400F500F530F400F40BE528F50BE528303094
:1011D4000A128A1104200A128A1538300A128A1156
:1011E40004200A128A150C300A128A1104200A12E9
:1011F4008A1501300A128A1104200A128A1506304F
:101204000A128A1104200A128A1508008312031391
:101214002608F0002708F100F201F3010030F7007E
:101224007A30F6001230F5000030F4000A128A1504
:101234005F230A128A15730883120313AB00720822
:10124400AA007108A9007008A8000030F30000305B
:10125400F2000030F1000430F0002B08F7002A08F7
:10126400F6002908F5002808F4000A128A155F23FD
:101274000A128A157008FF3EF900790883120313D5
:10128400AC00831603131812181583160317871559
:10129400831203132C088316031399009A018312F3
:1012A40003139817831603131813831203131813C5
:1012B4008316031398168312031318160800831257
:1012C4000313E4006408DF00E001E101E2016208C5
:1012D400F3006108F2006008F1005F08F0000130DB
:1012E4000A128A15FC230A128A157308831203133F
:1012F400A7007208A6007108A5007008A4003F307A
:10130400A300FA30A200F830A1003830A0000A127D
:101314008A1193240A128A15831203132308C10025
:101324002208C0002108BF002008BE004230BD00D2
:10133400C830BC000030BB000030BA000A128A1169
:101344001E200A128A15831203133D08D7003C0895
:10135400D6003B08D5003A08D4000A128A15BC21ED
:101364000A128A15831203135408E3006308E40085
:1013740064080800031083120313560D570DD80098
:101384005808DE005E08031DC829C929D229003087
:10139400D7000030D6000030D5000030D400372A02
:1013A4005408D8005508D9005608DA005708DB005D
:1013B4001F300310DB0CDA0CD90CD80CFF3E031DD4
:1013C400DB295808DC005C08DD00D617FF30D405A3
:1013D400FF30D505FF30D6050030D7059630DE0244
:1013E400DE1FF529F629102A5E08803A973E031875
:1013F400FC29FD29FE29C92901300310D70CD60C7C
:10140400D50CD40CFF3E031DFF290130D800580829
:10141400DE07031D0E2A0F2AFE29272A20305E022A
:10142400031C152A162A222AC9290130D8000310C0
:10143400D40DD50DD60DD70DD80B192A0130DE02E7
:101444005E08031D262A272A172A5D0803192B2A5A
:101454002C2A372AD409D509D609D709D40A03195D
:10146400D50A0319D60A0319D70A080083160313E9
:10147400A90183120313EC1F402A412A4A2AEB09CB
:10148400EC09EB0A0319EC0A83160313A901A90A50
:101494008312EE1F4E2A4F2A5A2AED09EE09ED0A4D
:1014A4000319EE0A0130EF006F0883160313A9062F
:1014B40083160313AA01AB01831203136B086C0494
:1014C4000319652A662AAC2A83160313A801A80AFD
:1014D400782A01300310EB0DEC0DFF3E031D6C2A3E
:1014E4000130EF006F0883160313A8078312031358
:1014F400EC1F7D2A7E2A6B2A013083160313031006
:10150400AA0DAB0DFF3E031D812A831203136C0841
:101514006E02031D8F2A6B086D02031C922A932A04
:101524009C2A6B08ED026C08031CEE03EE02831682
:1015340003132A14013083120310EC0CEB0CFF3E4E
:10154400031D9E2A013083160313A802031DAB2A30
:10155400AC2A7E2A8316031329080319B22AB32A54
:10156400B82AAA09AB09AA0A0319AB0A2B088312E1
:101574000313EC00831603132A0883120313EB00EE
:1015840008002D2B831203139F121F129F111F118A
:101594005E2B831203139F121F129F111F155E2BC4
:1015A400831203139F121F129F151F115E2B8312A8
:1015B40003139F121F129F151F155E2B8312031313
:1015C4009F121F169F111F115E2B831203139F126C
:1015D4001F169F111F155E2B831203139F121F16D4
:1015E4009F151F115E2B831203139F121F169F1545
:1015F4001F155E2B831203139F161F129F111F11B9
:101604005E2B831203139F161F129F111F155E2B4F
:10161400831203139F161F129F151F115E2B831233
:1016240003139F161F129F151F155E2B831203139E
:101634009F161F169F111F115E2B831203139F16F3
:101644001F169F111F155E2B831203139F121F1267
:101654009F111F115E2B7108003A0319322B262BA0
:101664007008003A0319C42A013A0319CB2A033A31
:101674000319D22A013A0319D92A073A0319E02A8D
:10168400013A0319E72A033A0319EE2A013A031926
:10169400F52A0F3A0319FC2A013A0319032B033ADA
:1016A40003190A2B013A0319112B073A0319182BB2
:1016B400013A03191F2B262B080083120313A101DF
:1016C400F31F652B662B732BF009F109F209F3095B
:1016D400F00A0319F10A0319F20A0319F30AA10122
:1016E400A10AF71F762B772B862BF409F509F60947
:1016F400F709F40A0319F50A0319F60A0319F70A94
:101704000130F8007808A1060030A5000030A400DC
:101714000030A3000030A200730872047104700446
:101724000319952B962BE32BA001A00AA62B0130BD
:10173400F8000310F00DF10DF20DF30DF80B9B2BD7
:101744000130F8007808A007F31FA92BAA2B992BC6
:101754000130F8000310A20DA30DA40DA50DF80B84
:10176400AC2B73087702031DC12B72087602031D8C
:10177400C12B71087502031DC12B70087402031C70
:10178400C42BC52BD42B7008F4027108031C710FF1
:10179400F5027208031C720FF6027308031C730F20
:1017A400F702221401300310F30CF20CF10CF00CCC
:1017B400FF3E031DD52B0130A002031DE22BE32BBA
:1017C400AA2B21080319E72BE82BF32BA209A30961
:1017D400A409A509A20A0319A30A0319A40A03194F
:1017E400A50A2508F3002408F2002308F1002208C2
:1017F400F0000800F80078080319012C022C162CBC
:10180400F31F052C062C162C7009FA007109FB0035
:101814007209FC007309FD00FA0A0319FB0A031993
:10182400FC0A0319FD0A1E2C7308FD007208FC0053
:101834007108FB007008FA007308720471047004E4
:10184400031D252C262C2F2C0030F3000030F20031
:101854000030F1000030F000B52C9630F40074082C
:10186400F900412C0130F4007408F9070130031029
:10187400FD0CFC0CFB0CFA0CFF3E031D392CFE3056
:101884007D05031D462C472C342C632C0130F400B9
:101894007408F9070130FA07003003180130FB0718
:1018A400003003180130FC07003003180130FD0735
:1018B40001300310FD0CFC0CFB0CFA0CFF3E031D65
:1018C4005B2CFF307D05031D682C692C482C752C7E
:1018D4000130F9020130F4000310FA0DFB0DFC0D88
:1018E400FD0DF40B6E2CFC1B782C792C7F2C023014
:1018F400790203187E2C7F2C6A2C7918822C832C75
:101904008B2CFF30FA05FF30FB057F30FC05FF30E0
:10191400FD050310F90C7908F400F501F601F7014F
:1019240018300310F40DF50DF60DF70DFF3E031DF1
:10193400932C7408FA047508FB047608FC047708F1
:10194400FD0478080319A72CA82CAD2CF31FAB2C8D
:10195400AC2CAD2CFD177D08F3007C08F2007B084D
:10196400F1007A08F000080083160313B70064300E
:1019740083120313E7000030E800831603133708CB
:101984000A128A1561210A128A1583160313AC0000
:10199400AD012C0883120313E500831603132D08ED
:1019A40083120313E6000A168A118D270A128A1578
:1019B40083120313650883160313B30083120313FE
:1019C400660883160313B4000030B41BFF30B5005F
:1019D400B6000A3083120313EB000030EC008316C8
:1019E40003133708AC00AD01AE01AF012F08F300BB
:1019F4002E08F2002D08F1002C08F00001300A1224
:101A04008A15FC230A128A15730883120313A7008C
:101A14007208A6007108A5007008A4003F30A30056
:101A2400FA30A200F830A1003830A0000A128A115E
:101A340093240A128A1583120313230883160313AB
:101A4400A70083120313220883160313A60083122C
:101A54000313210883160313A5008312031320081C
:101A640083160313A4003608F3003508F200340883
:101A7400F1003308F00001300A128A15FC230A121F
:101A84008A15730883160313A3007208A200710851
:101A9400A1007008A0000A168A111D270A128A15CF
:101AA40083160313230883120313D7008316031327
:101AB400220883120313D60083160313210883120A
:101AC4000313D50083160313200883120313D400D1
:101AD4000A128A15BC210A128A15831203135408A8
:101AE40083160313B000B101300883120313ED0011
:101AF40083160313310883120313EE000A128A15A6
:101B040038220A128A15831203136B0883160313EF
:101B1400B2003208B7003708080083160313C60062
:101B2400643083120313E7000030E80083160313C4
:101B340046080A128A1561210A128A1583160313AC
:101B4400B800B901380883120313E50083160313A0
:101B5400390883120313E6000A168A118D270A1224
:101B64008A1583120313650883160313BC008312BA
:101B74000313660883160313BD000030BD1BFF303A
:101B8400BE00BF0046080A128A15B6240A128A1536
:101B940083160313B800B9013808C4003908C50016
:101BA4004608B800B901BA01BB013B08F3003A0882
:101BB400F2003908F1003808F00001300A128A15E1
:101BC400FC230A128A15730883120313A7007208F0
:101BD400A6007108A5007008A4003F30A300FA30E5
:101BE400A200F830A1003830A0000A128A11932410
:101BF4000A128A1583120313230883160313A700FA
:101C040083120313220883160313A60083120313FB
:101C1400210883160313A5008312031320088316D7
:101C24000313A4003F08F3003E08F2003D08F1004E
:101C34003C08F00001300A128A15FC230A128A15A6
:101C4400730883160313A3007208A2007108A1008D
:101C54007008A0000A168A111D270A128A15831615
:101C640003132308C3002208C2002108C10020086E
:101C7400C0004308A7004208A6004108A500400888
:101C8400A4000A3083120313E7000030E80083162F
:101C94000313450883120313E60083160313440851
:101CA40083120313E5000A168A118D270A128A1576
:101CB400831203136508F0006608F1000030F11B7D
:101CC400FF30F200F30001300A128A15FC230A12D5
:101CD4008A15730883160313A3007208A2007108FF
:101CE400A1007008A0000A168A111D270A128A157D
:101CF40083160313230883120313D70083160313D5
:101D0400220883120313D6008316031321088312B7
:101D14000313D50083160313200883120313D4007E
:101D24000A128A15BC210A128A1583120313540855
:101D340083160313B8003808C600460808000A12C0
:101D44008A156D200A128A15831603134D08C700DD
:101D54004708C8000A168A11B2260A128A157008A2
:101D640083160313C7004708CD004D080A128A15CD
:101D740061210A128A1583160313C7004708C90094
:101D84004D080A128A15B6240A128A1583160313FB
:101D9400C7004708CA004D080A128A158F250A127F
:101DA4008A1583160313C7004708CB003030C700D9
:101DB4004708C9073030C7004708CA073030C70092
:101DC4004708CB070A168A119C260A128A1583161D
:101DD4000313C7004708CC002B304C06031DF32E19
:101DE400F42EFB2E0130C700470883120313850726
:101DF400052F2D304C06031D002F012F052F013018
:101E040083120313850283160313CC0148084D067D
:101E140003190D2F0E2F4A2F01300A168A11FE26A0
:101E24000A128A1519300A168A11FE260A128A1510
:101E340030300A168A11FE260A128A1583160313F5
:101E440049080A168A11A6260A128A154F300A165C
:101E54008A11FE260A128A15831603134A080A16E3
:101E64008A11A6260A128A15831603134B080A162A
:101E74008A11A6260A128A1551300A168A11FE26DC
:101E84000A128A1541300A168A11FE260A128A1588
:101E94000A128A1560200A128A15F401F40A013024
:101EA4000A168A11E2260A128A154B300A168A117A
:101EB40041270A128A15F401F40A02300A168A111B
:101EC400E2260A128A158316031349080A168A1190
:101ED400C8260A128A154F300A168A1141270A1297
:101EE4008A15831603134A080A168A11C8260A1289
:101EF4008A15831603134B080A168A11C8260A1278
:101F04008A1551300A168A1141270A128A1583123A
:101F1400031305080A128A1561210A128A15831609
:101F24000313C7004708C9008312031305080A12E4
:101F34008A15B6240A128A1583160313C7004708A4
:101F4400CA008312031305080A128A158F250A1280
:101F54008A1583160313C7004708CB003030C70027
:101F64004708C9073030C7004708CA073030C700E0
:101F74004708CB070A30C7004708F40001300A16A7
:101F84008A11E2260A128A1546300A168A11412756
:101F94000A128A150A3083160313C7004708F4008F
:101FA40002300A168A11E2260A128A1583160313CE
:101FB40049080A168A11C8260A128A154F300A16C9
:101FC4008A1141270A128A15831603134A080A162E
:101FD4008A11C8260A128A15831603134B080A1697
:101FE4008A11C8260A128A1551300A168A11412705
:0C1FF4000A128A15A62E0A128A11002873
:102D3800831203138C1EA12EA22EA42E1A08A52ED0
:102D4800A52E0800F00083160313981CAC2EAD2E98
:102D5800A72E700883120313990008008312031327
:102D68009F14C22E9F18B92EBA2EC22E1E08F2002A
:102D7800F3017208F0007308F100C72E9F18C52EE2
:102D8800C62EB62EC72E0800F300831203130714AD
:102D980073080A128A155A200A168A118312031315
:102DA80087140B30F2006230F100F10BD92EF20BD0
:102DB800D92E00008312031387100800F50075034D
:102DC800031DE72EE82EF02E7408803E0A128A11A1
:102DD80004200A168A11FD2E02307506031DF52EF1
:102DE800F62EFD2E7408C03E0A128A1104200A1617
:102DF8008A110800F200102F720884000A128A153E
:102E080000200A168A110A168A11A6260A168A119D
:102E18000130F1007108F207720884000A128A155D
:102E280000200A168A11003A031D1B2F1C2F002FA1
:102E38000800803083160313A3062708F30026082A
:102E4800F2002508F1002408F0002308F700220802
:102E5800F6002108F5002008F4000A128A11FB2167
:102E68000A168A11730883160313A3007208A200B6
:102E78007108A1007008A0000800F600F401F5012F
:102E8800582F7408760784000A128A1500200A163B
:102E98008A110A168A11C8260A168A110130F407FF
:102EA8000318F50A0030F5077408760784000A123B
:102EB8008A1500200A168A11003A031D642F652F0F
:102EC800452F0800F800F401F5017008F200F3013D
:102ED8007208F6007308F700781C732F742F7A2F86
:102EE8007608F4070318F50A7708F5070130031088
:102EF800F60DF70DFF3E031D7B2F0310F80C780825
:102F0800031D872F882F702F7508F1007408F000B3
:102F1800080083120313E901EA01651C942F952F19
:102F28009B2F6708E9070318EA0A6808EA070130CF
:102F38000310E70DE80DFF3E031D9C2F0130031021
:102F4800E60CE50CFF3E031DA32F65086604031D70
:102F5800AE2FAF2F912F6A08E6006908E500080038
:102F6800F200831603130F14DD2F0F178F160F1699
:102F7800FF2F0F178F160F12FF2F0F178F120F1615
:102F8800FF2F0F178F120F12FF2F0F138F160F1609
:102F9800FF2F0F138F160F12FF2F0F138F120F16FD
:102FA800FF2F0F138F120F12FF2F0F178F160F12ED
:102FB800FF2F7208F000F1017108003A0319E52F9C
:102FC800D92F7008013A0319B92F033A0319BD2FF5
:102FD800013A0319C12F073A0319C52F013A0319FA
:102FE800C92F033A0319CD2F013A0319D12F0F3AEC
:082FF8000319D52FD92F0800A1
:08400000FF3FFF3FFF3FFF3FC0
:04400E00D420FF3F7C
:00000001FF
