:060000000A128A11F42F20
:10000800F30083120313071073080A168A11702667
:100018000A128A118312031387140D30F200FB3081
:10002800F100F10B1528F20B15281A288312031377
:10003800871008008312031341088039C200420860
:10004800CB004108C2004207C3004308D200C01FCA
:100058002E282F28302852145208031934283528FE
:100068004528520A031D39283A2842280030C10081
:100078000030C0000030BF000030BE00C017C10112
:100088004D280030C1000030C0000030BF000030F3
:10009800BE003D088039C2004208CB063D08C200B8
:1000A8004207C3004308D300BC1F5B285C285D28B7
:1000B800531453080319612862287228530A031D30
:1000C800662867286F280030BD000030BC0000306B
:1000D800BB000030BA00BC17BD017A280030BD0053
:1000E8000030BC000030BB000030BA003D083C04C2
:1000F8003B043A04031D812882289B280030C10054
:100108000030C0000030BF000030BE008030C004A6
:100118007F30C1044B08C2004208C1044108BD0039
:100128004008BC003F08BB003E08BA00FA29520844
:10013800031D9F28A028A9280030BD000030BC005E
:100148000030BB000030BA00FA295208C200C301CF
:100158004308C50053084202C400031CC5034408F1
:100168007F3ECC0045080318013E003ECD00410803
:10017800CA004008C9003F08C8003E08C700003050
:10018800C1000030C0000030BF000030BE000030A9
:10019800D1000030D0000030CF000030CE00D301B5
:1001A8001F2953080319D928DA28FA280130C20070
:1001B8000310C70DC80DC90DCA0DC20BDC280130CC
:1001C800C2000310BE0DBF0DC00DC10DC20BE52846
:1001D800D11FEF28F028F1283E140130C200031087
:1001E800CE0DCF0DD00DD10DC20BF3283D084A021C
:1001F800031D08293C084902031D08293B08480239
:10020800031D08293A084702031C0B290C291B293E
:1002180051173A08C7023B08031C3B0FC8023C08A9
:10022800031C3C0FC9023D08031C3D0FCA020130E4
:10023800C2004208D3071A305302031C2429252977
:10024800D5284A0849044804470403192C292D29AC
:100258004C294E144C290130C2000310BE0DBF0DAD
:10026800C00DC10DC20B3129D11F3B293C293D29A5
:100278003E140130C2000310CE0DCF0DD00DD10DAC
:10028800C20B3F29FF30CC070318CD0AFF30CD073A
:10029800C01F4F2950292F29D301D11F542955296F
:1002A8007129FF304E05C200FF304F05C300FF30F3
:1002B8005005C4007F305105C50045084404430477
:1002C80042040319682969296C29D301D30A7129C1
:1002D8003E1C6F297029712969295308031975294A
:1002E8007629A7290130BE07003003180130BF075F
:1002F800003003180130C007003003180130C1076F
:10030800411C87298829A7293E08C2003F08C30045
:100318004008C4004108C5000130C600450DC50CA1
:10032800C40CC30CC20CC60B92294508C100440872
:10033800C0004308BF004208BE000130CC070318C4
:10034800CD0A0030CD074D08803AFF0080307F028B
:10035800031DB029FF304C02031CB329B429C2295C
:10036800FF3083120313CC000030CD000030C100F1
:100378000030C0000030BF000030BE0083120313FD
:100388004D08803AFF0080307F02031DCD290130DF
:100398004C020318D029D129DE2983120313CC017A
:1003A800CD010030C1000030C0000030BF00003077
:1003B800BE00CB01831203134C08C2004208D200CE
:1003C800521CE729E829EA29C017EE297F30C20024
:1003D8004208C0055208C2000310420CC30043087B
:1003E800C1004B08C2004208C104922808007308E3
:1003F800803983120313A0002008F8007308A000B6
:100408002007A1002108FA00F21F0B2A0C2A0D2A46
:100418007A147A080319112A122A222A7A0A031D41
:10042800162A172A1F2A0030F3000030F200003085
:10043800F1000030F000F217F3012A2A0030F3002F
:100448000030F2000030F1000030F0007708803909
:10045800A0002008F900790878060319342A352AFB
:10046800362A78177708A0002007A1002108F9008C
:10047800F61F3F2A402A412A791479080319452A88
:10048800462A562A790A031D4A2A4B2A532A00303B
:10049800F7000030F6000030F5000030F400F617E1
:1004A800F7015E2A0030F7000030F6000030F50052
:1004B8000030F4007A0879020318632A642AA82A0B
:1004C800781F672A682A6C2A8030A0002008F8065E
:1004D8007A08A0002008FB007908A0002008FA008C
:1004E8007B08A0002008F9007008A0002008FB0085
:1004F8007408A0002008F0007B08A0002008F40081
:100508007108A0002008FB007508A0002008F10071
:100518007B08A0002008F5007208A0002008FB0056
:100528007608A0002008F2007B08A0002008F6004A
:100538007308A0002008FB007708A0002008F3003B
:100548007B08A0002008F700FB017908A000A101A2
:100558002108A3007A082002A200031CA303230891
:10056800803AFF0080307F02031DBC2A1A30220225
:10057800031CBF2AC02A012B73087204710470047B
:10058800031DC72AC92A0130CA2A0030831203135F
:10059800A0002008FB000030F3000030F20000301B
:1005A800F1000030F0007908A0002008FA00072BBD
:1005B8007B1CDF2AE02AEB2A7B0883120313A000A6
:1005C8000310200C0138A1002108FB00ED2A0310BC
:1005D800FB0C701CF02AF12AF22AFB170130831257
:1005E8000313A000730DF30CF20CF10CF00CA00B2C
:1005F800F62A0130A0002008FA0779087A02031CBD
:10060800062B072BDC2A781B0A2B0B2B5A2B7A0874
:10061800031D0F2B102B192B0030F3000030F200B4
:100628000030F1000030F000922C7408F0077508D3
:1006380003110318013E0319222BF1077608031151
:100648000318013E0319292BF20777080311031831
:10065800013E0319302BF307731C332B342B122C58
:100668007B1C372B382B432B7B0883120313A000EA
:100678000310200C0138A1002108FB00452B0310B2
:10068800FB0C701C482B492B4A2BFB17013083129B
:100698000313A000730DF30CF20CF10CF00CA00B7B
:1006A8004E2B0130A0002008FA07122C7308803A5C
:1006B800FF007708803A7F02031D6C2B76087202D0
:1006C800031D6C2B75087102031D6C2B74087002D6
:1006D80003186F2B702BCA2BFF3083120313A00053
:1006E800FF30A100FF30A200FF30A3007408A4006F
:1006F8007508A5007608A6007708A7007008A40268
:100708007108031C710F892B8A2BA5027208031C20
:10071800720F8F2B902BA6027308031C730F952B57
:10072800962BA7022408A00725080318250F9D2B40
:100738009E2BA10726080318260FA32BA42BA2077C
:1007480027080318270AA3072308F3002208F20042
:100758002108F1002008F0008030A0002008F806E9
:10076800FB09FB0A7B08031DBA2BBB2BD82B0130D6
:10077800F007003003180130F1070030031801308A
:10078800F207003003180130F307D82B7408F00281
:100798007508031C750FF1027608031C760FF20228
:1007A8007708031C770FF30273087204710470044E
:1007B800031DDF2BE02B0E2C7B08031DE42BE52B00
:1007C8000E2C0030F3000030F2000030F100003051
:1007D800F000922C013083120313A0000310F00DD7
:1007E800F10DF20DF30DA00BF22BFB1FFC2BFD2BD3
:1007F800FE2B70147B1C012C022C052C0314FB0D02
:10080800072C0310FB0D7A0803190B2C0C2C0E2C4B
:100818000130FA02F21F112C122CEE2BF901FB1FEA
:10082800162C172C252C7B087F3903191C2C1D2C02
:10083800202CF901F90A252C701C232C242C252C9A
:100848001D2C79080319292C2A2C602C0130F0075B
:10085800003003180130F107003003180130F207A7
:10086800003003180130F307731C3B2C3C2C602C20
:10087800700883120313A0007108A1007208A20077
:100888007308A3000130A400230DA30CA20CA10C33
:10089800A00CA40B482C2308F3002208F20021081E
:1008A800F1002008F0007A0A03195B2C5C2C602CFC
:1008B8000130A0002008FA077A0A0319642C652C75
:1008C8006A2C7A08031D692C6A2C782C0030F300F6
:1008D8000030F2000030F1000030F0007A08031D0B
:1008E800762C772C782CF8017A1C7B2C7C2C7E2C8F
:1008F800F217842C7F3083120313A0002008F2051E
:100908007A0883120313A0000310200CA100210809
:10091800F300F81F902C912C922CF31708008312E7
:10092800031323088039A8002808AD002308A8006D
:100938002807A9002908B300A21FA32CA42CA52CC2
:10094800331433080319A92CAA2CB92C330A031D14
:10095800AE2CAF2CB72C0030A3000030A200003022
:10096800A1000030A000A217C12C0030A300003065
:10097800A2000030A1000030A00027088039A8009C
:100988002808AD062708A8002807A9002908B200EA
:10099800A61FCF2CD02CD12C321432080319D52CF9
:1009A800D62CE52C320A031DDA2CDB2CE32C003084
:1009B800A7000030A6000030A5000030A400A6174C
:1009C800ED2C0030A7000030A6000030A500003054
:1009D800A40032080319F12CF22CF72C3308031D5C
:1009E800F62CF72C002D0030A3000030A2000030B8
:1009F800A1000030A000F32F2008A8002808F0006C
:100A080026080A168A1140270A128A1171088312C9
:100A18000313B9007008B8003808A800A901AA0192
:100A2800AB012B08B1002A08B0002908AF0028083C
:100A3800AE003908A800A901AA01AB012B08B7002C
:100A48002A08B6002908B5002808B4002108A8001B
:100A58002808F00025080A168A1140270A128A1168
:100A6800710883120313B9007008B8003808A80089
:100A7800A901AA01AB012808AE0729080311031828
:100A8800013E0319482DAF072A0803110318013E38
:100A980003194F2DB0072B0803110318013E031942
:100AA800562DB1073908A800A901AA01AB012808E9
:100AB800B407290803110318013E0319642DB5076B
:100AC8002A0803110318013E03196B2DB6072B08DA
:100AD80003110318013E0319722DB7072208A80055
:100AE8002808F00024080A168A1140270A128A11D9
:100AF800710883120313B9007008B8003808A800F9
:100B0800A901AA01AB012808AE0729080311031897
:100B1800013E0319902DAF072A0803110318013E5F
:100B28000319972DB0072B0803110318013E031969
:100B38009E2DB1073908A800A901AA01AB01280810
:100B4800B407290803110318013E0319AC2DB50792
:100B58002A0803110318013E0319B32DB6072B0801
:100B680003110318013E0319BA2DB7070830A8006E
:100B78000310AE0DAF0DB00DB10DA80BBC2D2108A3
:100B8800A8002808F00024080A168A1140270A122B
:100B98008A11710883120313B9007008B800380865
:100BA800A8003908A900AA01AB012808AE0729083E
:100BB80003110318013E0319E22DAF072A08031198
:100BC8000318013E0319E92DB0072B080311031878
:100BD800013E0319F02DB1072008A8002808F000ED
:100BE80025080A168A1140270A128A1171088312E9
:100BF8000313B9007008B8003808A8003908A9001C
:100C0800AA01AB012808AE07290803110318013E01
:100C180003190F2EAF072A0803110318013E031901
:100C2800162EB0072B0803110318013E03191D2EB9
:100C3800B1070830A8000310AE0DAF0DB00DB10D0F
:100C4800A80B1F2E2008A8002808F00024080A1660
:100C58008A1140270A128A11710883120313B900F6
:100C68007008B8003808A8003908A900AA01AB0123
:100C78002808AE07290803110318013E0319452E59
:100C8800AF072A0803110318013E03194C2EB007B9
:100C98002B0803110318013E0319532EB10721082D
:100CA800A8002808F00026080A168A1140270A1208
:100CB8008A11710883120313B9007008B800380844
:100CC800A8003908A900AA01AB012808B407290817
:100CD80003110318013E0319722EB5072A080311E0
:100CE8000318013E0319792EB6072B0803110318C0
:100CF800013E0319802EB7072208A8002808F00033
:100D080025080A168A1140270A128A1171088312C7
:100D18000313B9007008B8003808A8003908A900FA
:100D2800AA01AB012808B407290803110318013EDA
:100D380003199F2EB5072A0803110318013E03194A
:100D4800A62EB6072B0803110318013E0319AD2E72
:100D5800B7072208A8002808F00026080A168A11F2
:100D680040270A128A11710883120313B900700808
:100D7800B8003808A8003908A900AA01AB01083052
:100D88000310A80DA90DAA0DAB0DFF3E031DC42E1F
:100D98002808B407290803110318013E0319D52EA2
:100DA800B5072A0803110318013E0319DC2EB607FC
:100DB8002B0803110318013E0319E32EB7072E0869
:100DC800A8002F08A9003008AA003108AB00183085
:100DD8000310AB0CAA0CA90CA80CFF3E031DEC2EAB
:100DE8002808B407290803110318013E0319FD2E2A
:100DF800B5072A0803110318013E0319042FB60783
:100E08002B0803110318013E03190B2FB7070830ED
:100E1800A8000310AE0DAF0DB00DB10DA80B0D2F2E
:100E280033083207A800A901A90D2808823EB80096
:100E380029080318013EFF3EB9003F2F0130A800E2
:100E48000310B40DB50DB60DB70DA80B242FB11FA7
:100E58002E2F2F2F302F34140130A8000310AE0D81
:100E6800AF0DB00DB10DA80B322FFF30B807031826
:100E7800B90AFF30B907B61F422F432F222FB201FC
:100E8800B11F472F482F642FFF302E05A800FF30D1
:100E98002F05A900FF303005AA007F303105AB00CF
:100EA8002B082A042904280403195B2F5C2F5F2FC1
:100EB800B201B20A642F341C622F632F642F5C2F97
:100EC80032080319682F692F9A2F0130B4070030B0
:100ED80003180130B507003003180130B607003099
:100EE80003180130B707371C7A2F7B2F9A2F340845
:100EF800A8003508A9003608AA003708AB00013059
:100F0800AC002B0DAB0CAA0CA90CA80CAC0B852FB4
:100F18002B08B7002A08B6002908B5002808B4002D
:100F28000130B8070318B90A0030B9073908803A00
:100F3800FF0080307F02031DA32FFF303802031CFF
:100F4800A62FA72FB22F7F3083120313B70080304C
:100F5800B6000030B5000030B400E72F8312031349
:100F68003908803AFF0080307F02031DBD2F013011
:100F780038020318C02FC12FCD2F0030831203135E
:100F8800B7000030B6000030B5000030B400AD0145
:100F9800E72F831203133808A8002808B300FF308E
:100FA800B405FF30B5057F30B6050030B705331CF2
:100FB800DE2FDF2FE02FB6173308A8000310280C08
:100FC800A9002908B7002D08A8002808B704370881
:100FD800A3003608A2003508A1003408A0000800C4
:100FE80083160313CA01CB01CC01CD01CE01CF0179
:100FF80083010A128A15782E08308A000408840AA8
:10100800820700340A340D342B34203441347534CB
:101018006D3465346E34743461347234203463341E
:101028006F346E347434613464346F3472340A3417
:101038000D3400342D3420344434693473346D3421
:1010480069346E34753469347234203463346F34DF
:101058006E347434613464346F3472340A340D3449
:10106800003456346F346C34743461346A34653403
:10107800203464346534203450344F3454343A3492
:10108800203400340A340D340A340D340034433427
:10109800503455343A34003450344F3454340034D6
:0810A8002E34003456340034EC
:1010BA0000300A168A1170260A128A1501300A1699
:1010CA008A1170260A128A15080083120313E9018D
:1010DA00EA01651C7128722878286708E90703184D
:1010EA00EA0A6808EA0701300310E70DE80DFF3E37
:1010FA00031D792801300310E60CE50CFF3E031DA1
:10110A00802865086604031D8B288C286E286A08C7
:10111A00E6006908E500080000300A168A11702600
:10112A000A128A158312031307104130F500EE30B4
:10113A00F400F40B9E28F50B9E28000030300A12AA
:10114A008A1104200A128A150D30F500FB30F400CA
:10115A00F40BAD28F50BAD28B22830300A128A11EB
:10116A0004200A128A152730F500F530F400F40B32
:10117A00BC28F50BBC2830300A128A1104200A1246
:10118A008A1538300A128A1104200A128A150C307C
:10119A000A128A1104200A128A1501300A128A11C7
:1011AA0004200A128A1506300A128A1104200A1229
:1011BA008A150800831203132608F0002708F10095
:1011CA00F201F3010030F7007A30F6001230F50030
:1011DA000030F4000A128A1536230A128A15730897
:1011EA0083120313AB007208AA007108A9007008E1
:1011FA00A8000030F3000030F2000030F1000430A3
:10120A00F0002B08F7002A08F6002908F50028083C
:10121A00F4000A128A1536230A128A157008FF3E4C
:10122A00F900790883120313AC008316031318120A
:10123A001815831603178715831203132C088316B0
:10124A00031399009A018312031398178316031341
:10125A001813831203131813831603139816831291
:10126A0003131816080083120313E4006408DF004E
:10127A00E001E101E2016208F3006108F20060089E
:10128A00F1005F08F00001300A128A15D3230A120E
:10129A008A15730883120313A7007208A60071083F
:1012AA00A5007008A4003F30A300FA30A200F8306D
:1012BA00A1003830A0000A128A1193240A128A1552
:1012CA00831203132308C1002208C0002108BF00AB
:1012DA002008BE004230BD00C830BC000030BB0050
:1012EA000030BA000A128A111E200A128A158312C5
:1012FA0003133D08D7003C08D6003B08D5003A083E
:10130A00D4000A128A1593210A128A15831203132A
:10131A005408E3006308E400640808000310831219
:10132A000313560D570DD8005808DE005E08031D3A
:10133A009F29A029A9290030D7000030D600003003
:10134A00D5000030D4000E2A5408D8005508D90018
:10135A005608DA005708DB001F300310DB0CDA0CE2
:10136A00D90CD80CFF3E031DB2295808DC005C08D2
:10137A00DD00D617FF30D405FF30D505FF30D6057E
:10138A000030D7059630DE02DE1FCC29CD29E729A9
:10139A005E08803A973E0318D329D429D529A02973
:1013AA0001300310D70CD60CD50CD40CFF3E031D0C
:1013BA00D6290130D8005808DE07031DE529E62999
:1013CA00D529FE2920305E02031CEC29ED29F929D2
:1013DA00A0290130D8000310D40DD50DD60DD70D94
:1013EA00D80BF0290130DE025E08031DFD29FE2913
:1013FA00EE295D080319022A032A0E2AD409D509FF
:10140A00D609D709D40A0319D50A0319D60A031922
:10141A00D70A080083160313A90183120313EC1FCA
:10142A00172A182A212AEB09EC09EB0A0319EC0AF4
:10143A0083160313A901A90A8312EE1F252A262A55
:10144A00312AED09EE09ED0A0319EE0A0130EF001F
:10145A006F0883160313A90683160313AA01AB01A7
:10146A00831203136B086C0403193C2A3D2A832A4E
:10147A0083160313A801A80A4F2A01300310EB0DA3
:10148A00EC0DFF3E031D432A0130EF006F0883165F
:10149A000313A80783120313EC1F542A552A422A5E
:1014AA000130831603130310AA0DAB0DFF3E031D73
:1014BA00582A831203136C086E02031D662A6B08EE
:1014CA006D02031C692A6A2A732A6B08ED026C08EA
:1014DA00031CEE03EE02831603132A14013083124F
:1014EA000310EC0CEB0CFF3E031D752A013083162A
:1014FA000313A802031D822A832A552A831603137B
:10150A0029080319892A8A2A8F2AAA09AB09AA0A49
:10151A000319AB0A2B0883120313EC008316031377
:10152A002A0883120313EB000800042B8312031307
:10153A009F121F129F111F11352B831203139F1223
:10154A001F129F111F15352B831203139F121F128F
:10155A009F151F11352B831203139F121F129F15FC
:10156A001F15352B831203139F121F169F111F116C
:10157A00352B831203139F121F169F111F15352B2C
:10158A00831203139F121F169F151F11352B8312E7
:10159A0003139F121F169F151F15352B8312031352
:1015AA009F161F129F111F11352B831203139F16AB
:1015BA001F129F111F15352B831203139F161F121B
:1015CA009F151F11352B831203139F161F129F1588
:1015DA001F15352B831203139F161F169F111F11F8
:1015EA00352B831203139F161F169F111F15352BB8
:1015FA00831203139F121F129F111F11352B71089B
:10160A00003A0319092BFD2A7008003A03199B2A8C
:10161A00013A0319A22A033A0319A92A013A03191A
:10162A00B02A073A0319B72A013A0319BE2A033A1C
:10163A000319C52A013A0319CC2A0F3A0319D32AE6
:10164A00013A0319DA2A033A0319E12A013A03197A
:10165A00E82A073A0319EF2A013A0319F62AFD2A5A
:10166A00080083120313A101F31F3C2B3D2B4A2BC5
:10167A00F009F109F209F309F00A0319F10A031949
:10168A00F20A0319F30AA101A10AF71F4D2B4E2BE7
:10169A005D2BF409F509F609F709F40A0319F50AA5
:1016AA000319F60A0319F70A0130F8007808A106A7
:1016BA000030A5000030A4000030A3000030A200D2
:1016CA00730872047104700403196C2B6D2BBA2B06
:1016DA00A001A00A7D2B0130F8000310F00DF10DD6
:1016EA00F20DF30DF80B722B0130F8007808A00701
:1016FA00F31F802B812B702B0130F8000310A20DF1
:10170A00A30DA40DA50DF80B832B73087702031DF7
:10171A00982B72087602031D982B71087502031D17
:10172A00982B70087402031C9B2B9C2BAB2B700804
:10173A00F4027108031C710FF5027208031C720F80
:10174A00F6027308031C730FF70222140130031008
:10175A00F30CF20CF10CF00CFF3E031DAC2B013024
:10176A00A002031DB92BBA2B812B21080319BE2B0A
:10177A00BF2BCA2BA209A309A409A509A20A031906
:10178A00A30A0319A40A0319A50A2508F3002408C1
:10179A00F2002308F1002208F0000800F800780897
:1017AA000319D82BD92BED2BF31FDC2BDD2BED2BBB
:1017BA007009FA007109FB007209FC007309FD0047
:1017CA00FA0A0319FB0A0319FC0A0319FD0AF52B85
:1017DA007308FD007208FC007108FB007008FA002B
:1017EA007308720471047004031DFC2BFD2B062C74
:1017FA000030F3000030F2000030F1000030F00059
:10180A008C2C9630F4007408F900182C0130F4007E
:10181A007408F90701300310FD0CFC0CFB0CFA0CE0
:10182A00FF3E031D102CFE307D05031D1D2C1E2CB2
:10183A000B2C3A2C0130F4007408F9070130FA072E
:10184A00003003180130FB07003003180130FC0791
:10185A00003003180130FD0701300310FD0CFC0CA9
:10186A00FB0CFA0CFF3E031D322CFF307D05031DD5
:10187A003F2C402C1F2C4C2C0130F9020130F40073
:10188A000310FA0DFB0DFC0DFD0DF40B452CFC1B92
:10189A004F2C502C562C023079020318552C562CFA
:1018AA00412C7918592C5A2C622CFF30FA05FF303A
:1018BA00FB057F30FC05FF30FD050310F90C7908A4
:1018CA00F400F501F601F70118300310F40DF50DD7
:1018DA00F60DF70DFF3E031D6A2C7408FA0475080D
:1018EA00FB047608FC047708FD04780803197E2CAB
:1018FA007F2C842CF31F822C832C842CFD177D08CB
:10190A00F3007C08F2007B08F1007A08F000080076
:10191A0083160313B700643083120313E700003001
:10192A00E8008316031337080A128A1538210A12A7
:10193A008A1583160313AC00AD012C088312031316
:10194A00E500831603132D0883120313E6000A1217
:10195A008A156A200A128A158312031365088316E8
:10196A000313B30083120313660883160313B40028
:10197A000030B41BFF30B500B6000A3083120313DF
:10198A00EB000030EC00831603133708AC00AD01FE
:10199A00AE01AF012F08F3002E08F2002D08F10066
:1019AA002C08F00001300A128A15D3230A128A156C
:1019BA00730883120313A7007208A6007108A50012
:1019CA007008A4003F30A300FA30A200F830A1004A
:1019DA003830A0000A128A1193240A128A15831237
:1019EA000313230883160313A70083120313220881
:1019FA0083160313A6008312031321088316031305
:101A0A00A50083120313200883160313A4003608C3
:101A1A00F3003508F2003408F1003308F000013011
:101A2A000A128A15D3230A128A1573088316031316
:101A3A00A3007208A2007108A1007008A0000A168B
:101A4A008A11F7260A128A158316031323088312AA
:101A5A000313D70083160313220883120313D60035
:101A6A0083160313210883120313D5008316031365
:101A7A00200883120313D4000A128A1593210A122A
:101A8A008A1583120313540883160313B000B10195
:101A9A00300883120313ED008316031331088312EF
:101AAA000313EE000A128A150F220A128A158312EC
:101ABA0003136B0883160313B2003208B700370802
:101ACA00080083160313C600643083120313E70069
:101ADA000030E8008316031346080A128A153821D3
:101AEA000A128A1583160313B800B901380883123B
:101AFA000313E50083160313390883120313E60060
:101B0A000A128A156A200A128A15831203136508B3
:101B1A0083160313BC008312031366088316031388
:101B2A00BD000030BD1BFF30BE00BF0046080A12D0
:101B3A008A158D240A128A1583160313B800B9016F
:101B4A003808C4003908C5004608B800B901BA0106
:101B5A00BB013B08F3003A08F2003908F1003808E3
:101B6A00F00001300A128A15D3230A128A15730863
:101B7A0083120313A7007208A6007108A500700853
:101B8A00A4003F30A300FA30A200F830A100383098
:101B9A00A0000A128A1193240A128A1583120313C7
:101BAA00230883160313A70083120313220883163C
:101BBA000313A60083120313210883160313A50037
:101BCA0083120313200883160313A4003F08F300AB
:101BDA003E08F2003D08F1003C08F00001300A120C
:101BEA008A15D3230A128A15730883160313A300CE
:101BFA007208A2007108A1007008A0000A168A11D2
:101C0A00F7260A128A15831603132308C30022082B
:101C1A00C2002108C1002008C0004308A7004208EA
:101C2A00A6004108A5004008A4000A308312031345
:101C3A00E7000030E80083160313450883120313F4
:101C4A00E60083160313440883120313E5000A12FD
:101C5A008A156A200A128A15831203136508F0008E
:101C6A006608F1000030F11BFF30F200F30001308A
:101C7A000A128A15D3230A128A15730883160313C4
:101C8A00A3007208A2007108A1007008A0000A1639
:101C9A008A11F7260A128A15831603132308831258
:101CAA000313D70083160313220883120313D600E3
:101CBA0083160313210883120313D5008316031313
:101CCA00200883120313D4000A128A1593210A12D8
:101CDA008A1583120313540883160313B8003808AD
:101CEA00C600460808000A168A11B3270A128A157E
:101CFA00831603134E08C7004708CF008312031345
:101D0A009F18882E892E972E0A168A1176260A126D
:101D1A008A15700883160313C7004708CE0083127A
:101D2A0003139F14831603134E080A128A153821C7
:101D3A000A128A1583160313C7004708CA004E08F9
:101D4A000A128A158D240A128A1583160313C700EC
:101D5A004708CB004E080A128A1566250A128A1508
:101D6A0083160313C7004708CC003030C700470862
:101D7A00CA073030C7004708CB073030C7004708CA
:101D8A00CC070A168A118C260A128A15831603139F
:101D9A00C7004708CD002B304D06031DD52ED62E81
:101DAA00DD2E0130C7004708831203138507E72E8B
:101DBA002D304D06031DE22EE32EE72E013083124D
:101DCA000313850283160313CD014F084E06031928
:101DDA00EF2EF02E4A2F023083160313C900043067
:101DEA00C800B930C700C70BF82EC80BF82EC90BAC
:101DFA00F82EFF2E01300A168A11D8260A128A15E1
:101E0A0019300A168A11D8260A128A1530300A168B
:101E1A008A11D8260A128A15831603134A080A1643
:101E2A008A1180260A128A154F300A168A11D82674
:101E3A000A128A15831603134B080A168A1180267A
:101E4A000A128A15831603134C080A168A11802669
:101E5A000A128A1551300A168A11D8260A128A15C8
:101E6A0041300A168A11D8260A128A1502308316B8
:101E7A000313C9000430C800B930C700C70B432F89
:101E8A00C80B432FC90B432F4A2F0A128A155D200C
:101E9A000A128A15F401F40A01300A168A11BC26BC
:101EAA000A128A154B300A168A111B270A128A153A
:101EBA00F401F40A02300A168A11BC260A128A159B
:101ECA00831603134A080A168A11A2260A128A15C9
:101EDA004F300A168A111B270A128A158316031312
:101EEA004B080A168A11A2260A128A1583160313A8
:101EFA004C080A168A11A2260A128A1551300A16A5
:101F0A008A111B270A128A158312031305080A125B
:101F1A008A1538210A128A1583160313C70047083F
:101F2A00CA008312031305080A128A158D240A129D
:101F3A008A1583160313C7004708CB0083120313BD
:101F4A0005080A128A1566250A128A1583160313CA
:101F5A00C7004708CC003030C7004708CA073030EE
:101F6A00C7004708CB073030C7004708CC070A30FC
:101F7A00C7004708F40001300A168A11BC260A1263
:101F8A008A1546300A168A111B270A128A150A3040
:101F9A0083160313C7004708F40002300A168A1191
:101FAA00BC260A128A15831603134A080A168A11CE
:101FBA00A2260A128A154F300A168A111B270A12FC
:101FCA008A15831603134B080A168A11A2260A12C7
:101FDA008A15831603134C080A168A11A2260A12B6
:101FEA008A1551300A168A111B270A128A157D2E64
:061FFA000A128A11002802
:102CE000F000700883120313880008008312031396
:102CF0001E08F200F3017208F0007308F1000800EA
:102D0000F00083160313981C862E872E812E7008E0
:102D10008312031399000800831203138C1E912E53
:102D2000922E942E1A08A12E0230F2000430F100E7
:102D3000BA30F000F00B9A2EF10B9A2EF20B9A2E6D
:102D400000000800F30083120313071473080A1627
:102D50008A1170260A168A118312031387140B3006
:102D6000F2006230F100F10BB32EF20BB32E000033
:102D70008312031387100800F5007503031DC12E8D
:102D8000C22ECA2E7408803E0A128A1104200A1626
:102D90008A11D72E02307506031DCF2ED02ED72EC6
:102DA0007408C03E0A128A1104200A168A1108000B
:102DB000F200EA2E720884000A128A1500200A1610
:102DC0008A110A168A1180260A168A110130F1002A
:102DD0007108F207720884000A128A1500200A1688
:102DE0008A11003A031DF52EF62EDA2E08008030E7
:102DF00083160313A3062708F3002608F20025080C
:102E0000F1002408F0002308F7002208F60021084A
:102E1000F5002008F4000A128A11FB210A168A1113
:102E2000730883160313A3007208A2007108A1009F
:102E30007008A0000800F600F401F501322F7408B4
:102E4000760784000A128A1500200A168A110A16CB
:102E50008A11A2260A168A110130F4070318F50A0E
:102E60000030F5077408760784000A128A150020DE
:102E70000A168A11003A031D3E2F3F2F1F2F08000C
:102E8000F800F401F5017008F200F3017208F60091
:102E90007308F700781C4D2F4E2F542F7608F40737
:102EA0000318F50A7708F50701300310F60DF70D42
:102EB000FF3E031D552F0310F80C7808031D612FEA
:102EC000622F4A2F7508F1007408F0000800F20024
:102ED000831603130F14902F0F178F160F16B22F90
:102EE0000F178F160F12B22F0F178F120F16B22F48
:102EF0000F178F120F12B22F0F138F160F16B22F3C
:102F00000F138F160F12B22F0F138F120F16B22F2F
:102F10000F138F120F12B22F0F178F160F12B22F1F
:102F20007208F000F1017108003A0319982F8C2FF4
:102F30007008013A03196C2F033A0319702F013AF4
:102F40000319742F073A0319782F013A03197C2FBC
:102F5000033A0319802F013A0319842F0F3A0319FA
:102F6000882F8C2F080020308316031788008901D2
:102F700083160313850188018030870083120313B1
:102F800085018801870101300A168A1167270A1610
:102F90008A110530F0000030F1000A128A159A22D9
:102FA0000A168A11831603131F129F12831203132A
:102FB0001F139F17831603139F13831203131F14EA
:102FC0002130FA00FA0BE22F831203139F148316A9
:102FD0000313CE01CD01CC01CB01CA01CF010A12EE
:102FE0008A1591200A168A11803083120313A600D5
:102FF0002530A7000A128A15DF200A168A11080058
:08400000FF3FFF3FFF3FFF3FC0
:04400E00D420FF3F7C
:00000001FF
