:060000000A128A11F62F1E
:10000C00F30083120313081173080A128A15802156
:10001C000A128A118312031388150B30F200623016
:10002C00F100F10B1728F20B1728000083120313B1
:10003C00881108008312031347088039C800480848
:10004C00D1004708C8004807C9004908D800C61F96
:10005C0030283128322858145808031936283728E4
:10006C004728580A031D3B283C2844280030C70069
:10007C000030C6000030C5000030C400C617C701F0
:10008C004F280030C7000030C6000030C5000030DB
:10009C00C40043088039C8004808D1064308C8008A
:1000AC004807C9004908D900C21F5D285E285F288F
:1000BC00591459080319632864287428590A031D14
:1000CC006828692871280030C3000030C200003055
:1000DC00C1000030C000C217C3017C280030C3002F
:1000EC000030C2000030C1000030C00043084204A0
:1000FC0041044004031D832884289D280030C70038
:10010C000030C6000030C5000030C4008030C6048A
:10011C007F30C7045108C8004808C7044708C3000B
:10012C004608C2004508C1004408C000FC29580814
:10013C00031DA128A228AB280030C3000030C20048
:10014C000030C1000030C000FC295808C800C901AB
:10015C004908CB0059084802CA00031CCB034A08C3
:10016C007F3ED2004B080318013E003ED3004708E7
:10017C00D0004608CF004508CE004408CD00003022
:10018C00C7000030C6000030C5000030C40000308D
:10019C00D7000030D6000030D5000030D400D90193
:1001AC00212959080319DB28DC28FC280130C80058
:1001BC000310CD0DCE0DCF0DD00DC80BDE280130A8
:1001CC00C8000310C40DC50DC60DC70DC80BE7281C
:1001DC00D71FF128F228F32844140130C80003106B
:1001EC00D40DD50DD60DD70DC80BF52843085002EC
:1001FC00031D0A2942084F02031D0A2941084E0219
:10020C00031D0A2940084D02031C0D290E291D2926
:10021C0057174008CD024108031C410FCE0242087B
:10022C00031C420FCF024308031C430FD0020130C2
:10023C00C8004808D9071A305902031C2629272957
:10024C00D72850084F044E044D0403192E292F298A
:10025C004E2954144E290130C8000310C40DC50D8D
:10026C00C60DC70DC80B3329D71F3D293E293F2981
:10027C0044140130C8000310D40DD50DD60DD70D84
:10028C00C80B4129FF30D2070318D30AFF30D3071C
:10029C00C61F512952293129D901D71F562957294F
:1002AC007329FF305405C800FF305505C900FF30D5
:1002BC005605CA007F305705CB004B084A04490449
:1002CC00480403196A296B296E29D901D90A7329A3
:1002DC00441C7129722973296B2959080319772930
:1002EC007829A9290130C407003003180130C5074B
:1002FC00003003180130C607003003180130C7075F
:10030C00471C89298A29A9294408C8004508C9001D
:10031C004608CA004708CB000130CC004B0DCB0C73
:10032C00CA0CC90CC80CCC0B94294B08C7004A0842
:10033C00C6004908C5004808C4000130D20703189C
:10034C00D30A0030D3075308803AFF0080307F0275
:10035C00031DB229FF305202031CB529B629C4294A
:10036C00FF3083120313D2000030D3000030C700DB
:10037C000030C6000030C5000030C40083120313E7
:10038C005308803AFF0080307F02031DCF290130D3
:10039C0052020318D229D329E02983120313D20164
:1003AC00D3010030C7000030C6000030C50000305B
:1003BC00C400D101831203135208C8004808D800A6
:1003CC00581CE929EA29EC29C617F0297F30C80006
:1003DC004808C6055808C8000310480CC90049084D
:1003EC00C7005108C8004808C704942808007308BF
:1003FC00803983120313A0002008F8007308A000B2
:10040C002007A1002108FA00F21F0D2A0E2A0F2A3C
:10041C007A147A080319132A142A242A7A0A031D37
:10042C00182A192A212A0030F3000030F20000307B
:10043C00F1000030F000F217F3012C2A0030F30029
:10044C000030F2000030F1000030F0007708803905
:10045C00A0002008F900790878060319362A372AF3
:10046C00382A78177708A0002007A1002108F90086
:10047C00F61F412A422A432A791479080319472A7C
:10048C00482A582A790A031D4C2A4D2A552A00302D
:10049C00F7000030F6000030F5000030F400F617DD
:1004AC00F701602A0030F7000030F6000030F5004C
:1004BC000030F4007A0879020318652A662AAA2A01
:1004CC00781F692A6A2A6E2A8030A0002008F80654
:1004DC007A08A0002008FB007908A0002008FA0088
:1004EC007B08A0002008F9007008A0002008FB0081
:1004FC007408A0002008F0007B08A0002008F4007D
:10050C007108A0002008FB007508A0002008F1006D
:10051C007B08A0002008F5007208A0002008FB0052
:10052C007608A0002008F2007B08A0002008F60046
:10053C007308A0002008FB007708A0002008F30037
:10054C007B08A0002008F700FB017908A000A1019E
:10055C002108A3007A082002A200031CA30323088D
:10056C00803AFF0080307F02031DBE2A1A3022021F
:10057C00031CC12AC22A032B730872047104700471
:10058C00031DC92ACB2A0130CC2A00308312031355
:10059C00A0002008FB000030F3000030F200003017
:1005AC00F1000030F0007908A0002008FA00092BB7
:1005BC007B1CE12AE22AED2A7B0883120313A0009C
:1005CC000310200C0138A1002108FB00EF2A0310B6
:1005DC00FB0C701CF22AF32AF42AFB17013083124D
:1005EC000313A000730DF30CF20CF10CF00CA00B28
:1005FC00F82A0130A0002008FA0779087A02031CB7
:10060C00082B092BDE2A781B0C2B0D2B5C2B7A0864
:10061C00031D112B122B1B2B0030F3000030F200AA
:10062C000030F1000030F000942C7408F0077508CD
:10063C0003110318013E0319242BF107760803114B
:10064C000318013E03192B2BF2077708031103182B
:10065C00013E0319322BF307731C352B362B142C4C
:10066C007B1C392B3A2B452B7B0883120313A000E0
:10067C000310200C0138A1002108FB00472B0310AC
:10068C00FB0C701C4A2B4B2B4C2BFB170130831291
:10069C000313A000730DF30CF20CF10CF00CA00B77
:1006AC00502B0130A0002008FA07142C7308803A54
:1006BC00FF007708803A7F02031D6E2B76087202CA
:1006CC00031D6E2B75087102031D6E2B74087002CE
:1006DC000318712B722BCC2BFF3083120313A00049
:1006EC00FF30A100FF30A200FF30A3007408A4006B
:1006FC007508A5007608A6007708A7007008A40264
:10070C007108031C710F8B2B8C2BA5027208031C18
:10071C00720F912B922BA6027308031C730F972B4D
:10072C00982BA7022408A00725080318250F9F2B38
:10073C00A02BA10726080318260FA52BA62BA20772
:10074C0027080318270AA3072308F3002208F2003E
:10075C002108F1002008F0008030A0002008F806E5
:10076C00FB09FB0A7B08031DBC2BBD2BDA2B0130CC
:10077C00F007003003180130F10700300318013086
:10078C00F207003003180130F307DA2B7408F0027B
:10079C007508031C750FF1027608031C760FF20224
:1007AC007708031C770FF30273087204710470044A
:1007BC00031DE12BE22B102C7B08031DE62BE72BF2
:1007CC00102C0030F3000030F2000030F10000304B
:1007DC00F000942C013083120313A0000310F00DD1
:1007EC00F10DF20DF30DA00BF42BFB1FFE2BFF2BC9
:1007FC00002C70147B1C032C042C072C0314FB0DF5
:10080C00092C0310FB0D7A0803190D2C0E2C102C3F
:10081C000130FA02F21F132C142CF02BF901FB1FE0
:10082C00182C192C272C7B087F3903191E2C1F2CF4
:10083C00222CF901F90A272C701C252C262C272C8C
:10084C001F2C790803192B2C2C2C622C0130F0074F
:10085C00003003180130F107003003180130F207A3
:10086C00003003180130F307731C3D2C3E2C622C16
:10087C00700883120313A0007108A1007208A20073
:10088C007308A3000130A400230DA30CA20CA10C2F
:10089C00A00CA40B4A2C2308F3002208F200210818
:1008AC00F1002008F0007A0A03195D2C5E2C622CF2
:1008BC000130A0002008FA077A0A0319662C672C6D
:1008CC006C2C7A08031D6B2C6C2C7A2C0030F300EA
:1008DC000030F2000030F1000030F0007A08031D07
:1008EC00782C792C7A2CF8017A1C7D2C7E2C802C7F
:1008FC00F217862C7F3083120313A0002008F20518
:10090C007A0883120313A0000310200CA100210805
:10091C00F300F81F922C932C942CF31708008312DD
:10092C00031329088039AE002E08B3002908AE0045
:10093C002E07AF002F08B900A81FA52CA62CA72C9A
:10094C00391439080319AB2CAC2CBB2C390A031DF8
:10095C00B02CB12CB92C0030A9000030A80000300C
:10096C00A7000030A600A817C32C0030A900003047
:10097C00A8000030A7000030A6002D088039AE007A
:10098C002E08B3062D08AE002E07AF002F08B800B6
:10099C00AC1FD12CD22CD32C381438080319D72CDB
:1009AC00D82CE72C380A031DDC2CDD2CE52C003070
:1009BC00AD000030AC000030AB000030AA00AC172A
:1009CC00EF2C0030AD000030AC000030AB0000303C
:1009DC00AA0038080319F32CF42CF92C3908031D40
:1009EC00F82CF92C022D0030A9000030A8000030A2
:1009FC00A7000030A600F52F2608AE002E08F00048
:100A0C002C080A128A1510220A128A1171088312F4
:100A1C000313BF007008BE003E08AE00AF01B0016A
:100A2C00B1013108B7003008B6002F08B5002E0808
:100A3C00B4003F08AE00AF01B001B1013108BD00F8
:100A4C003008BC002F08BB002E08BA002708AE00E7
:100A5C002E08F0002B080A128A1510220A128A118D
:100A6C00710883120313BF007008BE003E08AE006D
:100A7C00AF01B001B1012E08B4072F080311031800
:100A8C00013E03194A2DB507300803110318013E26
:100A9C000319512DB607310803110318013E031930
:100AAC00582DB7073F08AE00AF01B001B1012E08B9
:100ABC00BA072F0803110318013E0319662DBB0753
:100ACC00300803110318013E03196D2DBC073108C2
:100ADC0003110318013E0319742DBD072808AE003D
:100AEC002E08F0002A080A128A1510220A128A11FE
:100AFC00710883120313BF007008BE003E08AE00DD
:100B0C00AF01B001B1012E08B4072F08031103186F
:100B1C00013E0319922DB507300803110318013E4D
:100B2C000319992DB607310803110318013E031957
:100B3C00A02DB7073F08AE00AF01B001B1012E08E0
:100B4C00BA072F0803110318013E0319AE2DBB077A
:100B5C00300803110318013E0319B52DBC073108E9
:100B6C0003110318013E0319BC2DBD070830AE005C
:100B7C000310B40DB50DB60DB70DAE0BBE2D270879
:100B8C00AE002E08F0002A080A128A1510220A124A
:100B9C008A11710883120313BF007008BE003E084F
:100BAC00AE003F08AF00B001B1012E08B4072F080A
:100BBC0003110318013E0319E42DB5073008031186
:100BCC000318013E0319EB2DB60731080311031866
:100BDC00013E0319F22DB7072608AE002E08F000CF
:100BEC002B080A128A1510220A128A117108831214
:100BFC000313BF007008BE003E08AE003F08AF00F4
:100C0C00B001B1012E08B4072F0803110318013EDF
:100C1C000319112EB507300803110318013E0319EF
:100C2C00182EB607310803110318013E03191F2EA5
:100C3C00B7070830AE000310B40DB50DB60DB70DE7
:100C4C00AE0B212E2608AE002E08F0002A080A1240
:100C5C008A1510220A128A11710883120313BF001D
:100C6C007008BE003E08AE003F08AF00B001B101F5
:100C7C002E08B4072F0803110318013E0319472E41
:100C8C00B507300803110318013E03194E2EB607A1
:100C9C00310803110318013E0319552EB707270815
:100CAC00AE002E08F0002C080A128A1510220A1227
:100CBC008A11710883120313BF007008BE003E082E
:100CCC00AE003F08AF00B001B1012E08BA072F08E3
:100CDC0003110318013E0319742EBB0730080311CE
:100CEC000318013E03197B2EBC07310803110318AE
:100CFC00013E0319822EBD072808AE002E08F00015
:100D0C002B080A128A1510220A128A1171088312F2
:100D1C000313BF007008BE003E08AE003F08AF00D2
:100D2C00B001B1012E08BA072F0803110318013EB8
:100D3C000319A12EBB07300803110318013E031938
:100D4C00A82EBC07310803110318013E0319AF2E5E
:100D5C00BD072808AE002E08F0002C080A128A15D0
:100D6C0010220A128A11710883120313BF00700833
:100D7C00BE003E08AE003F08AF00B001B101083024
:100D8C000310AE0DAF0DB00DB10DFF3E031DC62E01
:100D9C002E08BA072F0803110318013E0319D72E8A
:100DAC00BB07300803110318013E0319DE2EBC07E4
:100DBC00310803110318013E0319E52EBD07340851
:100DCC00AE003508AF003608B0003708B100183057
:100DDC000310B10CB00CAF0CAE0CFF3E031DEE2E8D
:100DEC002E08BA072F0803110318013E0319FF2E12
:100DFC00BB07300803110318013E0319062FBC076B
:100E0C00310803110318013E03190D2FBD070830DB
:100E1C00AE000310B40DB50DB60DB70DAE0B0F2F04
:100E2C0039083807AE00AF01AF0D2E08823EBE0068
:100E3C002F080318013EFF3EBF00412F0130AE00CA
:100E4C000310BA0DBB0DBC0DBD0DAE0B262FB71F7D
:100E5C00302F312F322F3A140130AE000310B40D65
:100E6C00B50DB60DB70DAE0B342FFF30BE07031802
:100E7C00BF0AFF30BF07BC1F442F452F242FB801DA
:100E8C00B71F492F4A2F662FFF303405AE00FF30B5
:100E9C003505AF00FF303605B0007F303705B100A7
:100EAC00310830042F042E0403195D2F5E2F612F9F
:100EBC00B801B80A662F3A1C642F652F662F5E2F77
:100ECC00380803196A2F6B2F9C2F0130BA0700309A
:100EDC0003180130BB07003003180130BC07003089
:100EEC0003180130BD073D1C7C2F7D2F9C2F3A0829
:100EFC00AE003B08AF003C08B0003D08B10001302B
:100F0C00B200310DB10CB00CAF0CAE0CB20B872F84
:100F1C003108BD003008BC002F08BB002E08BA00F9
:100F2C000130BE070318BF0A0030BF073F08803AE4
:100F3C00FF0080307F02031DA52FFF303E02031CF3
:100F4C00A82FA92FB42F7F3083120313BD0080303C
:100F5C00BC000030BB000030BA00E92F8312031331
:100F6C003F08803AFF0080307F02031DBF2F013005
:100F7C003E020318C22FC32FCF2F0030831203134E
:100F8C00BD000030BC000030BB000030BA00B30123
:100F9C00E92F831203133E08AE002E08B900FF3070
:100FAC00BA05FF30BB057F30BC050030BD05391CD0
:100FBC00E02FE12FE22FBC173908AE0003102E0CE6
:100FCC00AF002F08BD003308AE002E08BD043D084D
:100FDC00A9003C08A8003B08A7003A08A600080096
:100FEC0083160313AD01AE01AF01B00183010A12E8
:100FFC008A15DD2D08308A000408840A8207003423
:10100C0050344F34543445344E34433449344F34D3
:10101C004D344534543452344F3400342E3400346F
:1012BC0000300A128A1580210A128A1501300A128E
:1012CC008A1580210A128A150800831203139F14B1
:1012DC007B299F18722973297B291E08F200F301C0
:1012EC007208F0007308F1007F299F187E297F296E
:1012FC006F290800F000701C842985298929831224
:10130C00031308168C29831203130812F01C8F295F
:10131C0090299229881693298812701D962997294D
:10132C00992908179A290813F01D9D299E29A0298F
:10133C008817A12988130800803083120313C30671
:10134C004708F3004608F2004508F1004408F00095
:10135C004308F7004208F6004108F5004008F40085
:10136C000A128A11FD210A128A15730883120313BB
:10137C00C3007208C2007108C1007008C0000800E8
:10138C00F700F501F601DD297508770784000A12CC
:10139C008A1500200A128A150A128A156C220A1262
:1013AC008A150130F5070318F60A0030F6077508A0
:1013BC00770784000A128A1500200A128A15003A4F
:1013CC00031DE929EA29CA290800F401F501701C5A
:1013DC00F029F129F7297208F4070318F50A7308A4
:1013EC00F50701300310F20DF30DFF3E031DF82934
:1013FC0001300310F10CF00CFF3E031DFF297008A7
:10140C007104031D0A2A0B2AED297508F1007408D2
:10141C00F0000800F800F401F5017008F200F30187
:10142C007208F6007308F700781C1D2A1E2A242A5D
:10143C007608F4070318F50A7708F507013003104E
:10144C00F60DF70DFF3E031D252A0310F80C780846
:10145C00031D312A322A1A2A7508F1007408F0008B
:10146C0008002030831603178800890183160313A4
:10147C00880183120313880101300A128A15A522F0
:10148C000A128A150530F0000030F1000A128A1594
:10149C0085240A128A15831603131F129F128312B6
:1014AC0003131F139F17831603139F138312031326
:1014BC001F142130F600F60B612A831203139F14BC
:1014CC000A128A1543230A128A150800F4007408BC
:1014DC000F39F1007108F2007408F039F10071084D
:1014EC00F3008312031308157308F1000430031082
:1014FC00F10CFF3E031D7D2A71080A128A1580210A
:10150C000A128A158312031388151A30F100F10B95
:10151C008D2A000083120313881172080A128A158F
:10152C0080210A128A158312031388151A30F100D0
:10153C00F10B9E2A00008312031388110800F2009D
:10154C00831603130F14CE2A0F178F160F16F02ABB
:10155C000F178F160F12F02A0F178F120F16F02A73
:10156C000F178F120F12F02A0F138F160F16F02A67
:10157C000F138F160F12F02A0F138F120F16F02A5B
:10158C000F138F120F12F02A0F178F160F12F02A4B
:10159C007208F000F1017108003A0319D62ACA2A20
:1015AC007008013A0319AA2A033A0319AE2A013A20
:1015BC000319B22A073A0319B62A013A0319BA2AAF
:1015CC00033A0319BE2A013A0319C22A0F3A031926
:1015DC00C62ACA2A0800F7007703031DF62AF72A41
:1015EC001A2B74087F3EF5007508FA007A08F5008E
:1015FC0004300310F50CFF3E031DFF2A7508F6009E
:10160C007608F8007A080F39F5007508F9007808A3
:10161C000A128A1106200A128A1579080A128A11EE
:10162C0006200A128A15422B02307706031D1F2B47
:10163C00202B422B7408BF3EF5007508FA007A087F
:10164C00F50004300310F50CFF3E031D282B750824
:10165C00F6007608F8007A080F39F5007508F900DD
:10166C0078080A128A1106200A128A1579080A12B9
:10167C008A1106200A128A15080000300A128A15EF
:10168C0080210A128A153430F500F130F400F40B85
:10169C004D2BF50B4D2B522B03300A128A110620C1
:1016AC000A128A150D30F500FB30F400F40B5C2B9C
:1016BC00F50B5C2B612B03300A128A1106200A12DF
:1016CC008A151D30F5009130F400F40B6B2BF50BE3
:1016DC006B2B03300A128A1106200A128A1502306B
:1016EC000A128A1106200A128A1502300A128A116D
:1016FC0006200A128A1508300A128A1106200A12CC
:10170C008A1500300A128A1106200A128A150C302A
:10171C000A128A1106200A128A1500300A128A113E
:10172C0006200A128A1506300A128A1106200A129D
:10173C008A15080083120313EB01E61FA62BA72BB7
:10174C00AE2BE509E609E50A0319E60AEB01EB0AFB
:10175C00E81FB12BB22BBB2BE709E809E70A0319E9
:10176C00E80A0130E9006908EB06EC01ED016508B7
:10177C0066040319C22BC32BFA2BEA01EA0AD12BFC
:10178C0001300310E50DE60DFF3E031DC72B0130A4
:10179C00E9006908EA07E61FD42BD52BC62B0130CC
:1017AC000310EC0DED0DFF3E031DD62B66086802F1
:1017BC00031DE22B65086702031CE52BE62BED2BC2
:1017CC006508E7026608031CE803E8026C140130A4
:1017DC000310E60CE50CFF3E031DEE2B0130EA0274
:1017EC00031DF92BFA2BD52B6B080319FE2BFF2BA2
:1017FC00042CEC09ED09EC0A0319ED0A6D08E6005E
:10180C006C08E50008000310831203135C0D5D0DDA
:10181C00DE005E08E4006408031D152C162C1F2C3A
:10182C000030DD000030DC000030DB000030DA007E
:10183C00842C5A08DE005B08DF005C08E0005D08C1
:10184C00E1001F300310E10CE00CDF0CDE0CFF3E5E
:10185C00031D282C5E08E2006208E300DC17FF3051
:10186C00DA05FF30DB05FF30DC050030DD05963096
:10187C00E402E41F422C432C5D2C6408803A973E12
:10188C000318492C4A2C4B2C162C01300310DD0C60
:10189C00DC0CDB0CDA0CFF3E031D4C2C0130DE00A3
:1018AC005E08E407031D5B2C5C2C4B2C742C203045
:1018BC006402031C622C632C6F2C162C0130DE008E
:1018CC000310DA0DDB0DDC0DDD0DDE0B662C0130AB
:1018DC00E4026408031D732C742C642C6308031934
:1018EC00782C792C842CDA09DB09DC09DD09DA0A7D
:1018FC000319DB0A0319DC0A0319DD0A0800EF2CB3
:10190C00831203139F121F129F111F11202D83127C
:10191C0003139F121F129F111F15202D83120313E7
:10192C009F121F129F151F11202D831203139F123C
:10193C001F129F151F15202D831203139F121F16A4
:10194C009F111F11202D831203139F121F169F111D
:10195C001F15202D831203139F121F169F151F1185
:10196C00202D831203139F121F169F151F15202D58
:10197C00831203139F161F129F111F11202D831208
:10198C0003139F161F129F111F15202D8312031373
:10199C009F161F129F151F11202D831203139F16C4
:1019AC001F129F151F15202D831203139F161F1630
:1019BC009F111F11202D831203139F161F169F11A9
:1019CC001F15202D831203139F121F129F111F111D
:1019DC00202D7108003A0319F42CE82C7008003AF9
:1019EC000319862C013A03198D2C033A0319942CF4
:1019FC00013A03199B2C073A0319A22C013A03193B
:101A0C00A92C033A0319B02C013A0319B72C0F3A3D
:101A1C000319BE2C013A0319C52C033A0319CC2C1B
:101A2C00013A0319D32C073A0319DA2C013A03199A
:101A3C00E12CE82C080083120313A00020080319E2
:101A4C00282D292D3D2DF91F2C2D2D2D3D2D7609C1
:101A5C00A2007709A3007809A4007909A500A20ABD
:101A6C000319A30A0319A40A0319A50A452D790819
:101A7C00A5007808A4007708A3007608A2007908CE
:101A8C00780477047604031D4C2D4D2D562D003013
:101A9C00F9000030F8000030F7000030F600DC2DC3
:101AAC009630FA007A08A100682D0130FA007A0805
:101ABC00A10701300310A50CA40CA30CA20CFF3E33
:101ACC00031D602DFE302505031D6D2D6E2D5B2D28
:101ADC008A2D0130FA007A08A1070130A2070030E4
:101AEC0003180130A307003003180130A40700309D
:101AFC0003180130A50701300310A50CA40CA30C8E
:101B0C00A20CFF3E031D822DFF302505031D8F2DDA
:101B1C00902D6F2D9C2D0130A1020130FA00031085
:101B2C00A20DA30DA40DA50DFA0B952DA41B9F2D95
:101B3C00A02DA62D023021020318A52DA62D912D26
:101B4C002118A92DAA2DB22DFF30A205FF30A30517
:101B5C007F30A405FF30A5050310A10C2108FA0065
:101B6C00FB01FC01FD0118300310FA0DFB0DFC0DFF
:101B7C00FD0DFF3E031DBA2D7A08A2047B08A304B9
:101B8C007C08A4047D08A50420080319CE2DCF2DB4
:101B9C00D42DF91FD22DD32DD42DA5172508F9003E
:101BAC002408F8002308F7002208F60008000A129F
:101BBC008A1537220A128A150A128A156B210A1203
:101BCC008A15700883160313A0002008B000300893
:101BDC00A000A101A201A3012308F9002208F8002A
:101BEC002108F7002008F60001300A128A15212579
:101BFC000A128A15790883120313AD007808AC0019
:101C0C007708AB007608AA003F30A900FA30A8008C
:101C1C00F830A7003830A6000A128A1195240A124F
:101C2C008A15831203132908C7002808C600270841
:101C3C00C5002608C4004230C300C830C2000030C2
:101C4C00C1000030C0000A128A1120200A128A1525
:101C5C00831203134308DD004208DC004108DB005B
:101C6C004008DA000A128A1509240A128A1583120E
:101C7C0003135A0883160313A4002408AD000A307A
:101C8C0083120313E5000030E600831603133008BB
:101C9C00A000A101A201A3012308F9002208F80069
:101CAC002108F7002008F60001300A128A152125B8
:101CBC000A128A15790883120313AD007808AC0058
:101CCC007708AB007608AA003F30A900FA30A800CC
:101CDC00F830A7003830A6000A128A1195240A128F
:101CEC008A15831203132908C7002808C600270881
:101CFC00C5002608C4006430F2000030F3008316DF
:101D0C0003132D08A400A5012408F0002508F100F8
:101D1C000A128A15EB210A128A157008F60071084E
:101D2C00F7000030F71BFF30F800F90001300A1201
:101D3C008A1521250A128A15790883120313C30008
:101D4C007808C2007708C1007608C0000A128A150C
:101D5C00A2210A128A15831203134308DD004208DC
:101D6C00DC004108DB004008DA000A128A1509245D
:101D7C000A128A15831203135A0883160313A6003A
:101D8C00A701260883120313E70083160313270801
:101D9C0083120313E8000A128A15A0230A128A156B
:101DAC0083120313650883160313A8002808AE00DA
:101DBC003008A000A101A201A3012308F900220808
:101DCC00F8002108F7002008F60001300A128A15E5
:101DDC0021250A128A15790883120313AD0078089D
:101DEC00AC007708AB007608AA003F30A900FA30A7
:101DFC00A800F830A7003830A6000A128A119524E2
:101E0C000A128A15831203132908C7002808C60072
:101E1C002708C5002608C4006430F2000030F30027
:101E2C00831603132D08A400A5012408F00025082F
:101E3C00F1000A128A15EB210A128A157008F600B5
:101E4C007108F7000030F71BFF30F800F900013083
:101E5C000A128A1521250A128A157908831203138E
:101E6C00C3007808C2007708C1007608C0000A12C7
:101E7C008A15A2210A128A158312031343088316AA
:101E8C000313AC0083120313420883160313AB0035
:101E9C0083120313410883160313AA00831203133E
:101EAC00400883160313A9002C0883120313C700E0
:101EBC00831603132B0883120313C6008316031314
:101ECC002A0883120313C5008316031329088312EF
:101EDC000313C4000A30F2000030F300831603131E
:101EEC002E08A000A1012008F0002108F1000A1220
:101EFC008A15EB210A128A157008F6007108F70092
:101F0C000030F71BFF30F800F90001300A128A1577
:101F1C0021250A128A15790883120313C300780845
:101F2C00C2007708C1007608C0000A128A15A221E7
:101F3C000A128A15831203134308DD004208DC00E1
:101F4C004108DB004008DA000A128A1509240A123B
:101F5C008A15831203135A0883160313A20022084E
:101F6C00AF003030A0002008AD073030A0002008B2
:101F7C00AE073030A0002008AF070A128A155E2188
:101F8C000A128A15F401F40A01300A128A15F12298
:101F9C000A128A1501300A128A15C6210A128A15EC
:101FAC00F401F40A02300A128A15F1220A128A1577
:101FBC00831603132D080A128A156C220A128A152D
:101FCC000F300A128A15C6210A128A1583160313BA
:101FDC002E080A128A156C220A128A15831603130C
:101FEC002F080A128A156C220A128A15E22D0A127F
:041FFC008A1100281E
:08400000FF3FFF3FFF3FFF3FC0
:04400E00D420FF3F7C
:00000001FF
