:100000000A128A11FC2F00308A000408840A820731
:10001000003448344F344C34413420344D3455345A
:080020004E3444344F34003427
:100ADE00831203139F147F2D9F18762D772D7F2D54
:100AEE001E08F200F3017208F0007308F100832D66
:100AFE009F18822D832D732D08000A128A11BF258F
:100B0E000A128A110A128A116F250A128A117008A6
:100B1E0083120313850001300A128A119C250A12D2
:100B2E008A11892D0A128A110028F300B22D213064
:100B3E00F200F20BA02D730884000A128A11032012
:100B4E000A128A110A128A118E260A128A1101308D
:100B5E00F2007208F307730884000A128A11032048
:100B6E000A128A11003A031DBD2DBE2D9E2D0800BE
:100B7E00203083160317880089018316031385011D
:100B8E0087018801831203138501870188010230D2
:100B9E000A128A1142260A128A110530F00000301C
:100BAE00F1000A128A1160270A128A1183160313A2
:100BBE001F129F12831203131F139F178316031303
:100BCE009F13831203131F141030F400F40BED2D3A
:100BDE000000831203139F140A128A11DB260A12D5
:100BEE008A110800F100F030F00070088312031330
:100BFE008805F030F000700883160313880571081D
:100C0E00F00004300310F00CFF3E031D092E700897
:100C1E000F3983120313080488008710071003305E
:100C2E00F000F00B182E8312031307150330F0009B
:100C3E00F00B1F2E831203130711F030F000700813
:100C4E00880571080F39F000700888040330F00031
:100C5E00F00B2F2E8312031307150330F000F00B49
:100C6E00362E8312031307110F30F000700883160F
:100C7E00031388040800F200831603130F146B2E5F
:100C8E000F178F160F168D2E0F178F160F128D2E04
:100C9E000F178F120F168D2E0F178F120F128D2EFC
:100CAE000F138F160F168D2E0F138F160F128D2EEC
:100CBE000F138F120F168D2E0F138F120F128D2EE4
:100CCE000F178F160F128D2E7208F000F10171089A
:100CDE00003A0319732E672E7008013A0319472E36
:100CEE00033A03194B2E013A03194F2E073A0319F3
:100CFE00532E013A0319572E033A03195B2E013A6C
:100D0E0003195F2E0F3A0319632E672E0800F100A8
:100D1E002130F000F00B912EF030F00070088312AD
:100D2E0003138805F030F00070088316031388054E
:100D3E007108F00004300310F00CFF3E031DA22ECC
:100D4E0070080F39831203130804880087100714E4
:100D5E000330F000F00BB12E83120313071503308E
:100D6E00F000F00BB82E831203130711F030F000D1
:100D7E007008880571080F39F00070088804033078
:100D8E00F000F00BC82E8312031307150330F0008A
:100D9E00F00BCF2E8312031307110F30F0007008E3
:100DAE008316031388040800831203130808F0390E
:100DBE008800F030F20072088316031388050710BE
:100DCE0087100711831203130710871007111430B1
:100DDE00F3007930F200F20BF22EF30BF22EF72E17
:100DEE0030300A128A11F9250A128A110730F300DF
:100DFE007D30F200F20B012FF30B012F30300A126F
:100E0E008A11F9250A128A112130F200F20B0D2FE8
:100E1E0032300A128A11F9250A128A112130F20093
:100E2E00F20B172F2130F200F20B1B2F28300A1273
:100E3E008A11F9250A128A112130F200F20B252FA0
:100E4E0008300A128A11F9250A128A112130F2008D
:100E5E00F20B2F2F0F300A128A11F9250A128A115E
:100E6E002130F200F20B392F01300A128A11F925C6
:100E7E000A128A112130F200F20B432F04300A12AB
:100E8E008A11F9250A128A112130F200F20B4D2F28
:100E9E002130F200F20B512F06300A128A11F92579
:100EAE000A128A110C300A128A11F9250A128A11B5
:100EBE000800CA2F831203139F121F129F111F11B6
:100ECE00FB2F831203139F121F129F111F15FB2F4F
:100EDE00831203139F121F129F151F11FB2F8312D4
:100EEE0003139F121F129F151F15FB2F831203133F
:100EFE009F121F169F111F11FB2F831203139F1298
:100F0E001F169F111F15FB2F831203139F121F16FF
:100F1E009F151F11FB2F831203139F121F169F1570
:100F2E001F15FB2F831203139F161F129F111F11E4
:100F3E00FB2F831203139F161F129F111F15FB2FDA
:100F4E00831203139F161F129F151F11FB2F83125F
:100F5E0003139F161F129F151F15FB2F83120313CA
:100F6E009F161F169F111F11FB2F831203139F161F
:100F7E001F169F111F15FB2F831203139F121F1293
:100F8E009F111F11FB2F7108003A0319CF2FC32F8A
:100F9E007008003A0319612F013A0319682F033ABA
:100FAE0003196F2F013A0319762F073A03197D2F74
:100FBE00013A0319842F033A03198B2F013A0319AF
:100FCE00922F0F3A0319992F013A0319A02F033AC2
:100FDE000319A72F013A0319AE2F073A0319B52F9C
:100FEE00013A0319BC2FC32F080083010A128A117C
:020FFE00842D40
:08400000FF3FFF3FFF3FFF3FC0
:04400E00D420FF3F7C
:00000001FF
