:060000000A128A110C280F
:10000800FE00030EF1000A08F2000A128A114F29B5
:100018000A128A110F28F80183010A128A11792914
:10002800F5007F28831203139F121F129F111F11BF
:10003800B328831203139F121F129F111F15B32891
:10004800831203139F121F129F151F11B3288312C7
:1000580003139F121F129F151F15B3288312031332
:100068009F121F169F111F11B328831203139F128B
:100078001F169F111F15B328831203139F121F16F3
:100088009F151F11B328831203139F121F169F1564
:100098001F15B328831203139F161F129F111F11D8
:1000A800B328831203139F161F129F111F15B3281D
:1000B800831203139F161F129F151F11B328831253
:1000C80003139F161F129F151F15B32883120313BE
:1000D8009F161F169F111F11B328831203139F1613
:1000E8001F169F111F15B328831203139F121F1287
:1000F8009F111F11B3287508F300F4017408003A22
:100108000319872878287308003A03191628013A32
:1001180003191D28033A03192428013A03192B2827
:10012800073A03193228013A03193928033A0319FF
:100138004028013A031947280F3A03194E28013A73
:1001480003195528033A03195C28013A031963284F
:10015800073A03196A28013A03197128782883167F
:1001680003131F129F12831203131F139F17831663
:1001780003139F13831203131F142130F300F30B8F
:10018800C328831203139F140800F5008316031372
:100198000F14F2280F178F160F1614290F178F1622
:1001A8000F1214290F178F120F1614290F178F12F9
:1001B8000F1214290F138F160F1614290F138F16E9
:1001C8000F1214290F138F120F1614290F138F12E1
:1001D8000F1214290F178F160F1214297508F30020
:1001E800F4017408003A0319FA28EE287308013A52
:1001F8000319CE28033A0319D228013A0319D6283D
:10020800073A0319DA28013A0319DE28033A0319D1
:10021800E228013A0319E6280F3A0319EA28EE28DA
:10022800080001300A128A11C9200A128A112030E6
:10023800831603178800890105300A128A111420D1
:100248000A128A118B170B17831203138C1183164A
:1002580003138C158516F301F401F50124300A12F5
:100268008A1139210A128A110800F600831603132D
:100278008712761D4029412945297508940087155C
:100288004929730875049400871176087404831249
:10029800031394000800831203138C1D5429552955
:1002A8005E2978080A128A118A210A128A11831291
:1002B80003138C1172088A00710E8300FE0E7E0EE5
:1002C8000900831203139F148230F400DD30F30019
:1002D800F30B6C29F40B6C297129831203139F18F3
:1002E8007629772971291E0808000A128A11152112
:1002F8000A128A110A128A1165210A128A11F70054
:100308007708F8007E290A128A110C28F000700874
:08031800831203139300080097
:08400000FF3FFF3FFF3FFF3FC0
:04400E00D420FF3F7C
:00000001FF
