:060000000A128A110C280F
:10000800FE00030EF2000A08F3000A128A159F2860
:100018000A128A110F28F601F701F801F90183166F
:100028000313D701D801D901DA01DB01DC01DD01B5
:10003800DE01DF0183010A128A11832B8312031365
:1000480031088039B6003608BB003108B6003607DB
:10005800B7003708C100B01F3228332834284114AC
:1000680041080319382839284828410A031D3D2822
:100078003E2846280030B1000030B0000030AF0004
:100088000030AE00B01750280030B1000030B0008A
:100098000030AF000030AE0035088039B6003608B1
:1000A800BB063508B6003607B7003708BC00B41FD2
:1000B8005E285F2860283C143C08031964286528DA
:1000C80074283C0A031D69286A2872280030B50084
:1000D8000030B4000030B3000030B200B4177C2800
:1000E8000030B5000030B4000030B3000030B2007A
:1000F8003C0803198028812886284108031D852883
:1001080086288F280030B1000030B0000030AF00E2
:100118000030AE00822B2E08B6003608F4003408F2
:100128000A168A11CC240A128A117508831203133D
:10013800C7007408C6004608B600B701B801B9017F
:100148003908C0003808BF003708BE003608BD00AF
:100158004708B600B701B801B9013908C500380821
:10016800C4003708C3003608C2002F08B600360896
:10017800F40033080A168A11CC240A128A11750869
:1001880083120313C7007408C6004608B600B701F7
:10019800B801B9013608BD07370803110318013E35
:1001A8000319D728BE07380803110318013E03199D
:1001B800DE28BF07390803110318013E0319E52893
:1001C800C0074708B600B701B801B9013608C20729
:1001D800370803110318013E0319F328C307380829
:1001E80003110318013E0319FA28C407390803113B
:1001F8000318013E03190129C5073008B60036085F
:10020800F40032080A168A11CC240A128A117508D9
:1002180083120313C7007408C6004608B600B70166
:10022800B801B9013608BD07370803110318013EA4
:1002380003191F29BE07380803110318013E0319C3
:100248002629BF07390803110318013E03192D2970
:10025800C0074708B600B701B801B9013608C20798
:10026800370803110318013E03193B29C30738084F
:1002780003110318013E03194229C4073908031161
:100288000318013E03194929C5070830B6000310B1
:10029800BD0DBE0DBF0DC00DB60B4B292F08B60006
:1002A8003608F40032080A168A11CC240A128A1178
:1002B800750883120313C7007408C6004608B60001
:1002C8004708B700B801B9013608BD073708031158
:1002D8000318013E03197129BE07380803110318D2
:1002E800013E03197829BF07390803110318013E95
:1002F80003197F29C0072E08B6003608F400330812
:100308000A168A11CC240A128A117508831203135B
:10031800C7007408C6004608B6004708B700B80109
:10032800B9013608BD07370803110318013E031940
:100338009E29BE07380803110318013E0319A52991
:10034800BF07390803110318013E0319AC29C00778
:100358000830B6000310BD0DBE0DBF0DC00DB60BA5
:10036800AE292E08B6003608F40032080A168A119B
:10037800CC240A128A11750883120313C700740863
:10038800C6004608B6004708B700B801B9013608E4
:10039800BD07370803110318013E0319D429BE0706
:1003A800380803110318013E0319DB29BF07390870
:1003B80003110318013E0319E229C0072F08B600EC
:1003C8003608F40034080A168A11CC240A128A1155
:1003D800750883120313C7007408C6004608B600E0
:1003E8004708B700B801B9013608C2073708031132
:1003F8000318013E0319012AC3073808031103181B
:10040800013E0319082AC407390803110318013EDD
:1004180003190F2AC5073008B6003608F400330858
:100428000A168A11CC240A128A117508831203133A
:10043800C7007408C6004608B6004708B700B801E8
:10044800B9013608C207370803110318013E03191A
:100458002E2AC307380803110318013E0319352A49
:10046800C407390803110318013E03193C2AC507BC
:100478003008B6003608F40034080A168A11CC246D
:100488000A128A11750883120313C7007408C6007C
:100498004608B6004708B700B801B901083003108C
:1004A800B60DB70DB80DB90DFF3E031D532A36081A
:1004B800C207370803110318013E0319642AC3074A
:1004C800380803110318013E03196B2AC4073908B9
:1004D80003110318013E0319722AC5073D08B60027
:1004E8003E08B7003F08B8004008B90018300310AC
:1004F800B90CB80CB70CB60CFF3E031D7B2A3608A6
:10050800C207370803110318013E03198C2AC307D1
:10051800380803110318013E0319932AC407390840
:1005280003110318013E03199A2AC5070830B600BB
:100538000310BD0DBE0DBF0DC00DB60B9C2A4108A2
:100548003C07B600B701B70D3608823EC60037082B
:100558000318013EFF3EC700CE2A0130B600031043
:10056800C20DC30DC40DC50DB60BB32AC01FBD2ADD
:10057800BE2ABF2A42140130B6000310BD0DBE0DBD
:10058800BF0DC00DB60BC12AFF30C6070318C70A36
:10059800FF30C707C41FD12AD22AB12ABC01C01F05
:1005A800D62AD72AF32AFF303D05B600FF303E058C
:1005B800B700FF303F05B8007F304005B900390863
:1005C8003804370436040319EA2AEB2AEE2ABC0158
:1005D800BC0AF32A421CF12AF22AF32AEB2A3C0825
:1005E8000319F72AF82A292B0130C207003003180B
:1005F8000130C307003003180130C4070030031866
:100608000130C507451C092B0A2B292B4208B600C7
:100618004308B7004408B8004508B9000130BA00DB
:10062800390DB90CB80CB70CB60CBA0B142B390829
:10063800C5003808C4003708C3003608C2000130B6
:10064800C6070318C70A0030C7074708803AFF00E3
:1006580080307F02031D322BFF304602031C352BEE
:10066800362B412B7F3083120313C5008030C40022
:100678000030C3000030C200762B831203134708F2
:10068800803AFF0080307F02031D4C2B0130460268
:1006980003184F2B502B5C2B003083120313C5001B
:1006A8000030C4000030C3000030C200BB01762B0C
:1006B800831203134608B6003608C100FF30C2058E
:1006C800FF30C3057F30C4050030C505411C6D2BC4
:1006D8006E2B6F2BC4174108B6000310360CB700F9
:1006E8003708C5003B08B6003608C5044508B10000
:1006F8004408B0004308AF004208AE0008000A16DC
:100708008A11DF250A128A110A168A1179230A1218
:100718008A118130F4000030F5000A168A118B2303
:100728000A128A110030F400F5000A128A15062010
:100738000A128A11740883160313D5005508F900A4
:100748000A168A1182230A128A111A308316031391
:10075800D600F730D500D50BAF2BD60BAF2BB42B6B
:1007680077080319B82BB92B152D7703031DBD2B5B
:10077800BE2BF32B831203130618C32BC42BDC2BBD
:10078800831603135B080A168A1106240A128A11B3
:1007980083160313D5005508F6001A308316031381
:1007A800D600F730D500D50BD72BD60BD72BDC2BA3
:1007B80076080A168A11A1250A128A1183160313CC
:1007C800D5005508DB000830D500550883120313FF
:1007D800A50001300A168A11D2230A128A110230A2
:1007E8007706031DF82BF92B2C2C831203130618FC
:1007F800FE2BFF2B152C78080A168A1106240A12DC
:100808008A1183160313D5005508F6001A3083168B
:100818000313D600F730D500D50B102CD60B102CAF
:10082800152C76080A168A11A1250A128A11831630
:100838000313D5005508F8000B30D500550883126E
:100848000313A50001300A168A11D2230A128A114D
:1008580003307706031D312C322C672C83120313C7
:100868000618372C382C502C8316031359080A16EF
:100878008A1106240A128A1183160313D500550813
:10088800F6001A3083160313D600F730D500D50BBF
:100898004B2CD60B4B2C502C76080A168A11A12506
:1008A8000A128A1183160313D5005508D900093096
:1008B800D500550883120313A50002300A168A11C1
:1008C800D2230A128A1104307706031D6C2C6D2C72
:1008D800A22C831203130618722C732C8B2C8316EC
:1008E800031358080A168A1106240A128A11831655
:1008F8000313D5005508F6001A3083160313D600E3
:10090800F730D500D50B862CD60B862C8B2C760889
:100918000A168A11A1250A128A1183160313D50013
:100928005508D8000E30D500550883120313A500CA
:1009380002300A168A11D2230A128A110530770664
:10094800031DA72CA82C9E2DD03083120313A000C2
:100958000030A1000230A2000030A3008316031368
:100968005B08D500550883120313A4000A168A11E0
:10097800F5240A128A11D03083120313A000003024
:10098800A1000130A2000030A300780883160313E9
:10099800D500550883120313A4000A168A11F524FA
:1009A8000A128A11D03083120313A0000030A1006C
:1009B8000530A2000030A300831603135908D500A0
:1009C800550883120313A4000A168A11F5240A1283
:1009D8008A11D03083120313A0000030A100063022
:1009E800A2000030A300831603135808D500550849
:1009F80083120313A4000A168A11F5240A128A1115
:100A0800D03083120313A0000030A1000030A200F0
:100A1800A300A4010A168A11F5240A128A11F70103
:100A28009E2DD03083120313A4000030A50000309F
:100A3800A600A7000A168A1134270A128A118312FF
:100A48000313240883160313D5005508DC00D0309F
:100A580083120313A4000030A5000130A600003063
:100A6800A7000A168A1134270A128A11831203135F
:100A7800240883160313D5005508F800D0308312D4
:100A88000313A4000030A5000230A6000030A70020
:100A98000A168A1134270A128A11831203132408AA
:100AA80083160313D5005508DB00D03083120313D7
:100AB800A4000030A5000430A6000030A7000A16E4
:100AC8008A1134270A128A11831203132408831601
:100AD8000313D5005508DA00D03083120313A4009D
:100AE8000030A5000530A6000030A7000A168A11BC
:100AF80034270A128A118312031324088316031356
:100B0800D5005508D900D03083120313A400003053
:100B1800A5000630A6000030A7000A168A1134275F
:100B28000A128A1183120313240883160313D500AB
:100B38005508D80079080A128A150D210A128A1157
:100B480083160313D5005508DD0079080A128A15A3
:100B5800B4220A128A1183160313D5005508DE0041
:100B680079080A128A1172260A128A118316031347
:100B7800D5005508DF003030D5005508DD07303086
:100B8800D5005508DE073030D5005508DF070A16AE
:100B98008A11A1230A128A1183120313A2010130B8
:100BA8000A168A113E240A128A1101300A168A117D
:100BB800A3240A128A1183120313A20102300A160F
:100BC8008A113E240A128A11831603135D080A1635
:100BD8008A1122240A128A110B300A168A11A324B8
:100BE8000A128A11831603135E080A168A11222430
:100BF8000A128A11831603135F080A168A1122241F
:100C08000A128A11083083160313D5005508831277
:100C18000313A20001300A168A113E240A128A110F
:100C2800831603135B080A168A117E240A128A1196
:100C380003300A168A11A3240A128A1178080A16A0
:100C48008A117E240A128A1103300A168A11A324F3
:100C58000A128A11831603135C080A168A117E2465
:100C68000A128A11063083160313D5005508831219
:100C78000313A20002300A168A113E240A128A11AE
:100C8800831603135A080A168A117E240A128A1137
:100C98000D300A168A11A3240A128A118316031327
:100CA80059080A168A117E240A128A110D300A166A
:100CB8008A11A3240A128A1108300A168A11A32459
:100CC8000A128A118316031358080A168A117E24F9
:100CD8000A128A11882B0A128A110C288316031308
:100CE800D4006430A7000030A80054080A128A15FE
:100CF8000D210A128A1183160313C600C70146087C
:100D0800A5004708A6000A168A112E250A128A117C
:100D1800831603132508CA002608CB000030CB1B16
:100D2800FF30CC00CD0054080A128A15B4220A12EA
:100D38008A1183160313C600C7014608D200470864
:100D4800D3005408C600C701C801C9014908831265
:100D58000313A30083160313480883120313A20086
:100D680083160313470883120313A1008316031382
:100D7800460883120313A00001300A128A15F821CD
:100D88000A128A11831203132308B5002208B4003B
:100D98002108B3002008B2003F30B100FA30B0009B
:100DA800F830AF003830AE000A128A1122200A1239
:100DB8008A1183120313310883160313B0008312B8
:100DC8000313300883160313AF00831203132F088D
:100DD80083160313AE00831203132E08831603131E
:100DE800AD004D0883120313A300831603134C08A8
:100DF80083120313A200831603134B0883120313F1
:100E0800A100831603134A0883120313A0000130BC
:100E18000A128A15F8210A128A1183120313230869
:100E280083160313AC0083120313220883160313DB
:100E3800AB0083120313210883160313AA0083123D
:100E48000313200883160313A9000A168A112726FC
:100E58000A128A11831603132C08D1002B08D0001C
:100E68002A08CF002908CE005108B0005008AF006A
:100E78004F08AE004E08AD000A30A7000030A800A9
:100E88005308A6005208A5000A168A112E250A1230
:100E98008A1183160313250883120313A0008316EF
:100EA8000313260883120313A1000030A11BFF308F
:100EB800A200A30001300A128A15F8210A128A1129
:100EC80083120313230883160313AC00831203133E
:100ED800220883160313AB00831203132108831619
:100EE8000313AA0083120313200883160313A9000F
:100EF8000A168A1127260A128A11831603132C0848
:100F080083120313E500831603132B0883120313BC
:100F1800E400831603132A0883120313E3008316DD
:100F28000313290883120313E2000A128A157C218D
:100F38000A128A1183120313620883160313C60068
:100F48004608D4005408080000300A128A15002008
:100F58000A128A11831203130910413083120313F2
:100F6800A300ED30A200A20BB72FA30BB72FBC2F05
:100F780030300A168A11EB230A128A110D308312B7
:100F88000313A300FB30A200A20BC82FA30BC82F8A
:100F980030300A168A11EB230A128A11273083127D
:100FA8000313A300F430A200A20BD82FA30BD82F51
:100FB800000030300A168A11EB230A128A113830E1
:100FC8000A168A11EB230A128A110C300A168A11A2
:100FD800EB230A128A1101300A168A11EB230A122E
:100FE8008A1106300A168A11EB230A128A110800A0
:10100000F400740883120313880008000A168A117A
:10101000AE230A128A158316031391150A168A1134
:10102000AE230A128A15831203131308A000A1012C
:101030002008A2002108A3000A168A11AE230A1272
:101040008A1574037504031D262827282B28831668
:10105000031391122E28831603139116111683126F
:1010600003132308F5002208F40008008316031375
:10107000B701B21F3C283D284428B109B209B10A82
:101080000319B20AB701B70AB41F472848285128E4
:10109000B309B409B30A0319B40A0130B50035081D
:1010A000B706B801B9013108320403195828592884
:1010B0009028B601B60A672801300310B10DB20DB1
:1010C000FF3E031D5D280130B5003508B607B21F8D
:1010D0006A286B285C2801300310B80DB90DFF3E5B
:1010E000031D6C2832083402031D782831083302AE
:1010F000031C7B287C2883283108B3023208031C98
:10110000B403B402381401300310B20CB10CFF3E2A
:10111000031D84280130B602031D8F2890286B28F8
:1011200037080319942895289A28B809B909B80AE4
:101130000319B90A3908B2003808B10008000B1CBD
:10114000A228A3280629831203130618A828A92871
:10115000BB280130F0007008F7070130F00070087C
:1011600085071A30F100F830F000F00BB528F10BCC
:10117000B5280000C8288618BE28BF28C8287708C8
:101180000319C328C428C8280130F0007008F607E6
:1011900006307702031CCD28CE28CF28F70177032D
:1011A000031DD328D428DC2818307602031CD92844
:1011B000DA28DC28F601052902307706031DE1282C
:1011C000E228E9283C307602031CE728E828E928D1
:1011D000DA2803307706031DEE28EF28F8280D30B3
:1011E0007602031CF428F528F828F601F60A0529EA
:1011F00004307706031DFD28FE2805296430760299
:10120000031C032904290529DA280B1073088A0016
:10121000720E8300FE0E7E0E090083120313ED0092
:101220006D0883160313A000A101A201A3012308E6
:1012300083120313A30083160313220883120313DC
:10124000A20083160313210883120313A10083163F
:101250000313200883120313A00001300A128A1519
:10126000F8210A128A15831203132308B5002208F5
:10127000B4002108B3002008B2003F30B100FA30BA
:10128000B000F830AF003830AE000A128A112220C8
:101290000A128A15831203133108CF003008CE00DA
:1012A0002F08CD002E08CC004230CB00C830CA0039
:1012B0000030C9000030C8000A128A159B230A12A8
:1012C0008A15831203134B08E5004A08E400490815
:1012D000E3004808E2000A128A157C210A128A15E6
:1012E00083120313620883160313A40024088312D5
:1012F0000313ED006D080800031083120313640D3F
:10130000650DE6006608EC006C08031D8829892934
:1013100092290030E5000030E4000030E3000030A6
:10132000E200F7296208E6006308E7006408E800C5
:101330006508E9001F300310E90CE80CE70CE60C27
:10134000FF3E031D9B296608EA006A08EB00E417CC
:10135000FF30E205FF30E305FF30E4050030E5052E
:101360009630EC02EC1FB529B629D0296C08803ADA
:10137000973E0318BC29BD29BE29892901300310D5
:10138000E50CE40CE30CE20CFF3E031DBF29013029
:10139000E6006608EC07031DCE29CF29BE29E72900
:1013A00020306C02031CD529D629E2298929013075
:1013B000E6000310E20DE30DE40DE50DE60BD9297F
:1013C0000130EC026C08031DE629E729D7296B08D8
:1013D0000319EB29EC29F729E209E309E409E509F6
:1013E000E20A0319E30A0319E40A0319E50A0800EB
:1013F00083120313A80028080319FF29002A142ABE
:10140000A31F032A042A142A2009AA002109AB00D9
:101410002209AC002309AD00AA0A0319AB0A03197B
:10142000AC0A0319AD0A1C2A2308AD002208AC003F
:101430002108AB002008AA0023082204210420046C
:10144000031D232A242A2D2A0030A3000030A200E5
:101450000030A1000030A000B32A9630A400240878
:10146000A9003F2A0130A4002408A9070130031075
:10147000AD0CAC0CAB0CAA0CFF3E031D372AFE30A2
:101480002D05031D442A452A322A612A0130A40071
:101490002408A9070130AA07003003180130AB0760
:1014A000003003180130AC07003003180130AD07DD
:1014B00001300310AD0CAC0CAB0CAA0CFF3E031DAD
:1014C000592AFF302D05031D662A672A462A732AEA
:1014D0000130A9020130A4000310AA0DAB0DAC0D20
:1014E000AD0DA40B6C2AAC1B762A772A7D2A02301C
:1014F000290203187C2A7D2A682A2918802A812A31
:10150000892AFF30AA05FF30AB057F30AC05FF30DC
:10151000AD050310A90C2908A400A501A601A70187
:1015200018300310A40DA50DA60DA70DFF3E031D39
:10153000912A2408AA042508AB042608AC0427082D
:10154000AD0428080319A52AA62AAB2AA31FA92A95
:10155000AA2AAB2AAD172D08A3002C08A2002B083D
:10156000A1002A08A000080083160313C5006430F8
:10157000A7000030A80045080A128A150D210A129A
:101580008A1583160313BA00BB013A08A5003B086D
:10159000A6000A168A112E250A128A15831603132D
:1015A0002508C1002608C2000030C21BFF30C3005E
:1015B000C4000A30B1000030B2004508BA00BB01D7
:1015C000BC01BD013D0883120313A300831603135E
:1015D0003C0883120313A200831603133B088312F3
:1015E0000313A100831603133A0883120313A00008
:1015F00001300A128A15F8210A128A158312031380
:101600002308B5002208B4002108B3002008B20066
:101610003F30B100FA30B000F830AF003830AE00E3
:101620000A128A1122200A128A1583120313310822
:1016300083160313B00083120313300883160313B9
:10164000AF00831203132F0883160313AE00831217
:1016500003132E0883160313AD00440883120313EB
:10166000A30083160313430883120313A2008316F7
:101670000313420883120313A100831603134108C6
:1016800083120313A00001300A128A15F8210A12EE
:101690008A1583120313230883160313AC008312E5
:1016A0000313220883160313AB00831203132108CC
:1016B00083160313AA00831203132008831603134F
:1016C000A9000A168A1127260A128A1583160313FF
:1016D0002C0883120313E500831603132B088312CF
:1016E0000313E400831603132A0883120313E30091
:1016F00083160313290883120313E2000A128A15C2
:101700007C210A128A1583120313620883160313BD
:10171000BE00BF013E08B3003F08B4000A128A159C
:1017200036200A128A15831603133108C0004008B8
:10173000C50045080800831203134F088039D00004
:101740005008D9004F08D0005007D1005108E000E0
:10175000CE1FAB2BAC2BAD2B601460080319B12B43
:10176000B22BC22B600A031DB62BB72BBF2B003048
:10177000CF000030CE000030CD000030CC00CE17BE
:10178000CF01CA2B0030CF000030CE000030CD009A
:101790000030CC004B088039D0005008D9064B08E7
:1017A000D0005007D1005108E100CA1FD82BD92B17
:1017B000DA2B611461080319DE2BDF2BEF2B610A92
:1017C000031DE32BE42BEC2B0030CB000030CA00D0
:1017D0000030C9000030C800CA17CB01F72B003019
:1017E000CB000030CA000030C9000030C8004B08F0
:1017F0004A0449044804031DFE2BFF2B182C00301B
:10180000CF000030CE000030CD000030CC00803062
:10181000CE047F30CF045908D0005008CF044F08C1
:10182000CB004E08CA004D08C9004C08C800772DEF
:101830006008031D1C2C1D2C262C0030CB00003012
:10184000CA000030C9000030C800772D6008D00001
:10185000D1015108D30061085002D200031CD30308
:1018600052087F3EDA0053080318013E003EDB00B9
:101870004F08D8004E08D7004D08D6004C08D500B8
:101880000030CF000030CE000030CD000030CC0062
:101890000030DF000030DE000030DD000030DC0012
:1018A000E1019C2C61080319562C572C772C013030
:1018B000D0000310D50DD60DD70DD80DD00B592C57
:1018C0000130D0000310CC0DCD0DCE0DCF0DD00BBF
:1018D000622CDF1F6C2C6D2C6E2C4C140130D00050
:1018E0000310DC0DDD0DDE0DDF0DD00B702C4B0871
:1018F0005802031D852C4A085702031D852C4908F0
:101900005602031D852C48085502031C882C892C7F
:10191000982C5F174808D5024908031C490FD602C6
:101920004A08031C4A0FD7024B08031C4B0FD8026E
:101930000130D0005008E1071A306102031CA12CCD
:10194000A22C522C58085704560455040319A92CEC
:10195000AA2CC92C5C14C92C0130D0000310CC0D6A
:10196000CD0DCE0DCF0DD00BAE2CDF1FB82CB92C6A
:10197000BA2C4C140130D0000310DC0DDD0DDE0D4F
:10198000DF0DD00BBC2CFF30DA070318DB0AFF3069
:10199000DB07CE1FCC2CCD2CAC2CE101DF1FD12CD2
:1019A000D22CEE2CFF305C05D000FF305D05D1005D
:1019B000FF305E05D2007F305F05D300530852042C
:1019C000510450040319E52CE62CE92CE101E10A4D
:1019D000EE2C4C1CEC2CED2CEE2CE62C61080319A3
:1019E000F22CF32C242D0130CC07003003180130E9
:1019F000CD07003003180130CE0700300318013046
:101A0000CF074F1C042D052D242D4C08D0004D0868
:101A1000D1004E08D2004F08D3000130D400530D3E
:101A2000D30CD20CD10CD00CD40B0F2D5308CF00FB
:101A30005208CE005108CD005008CC000130DA0722
:101A40000318DB0A0030DB075B08803AFF008030B8
:101A50007F02031D2D2DFF305A02031C302D312D26
:101A60003F2DFF3083120313DA000030DB0000301B
:101A7000CF000030CE000030CD000030CC0083120B
:101A800003135B08803AFF0080307F02031D4A2D5C
:101A900001305A0203184D2D4E2D5B2D8312031376
:101AA000DA01DB010030CF000030CE000030CD0085
:101AB0000030CC00D901831203135A08D00050081B
:101AC000E000601C642D652D672DCE176B2D7F30D7
:101AD000D0005008CE056008D0000310500CD10093
:101AE0005108CF005908D0005008CF040F2C08002F
:101AF0008312031323088039A8002808B0002308A4
:101B0000A8002807A9002908B200A21F882D892D46
:101B10008A2D3214320803198E2D8F2D9F2D320AF3
:101B2000031D932D942D9C2D0030A3000030A200A6
:101B30000030A1000030A000A217A301A72D0030A3
:101B4000A3000030A2000030A1000030A000270850
:101B50008039A8002808B100310830060319B12DDA
:101B6000B22DB32D30172708A8002807A90029088F
:101B7000B100A61FBC2DBD2DBE2D31143108031997
:101B8000C22DC32DD32D310A031DC72DC82DD02D35
:101B90000030A7000030A6000030A5000030A400EF
:101BA000A617A701DB2D0030A7000030A6000030EB
:101BB000A5000030A400320831020318E02DE12D09
:101BC000252E301FE42DE52DE92D8030A8002808B2
:101BD000B0063208A8002808B3003108A800280879
:101BE000B2003308A8002808B1002008A80028087F
:101BF000B3002408A8002808A0003308A80028087B
:101C0000A4002108A8002808B3002508A800280877
:101C1000A1003308A8002808A5002208A800280869
:101C2000B3002608A8002808A2003308A800280846
:101C3000A6002308A8002808B3002708A800280841
:101C4000A3003308A8002808A700B3013108A800A2
:101C5000A9012908AB0032082802AA00031CAB0323
:101C60002B08803AFF0080307F02031D392E1A3086
:101C70002A02031C3C2E3D2E7A2E831203132308C6
:101C8000220421042004031D462E482E0130492E33
:101C90000030A8002808B3000030A3000030A200E4
:101CA0000030A1000030A0003108A8002808B200D0
:101CB000822E331C5C2E5D2E662E3308A800031086
:101CC000280C0138A9002908B300682E0310B30CB2
:101CD000201C6B2E6C2E6D2EB3170130A800230D27
:101CE000A30CA20CA10CA00CA80B6F2E0130A80015
:101CF0002808B2078312031331083202031C812E15
:101D0000822E592E301B852E862ED12E3208031D91
:101D10008A2E8B2E942E0030A3000030A2000030BB
:101D2000A1000030A000FF2F2408A0072508031100
:101D30000318013E03199D2EA1072608031103185D
:101D4000013E0319A42EA207270803110318013E20
:101D50000319AB2EA307231CAE2EAF2E852F331CE9
:101D6000B22EB32EBC2E3308A8000310280C013865
:101D7000A9002908B300BE2E0310B30C201CC12EED
:101D8000C22EC32EB3170130A800230DA30CA20C42
:101D9000A10CA00CA80BC52E0130A8002808B20782
:101DA000852F2308803AFF002708803A7F02031D11
:101DB000E32E26082202031DE32E25082102031D1F
:101DC000E32E240820020318E62EE72E3F2FFF30D3
:101DD000A800FF30A900FF30AA00FF30AB002408A4
:101DE000AC002508AD002608AE002708AF0020088B
:101DF000AC022108031C210FFE2EFF2EAD0222088B
:101E0000031C220F042F052FAE022308031C230FEF
:101E10000A2F0B2FAF022C08A8072D0803182D0F2F
:101E2000122F132FA9072E0803182E0F182F192F62
:101E3000AA072F0803182F0AAB072B08A3002A08AC
:101E4000A2002908A1002808A0008030A8002808C6
:101E5000B006B309B30A3308031D2F2F302F4D2FBF
:101E60000130A007003003180130A107003003182B
:101E70000130A207003003180130A3074D2F2408BA
:101E8000A0022508031C250FA1022608031C260F0B
:101E9000A2022708031C270FA302230822042104FF
:101EA0002004031D542F552F812F3308031D592F54
:101EB0005A2F812F0030A3000030A2000030A10073
:101EC0000030A000FF2F0130A8000310A00DA10DCD
:101ED000A20DA30DA80B652FB31F6F2F702F712FAD
:101EE0002014331C742F752F782F0314B30D7A2F01
:101EF0000310B30D320803197E2F7F2F812F01307D
:101F0000B202A21F842F852F632FB101B31F892F27
:101F10008A2F982F33087F3903198F2F902F932FF3
:101F2000B101B10A982F201C962F972F982F902F30
:101F3000310803199C2F9D2FD12F0130A0070030AD
:101F400003180130A107003003180130A207003048
:101F500003180130A307231CAE2FAF2FD12F200869
:101F6000A8002108A9002208AA002308AB0001301C
:101F7000AC002B0DAB0CAA0CA90CA80CAC0BB92F08
:101F80002B08A3002A08A2002908A1002808A00005
:101F9000320A0319CC2FCD2FD12F0130A8002808E9
:101FA000B207320A0319D52FD62FDB2F3208031DB3
:101FB000DA2FDB2FE92F0030A3000030A200003021
:101FC000A1000030A0003208031DE72FE82FE92F01
:101FD000B001321CEC2FED2FEF2FA217F32F7F3023
:101FE000A8002808A2053208A8000310280CA900A0
:101FF0002908A300B01FFD2FFE2FFF2FA3170800F5
:1020000010308A000408840A8207003453343134C3
:102010003A34003420342034003432343034003444
:082020002E3400342F3400348B
:1026F2000A168A11AE230A168A11831603131114BD
:1027020008000A168A11AE230A168A1183160313C9
:10271200111508000A168A11AE230A168A117408C6
:102722008312031393000800F4008316031381132A
:1027320074089500740896008B150B108B1708000F
:1027420000300A128A1500200A168A1101300A1274
:102752008A1500200A168A11080083160313141919
:10276200B32BB42BAE2B11081F39031DB92BBA2B77
:10277200AE2B080083120313A100A001211CC22B5F
:10278200C32BC72B7408F5007508A0070310F40DBE
:102792000310A10C2108031DCF2BD02BBF2B200827
:1027A200080083120313A7002508A6002608A2002A
:1027B20027080A168A113E240A168A1105300A16BB
:1027C2008A11A3240A168A110A168A115C240A168F
:1027D2008A110800F50083120313091075080A1202
:1027E2008A1500200A168A118312031389140D30E8
:1027F20083120313A100FB30A000A00BFE2BA10B40
:10280200FE2B831203138910080083120313A50001
:102812000F302505A2000A30A3002308F400250882
:10282200A40004300310A40CFF3E031D132C240843
:102832000A168A11BB230A168A118312031322076E
:102842000800F50083120313091475080A128A1589
:1028520000200A168A118312031389140B30831283
:102862000313A1006130A000A00B352CA10B352C65
:102872003A2C831203138910080083120313A30056
:102882002303031D452C462C4E2C2208803E0A169B
:102892008A11EB230A168A115B2C02302306031DD0
:1028A200532C542C5B2C2208C03E0A168A11EB23AF
:1028B2000A168A11080083120313A0016D2C01303D
:1028C200F4007408A0078230F500DD30F400F40B48
:1028D200682CF50B682C6D2C6530831203132002D3
:1028E200031C742C752C7D2C061C782C792C7D2CC9
:1028F20086187C2C7D2C602C080083120313A60002
:102902002608A20004300310A20CFF3E031D842CF3
:102912002208303EA3002308A40026080F39303EC7
:10292200A2002208A50024080A168A1122240A16E7
:102932008A118312031325080A168A1122240A1601
:102942008A11080083120313A400A201A301BE2C62
:102952002208240784000A168A1100200A168A1106
:102962000A168A1122240A168A11013083120313CD
:10297200A2070318A30A0030A30722082407840031
:102982000A168A1100200A168A11003A031DCA2C5F
:10299200CB2CA92C080083120313A600A201A301C9
:1029A2007408A000A1012008A4002108A500261C8B
:1029B200DB2CDC2CE22C2408A2070318A30A25082E
:1029C200A30701300310A40DA50DFF3E031DE32C48
:1029D2000310A60C2608031DEF2CF02CD82C23087C
:1029E200F5002208F40008000A168A1179230A1653
:1029F2008A11831203132108F5002008F4000A1635
:102A02008A118B230A168A11831203132308F500F5
:102A12002208F4000A168A118B230A168A118312DD
:102A220003132408A500A6012508F4002608F500D2
:102A32000A168A118B230A168A110A168A11822310
:102A42000A168A11343083120313A600F130A5004E
:102A5200A50B292DA60B292D080083120313EE01C5
:102A6200EF0183160313251C372D382D442D27081B
:102A720083120313EE070318EF0A831603132808C1
:102A820083120313EF070130831603130310A70DFC
:102A9200A80DFF3E031D472D01300310A60CA50C07
:102AA200FF3E031D4E2D25082604031D592D5A2DC8
:102AB200322D831203136F0883160313A6008312A9
:102AC20003136E0883160313A5000800283083122F
:102AD20003139400831603139101831203132D0829
:102AE200B1002E08B2002F08B3003008B400023043
:102AF2000310B10DB20DB30DB40DFF3E031D792DC0
:102B02003408A3003308A2003208A1003108A00053
:102B12000030A7007A30A6001230A5000030A400D1
:102B22000A168A1198270A168A118312031320089B
:102B3200FF3E8316031393009401871507160800BE
:102B420083160313BF000A30B1000030B2003F0801
:102B5200BA00BB013A08B3003B08B4000A128A1556
:102B620036200A168A11831603133108BC0004307A
:102B72000310BC0DFF3E031DB92D0A30831203134F
:102B8200A0000030A100831603133F08BD00BE0160
:102B92003D0883120313A200831603133E08831217
:102BA2000313A3000A168A1177260A168A118312C2
:102BB20003132008831603133C07080001300A168A
:102BC2008A11D2260A168A118316031788018901EF
:102BD20083160313880183120313880183160313D8
:102BE20089018312031389010330831603138600BC
:102BF20083120313860185018316031385010330B3
:102C02000A168A1195230A168A11F90183160313EB
:102C1200DF01DE01DD01DC01F801DB01DA01D901AE
:102C2200D8010A128A11A8270A168A1100308312C3
:102C32000313B0000130AF008630AE00A030AD000B
:102C42000A168A1167250A168A110800803083162F
:102C52000313AC06300883120313A3008316031375
:102C62002F0883120313A200831603132E08831264
:102C72000313A100831603132D0883120313A0006C
:102C8200831603132C0883120313A700831603135E
:102C92002B0883120313A600831603132A08831238
:102CA2000313A50083160313290883120313A40038
:102CB2000A128A1578250A168A1183120313230829
:102CC20083160313AC008312031322088316031323
:102CD200AB0083120313210883160313AA00831285
:102CE2000313200883160313A90008008312031399
:102CF200A501A31F7D2E7E2E852EA209A309A20A5D
:102D02000319A30AA501A50AA11F882E892E8E2EBA
:102D1200A009A109A00A0319A10A20082104031984
:102D2200932E942EC32EA401A40AA22E01300310C6
:102D3200A00DA10DFF3E031D982E0130F400740872
:102D4200A407A11FA52EA62E972E21082302031D3C
:102D5200AC2E20082202031CAF2EB02EB62E200865
:102D6200A2022108031CA303A30201300310A10C39
:102D7200A00CFF3E031DB72E0130A402031DC22E7C
:102D8200C32EA62E25080319C72EC82ECD2EA209A2
:102D9200A309A20A0319A30A2308A1002208A0007A
:102DA200080083120313A000831603130F140F2FBE
:102DB200831603130F178F160F16332F8316031361
:102DC2000F178F160F12332F831603130F178F123D
:102DD2000F16332F831603130F178F120F12332F71
:102DE200831603130F138F160F16332F8316031335
:102DF2000F138F160F12332F831603130F138F1215
:102E02000F16332F831603130F138F120F12332F44
:102E1200831603130F178F160F12332F8312031308
:102E22002008F400F5017508003A0319192F092F3B
:102E32007408013A0319D92E033A0319DF2E013A15
:102E42000319E52E073A0319EB2E013A0319F12E65
:102E5200033A0319F72E013A0319FD2E0F3A03190B
:102E6200032F092F08000A168A1179230A168A11DC
:102E7200831203132508F5002408F4000A168A11A8
:102E82008B230A168A11831203132708F5002608DA
:102E9200F4000A168A118B230A168A110A168A115D
:102EA20082230A168A111A3083120313A900F730FB
:102EB200A800A80B5A2FA90B5A2F5F2F0A168A11A6
:102EC20079230A168A11831203132408013EF4009F
:102ED20025080318013E003EF5000A168A118B23CD
:102EE2000A168A110030F400F5000A128A1506202B
:102EF2000A168A11750883120313AB007408AA001C
:102F02000A168A1182230A168A111A3083120313AF
:102F1200A900F730A800A80B8C2FA90B8C2F912F9A
:102F2200831203132B08A5002A08A400080000300E
:102F320083120313AB000030AA000030A900003056
:102F4200A80023082204210420040319A92FAA2F70
:102F5200F72FAC01AC0ABA2F0130F4000310A00D18
:102F6200A10DA20DA30DF40BAF2F0130F4007408D4
:102F7200AC07A31FBD2FBE2FAD2F0130F4000310ED
:102F8200A80DA90DAA0DAB0DF40BC02F2308270223
:102F9200031DD52F22082602031DD52F2108250245
:102FA200031DD52F20082402031CD82FD92FE82F68
:102FB2002008A4022108031C210FA5022208031CD9
:102FC200220FA6022308031C230FA7022814013094
:102FD2000310A30CA20CA10CA00CFF3E031DE92FB1
:102FE2000130AC02031DF62FF72FBE2F2B08A300D2
:0E2FF2002A08A2002908A1002808A000080053
:08400000FF3FFF3FFF3FFF3FC0
:04400E00D420FF3F7C
:00000001FF
