:060000000A128A110C280F
:10000800FE00030EF5000A08F6000A128A115D2F99
:100018000A128A110F2883179B30FD001130FE0049
:100028002230FF00903084000A168A114B210A12F0
:100038008A118313EC30FD001130FE000F30FF00F1
:10004800E33084000A168A114B210A128A1183169A
:100058000313D901DA01DB01DC01DD01DE01DF0177
:10006800E001E101E201F701F801F90183010A1257
:100078008A158B2D8312031331088039B600360890
:10008800BB003108B6003607B7003708C100B01FFB
:100098004E284F2850284114410803195428552840
:1000A8006428410A031D59285A2862280030B100E3
:1000B8000030B0000030AF000030AE00B0176C2840
:1000C8000030B1000030B0000030AF000030AE00AA
:1000D80035088039B6003608BB063508B60036073D
:1000E800B7003708C000B41F7A287B287C28401442
:1000F80040080319802881289028400A031D852874
:1001080086288E280030B5000030B4000030B300D7
:100118000030B200B41798280030B5000030B400A1
:100128000030B3000030B200400803199C289D2815
:10013800A2284108031DA128A228AB280030B1003D
:100148000030B0000030AF000030AE009E2B2E080B
:10015800B6003608A00034080A168A1119220A12B5
:100168008A11831203132108C7002008C600460815
:10017800B600B701B801B9013908BF003808BE0098
:100188003708BD003608BC004708B600B701B801FB
:10019800B9013908C5003808C4003708C300360853
:1001A800C2002F08B6003608A00033080A168A11C4
:1001B80019220A128A11831203132108C700200882
:1001C800C6004608B600B701B801B9013608BC0731
:1001D800370803110318013E0319F328BD0738082F
:1001E80003110318013E0319FA28BE073908031141
:1001F8000318013E03190129BF074708B600B701D4
:10020800B801B9013608C207370803110318013EBF
:1002180003190F29C307380803110318013E0319EE
:100228001629C407390803110318013E03191D29AB
:10023800C5073008B6003608A00032080A168A1129
:1002480019220A128A11831203132108C7002008F1
:10025800C6004608B600B701B801B9013608BC07A0
:10026800370803110318013E03193B29BD07380855
:1002780003110318013E03194229BE073908031167
:100288000318013E03194929BF074708B600B701FB
:10029800B801B9013608C207370803110318013E2F
:1002A80003195729C307380803110318013E031916
:1002B8005E29C407390803110318013E031965298B
:1002C800C5070830B6000310BC0DBD0DBE0DBF0D2F
:1002D800B60B67292F08B6003608A00032080A16A0
:1002E8008A1119220A128A11831203132108C700DE
:1002F8002008C6004608B6004708B700B801B9018B
:100308003608BC07370803110318013E03198D2965
:10031800BD07380803110318013E03199429BE07C5
:10032800390803110318013E03199B29BF072E083A
:10033800B6003608A00033080A168A1119220A12D4
:100348008A11831203132108C7002008C600460833
:10035800B6004708B700B801B9013608BC07370826
:1003680003110318013E0319BA29BD073808031100
:100378000318013E0319C129BE07390803110318E0
:10038800013E0319C829BF070830B6000310BC0D89
:10039800BD0DBE0DBF0DB60BCA292E08B600360816
:1003A800A00032080A168A1119220A128A11831229
:1003B80003132108C7002008C6004608B6004708EE
:1003C800B700B801B9013608BC073708031103188C
:1003D800013E0319F029BD07380803110318013E2F
:1003E8000319F729BE07390803110318013E031939
:1003F800FE29BF072F08B6003608A00034080A16E1
:100408008A1119220A128A11831203132108C700BC
:100418002008C6004608B6004708B700B801B90169
:100428003608C207370803110318013E03191D2AAD
:10043800C307380803110318013E0319242AC40707
:10044800390803110318013E03192B2AC507300880
:10045800B6003608A00033080A168A1119220A12B3
:100468008A11831203132108C7002008C600460812
:10047800B6004708B700B801B9013608C2073708FF
:1004880003110318013E03194A2AC3073808031148
:100498000318013E0319512AC40739080311031828
:1004A800013E0319582AC5073008B6003608A000CF
:1004B80034080A168A1119220A128A1183120313A0
:1004C8002108C7002008C6004608B6004708B7003C
:1004D800B801B90108300310B60DB70DB80DB90D44
:1004E800FF3E031D6F2A3608C20737080311031899
:1004F800013E0319802AC307380803110318013E77
:100508000319872AC407390803110318013E031980
:100518008E2AC5073C08B6003D08B7003E08B8005B
:100528003F08B90018300310B90CB80CB70CB60C5A
:10053800FF3E031D972A3608C20737080311031820
:10054800013E0319A82AC307380803110318013EFE
:100558000319AF2AC407390803110318013E031908
:10056800B62AC5070830B6000310BC0DBD0DBE0D78
:10057800BF0DB60BB82A41084007B600B701B70D42
:100588003608823EC60037080318013EFF3EC70002
:10059800EA2A0130B6000310C20DC30DC40DC50D03
:1005A800B60BCF2ABF1FD92ADA2ADB2A4214013018
:1005B800B6000310BC0DBD0DBE0DBF0DB60BDD2A78
:1005C800FF30C6070318C70AFF30C707C41FED2A44
:1005D800EE2ACD2AC001BF1FF22AF32A0F2BFF30C3
:1005E8003C05B600FF303D05B700FF303E05B800BA
:1005F8007F303F05B9003908380437043604031939
:10060800062B072B0A2BC001C00A0F2B421C0D2BEF
:100618000E2B0F2B072B40080319132B142B452BDC
:100628000130C207003003180130C3070030031837
:100638000130C407003003180130C507451C252BBD
:10064800262B452B4208B6004308B7004408B800DB
:100658004508B9000130BA00390DB90CB80CB70C0F
:10066800B60CBA0B302B3908C5003808C400370857
:10067800C3003608C2000130C6070318C70A003095
:10068800C7074708803AFF0080307F02031D4E2BC2
:10069800FF304602031C512B522B5D2B7F308312F7
:1006A8000313C5008030C4000030C3000030C2000E
:1006B800922B831203134708803AFF0080307F0291
:1006C800031D682B0130460203186B2B6C2B782B0B
:1006D800003083120313C5000030C4000030C3008B
:1006E8000030C200BB01922B831203134608B600E8
:1006F8003608C100FF30C205FF30C3057F30C4058E
:100708000030C505411C892B8A2B8B2BC417410847
:10071800B6000310360CB7003708C5003B08B60012
:100728003608C5044508B1004408B0004308AF00C6
:100738004208AE0008008312031323088039A8007A
:100748002808B0002308A8002807A9002908B20033
:10075800A21FAF2BB02BB12B321432080319B52BC3
:10076800B62BC62B320A031DBA2BBB2BC32B00306A
:10077800A3000030A2000030A1000030A000A217A2
:10078800A301CE2B0030A3000030A2000030A1004E
:100798000030A00027088039A8002808B1003108D7
:1007A80030060319D82BD92BDA2B30172708A800C5
:1007B8002807A9002908B100A61FE32BE42BE52B85
:1007C800311431080319E92BEA2BFA2B310A031DDE
:1007D800EE2BEF2BF72B0030A7000030A6000030DF
:1007E800A5000030A400A617A701022C0030A7001E
:1007F8000030A6000030A5000030A4003208310205
:100808000318072C082C4C2C301F0B2C0C2C102CEC
:100818008030A8002808B0063208A8002808B300CD
:100828003108A8002808B2003308A8002808B10039
:100838002008A8002808B3002408A8002808A00059
:100848003308A8002808A4002108A8002808B30035
:100858002508A8002808A1003308A8002808A50032
:100868002208A8002808B3002608A8002808A20023
:100878003308A8002808A6002308A8002808B30001
:100888002708A8002808A3003308A8002808A700FC
:10089800B3013108A800A9012908AB0032082802D1
:1008A800AA00031CAB032B08803AFF0080307F02AC
:1008B800031D602C1A302A02031C632C642CA12C03
:1008C800831203132308220421042004031D6D2C22
:1008D8006F2C0130702C0030A8002808B3000030BD
:1008E800A3000030A2000030A1000030A0003108B1
:1008F800A8002808B200A92C331C832C842C8D2C2A
:100908003308A8000310280C0138A9002908B300EF
:100918008F2C0310B30C201C922C932C942CB317FF
:100928000130A800230DA30CA20CA10CA00CA80B4D
:10093800962C0130A8002808B20783120313310847
:100948003202031CA82CA92C802C301BAC2CAD2CFB
:10095800F82C3208031DB12CB22CBB2C0030A3009C
:100968000030A2000030A1000030A000262E24088C
:10097800A007250803110318013E0319C42CA10779
:10098800260803110318013E0319CB2CA2072708D8
:1009980003110318013E0319D22CA307231CD52CDD
:1009A800D62CAC2D331CD92CDA2CE32C3308A80018
:1009B8000310280C0138A9002908B300E52C0310FE
:1009C800B30C201CE82CE92CEA2CB3170130A80042
:1009D800230DA30CA20CA10CA00CA80BEC2C01302D
:1009E800A8002808B207AC2D2308803AFF00270882
:1009F800803A7F02031D0A2D26082202031D0A2DB4
:100A080025082102031D0A2D2408200203180D2D94
:100A18000E2D662DFF30A800FF30A900FF30AA0078
:100A2800FF30AB002408AC002508AD002608AE0056
:100A38002708AF002008AC022108031C210F252D30
:100A4800262DAD022208031C220F2B2D2C2DAE02C1
:100A58002308031C230F312D322DAF022C08A807C1
:100A68002D0803182D0F392D3A2DA9072E08031824
:100A78002E0F3F2D402DAA072F0803182F0AAB076A
:100A88002B08A3002A08A2002908A1002808A00012
:100A98008030A8002808B006B309B30A3308031D3C
:100AA800562D572D742D0130A00700300318013042
:100AB800A107003003180130A207003003180130E5
:100AC800A307742D2408A0022508031C250FA102E2
:100AD8002608031C260FA2022708031C270FA302BF
:100AE8002308220421042004031D7B2D7C2DA82D1E
:100AF8003308031D802D812DA82D0030A300003060
:100B0800A2000030A1000030A000262E0130A8006D
:100B18000310A00DA10DA20DA30DA80B8C2DB31FC2
:100B2800962D972D982D2014331C9B2D9C2D9F2D91
:100B38000314B30DA12D0310B30D32080319A52D0D
:100B4800A62DA82D0130B202A21FAB2DAC2D8A2DE7
:100B5800B101B31FB02DB12DBF2D33087F39031953
:100B6800B62DB72DBA2DB101B10ABF2D201CBD2D50
:100B7800BE2DBF2DB72D31080319C32DC42DF82D57
:100B88000130A007003003180130A1070030031816
:100B98000130A207003003180130A307231CD52D0C
:100BA800D62DF82D2008A8002108A9002208AA009F
:100BB8002308AB000130AC002B0DAB0CAA0CA90C20
:100BC800A80CAC0BE02D2B08A3002A08A2002908CA
:100BD800A1002808A000320A0319F32DF42DF82DDE
:100BE8000130A8002808B207320A0319FC2DFD2D90
:100BF800022E3208031D012E022E102E0030A300F3
:100C08000030A2000030A1000030A0003208031D0F
:100C18000E2E0F2E102EB001321C132E142E162E4F
:100C2800A2171A2E7F30A8002808A2053208A800AB
:100C38000310280CA9002908A300B01F242E252E74
:100C4800262EA317080083160313D4006430A700C8
:100C58000030A80054080A168A1115270A128A11AA
:100C680083160313C600C7014608A5004708A60057
:100C78000A168A1140230A128A11831603132508BB
:100C8800CA002608CB000030CB1BFF30CC00CD00BB
:100C980054080A128A15D5200A128A1183160313DA
:100CA800C600C7014608D2004708D3005408C6004A
:100CB800C701C801C901490883120313A300831699
:100CC8000313480883120313A2008316031347086B
:100CD80083120313A1008316031346088312031318
:100CE800A00001300A128A1519200A128A118312EB
:100CF80003132308B5002208B4002108B300200814
:100D0800B2003F30B100FA30B000F830AF003830F0
:100D1800AE000A128A113E200A128A1183120313A6
:100D2800310883160313B0008312031330088316A7
:100D38000313AF00831203132F0883160313AE00A7
:100D4800831203132E0883160313AD004D08831274
:100D58000313A300831603134C0883120313A20082
:100D6800831603134B0883120313A100831603137E
:100D78004A0883120313A00001300A128A151920A9
:100D88000A128A1183120313230883160313AC0073
:100D980083120313220883160313AB008312031371
:100DA800210883160313AA0083120313200883164D
:100DB8000313A9000A168A117D240A128A118316C0
:100DC80003132C08D1002B08D0002A08CF002908CB
:100DD800CE005108B0005008AF004F08AE004E08D2
:100DE800AD000A30A7000030A8005308A60052083A
:100DF800A5000A168A1140230A128A1183160313C2
:100E0800250883120313A0008316031326088312F0
:100E18000313A1000030A11BFF30A200A300013082
:100E28000A128A1519200A128A1183120313230839
:100E380083160313AC0083120313220883160313CB
:100E4800AB0083120313210883160313AA0083122D
:100E58000313200883160313A9000A168A117D2498
:100E68000A128A11831603132C0883120313E50050
:100E7800831603132B0883120313E400831603134A
:100E88002A0883120313E300831603132908831225
:100E98000313E2000A168A1184270A128A118312A0
:100EA8000313620883160313C6004608D4005408C7
:100EB80008000B1C602F612FD42F83120313061810
:100EC800662F672F752F0A168A1142220A128A1175
:100ED800031C6F2F702F8B2F0130F4007408F90753
:100EE8008B2F8618782F792F8B2F790803197D2F50
:100EF8007E2F8B2F0A168A1142220A128A11031C8E
:100F0800862F872F8B2F0130F4007408F8070630DE
:100F18007902031C902F912F922FF9017903031D59
:100F2800962F972F9E2F18307802031C9C2F9D2FE9
:100F38009E2FF80102307906031DA32FA42FAB2F93
:100F48003C307802031CA92FAA2FAB2FF8010330DD
:100F58007906031DB02FB12FB92F0D307802031C6D
:100F6800B62FB72FB92FF801F80A03307906031DF9
:100F7800BE2FBF2FC62F7808031DC32FC42FC62F1F
:100F8800F801F80A04307906031DCB2FCC2FD32F94
:100F980064307802031CD12FD22FD32FF8010B1005
:100FA80076088A00750E8300FE0E7E0E09008312F5
:100FB8000313A201ED2F0130A0002008A2070D3075
:100FC80083120313A100FB30A000A00BE92FA10B93
:100FD800E92F6530831203132202031CF42FF52F27
:100FE800FD2F061CF82FF92FFD2F8618FC2FFD2F3B
:040FF800DF2F0800DF
:10100000FF1B0A2883137F1883170008840A03191B
:10101000FF0A080008308A000408840A82070034A6
:10102000533431343A3400342034203400342E34F4
:10103000003483120313A80028080319202821284C
:101040003528A31F2428252835282009AA0021098E
:10105000AB002209AC002309AD00AA0A0319AB0AB0
:101060000319AC0A0319AD0A3D282308AD00220874
:10107000AC002108AB002008AA00230822042104A8
:101080002004031D442845284E280030A3000030CA
:10109000A2000030A1000030A000D4289630A400A7
:1010A0002408A90060280130A4002408A907013001
:1010B0000310AD0CAC0CAB0CAA0CFF3E031D582862
:1010C000FE302D05031D652866285328822801302F
:1010D000A4002408A9070130AA0700300318013032
:1010E000AB07003003180130AC07003003180130A3
:1010F000AD0701300310AD0CAC0CAB0CAA0CFF3EDD
:10110000031D7A28FF302D05031D872888286728AE
:1011100094280130A9020130A4000310AA0DAB0DE0
:10112000AC0DAD0DA40B8D28AC1B972898289E28DC
:101130000230290203189D289E2889282918A128F1
:10114000A228AA28FF30AA05FF30AB057F30AC05E6
:10115000FF30AD050310A90C2908A400A501A601C4
:10116000A70118300310A40DA50DA60DA70DFF3E75
:10117000031DB2282408AA042508AB042608AC04E1
:101180002708AD0428080319C628C728CC28A31FA0
:10119000CA28CB28CC28AD172D08A3002C08A20004
:1011A0002B08A1002A08A000080083160313C5001D
:1011B0006430A7000030A80045080A168A111527D8
:1011C0000A128A1583160313BA00BB013A08A50058
:1011D0003B08A6000A168A1140230A128A158316B4
:1011E00003132508C1002608C2000030C21BFF30CF
:1011F000C300C4000A30B1000030B2004508BA0094
:10120000BB01BC01BD013D0883120313A30083167B
:1012100003133C0883120313A200831603133B0835
:1012200083120313A100831603133A0883120313D6
:10123000A00001300A128A1519200A128A15831299
:1012400003132308B5002208B4002108B3002008C6
:10125000B2003F30B100FA30B000F830AF003830A3
:10126000AE000A128A113E200A128A158312031355
:10127000310883160313B00083120313300883165A
:101280000313AF00831203132F0883160313AE005A
:10129000831203132E0883160313AD004408831230
:1012A0000313A30083160313430883120313A2003E
:1012B00083160313420883120313A100831603133A
:1012C000410883120313A00001300A128A15192065
:1012D0000A128A1583120313230883160313AC0022
:1012E00083120313220883160313AB008312031324
:1012F000210883160313AA00831203132008831600
:101300000313A9000A168A117D240A128A1583166E
:1013100003132C0883120313E500831603132B0811
:1013200083120313E400831603132A0883120313A2
:10133000E30083160313290883120313E2000A163D
:101340008A1184270A128A158312031362088316EE
:101350000313BE00BF013E08B3003F08B4000A16E5
:101360008A11AC260A128A15831603133108C000AD
:101370004008C50045080800831203134F08803950
:10138000D0005008D9004F08D0005007D1005108B4
:10139000E000CE1FCC29CD29CE29601460080319A6
:1013A000D229D329E329600A031DD729D829E029A6
:1013B0000030CF000030CE000030CD000030CC0037
:1013C000CE17CF01EB290030CF000030CE00003027
:1013D000CD000030CC004B088039D0005008D90631
:1013E0004B08D0005007D1005108E100CA1FF9296D
:1013F000FA29FB29611461080319FF29002A102A20
:10140000610A031D042A052A0D2A0030CB00003092
:10141000CA000030C9000030C800CA17CB01182A22
:101420000030CB000030CA000030C9000030C800D6
:101430004B084A0449044804031D1F2A202A392A5C
:101440000030CF000030CE000030CD000030CC00A6
:101450008030CE047F30CF045908D0005008CF042C
:101460004F08CB004E08CA004D08C9004C08C80000
:10147000982B6008031D3D2A3E2A472A0030CB00E6
:101480000030CA000030C9000030C800982B600846
:10149000D000D1015108D30061085002D200031CD2
:1014A000D30352087F3EDA0053080318013E003E82
:1014B000DB004F08D8004E08D7004D08D6004C0876
:1014C000D5000030CF000030CE000030CD0000301D
:1014D000CC000030DF000030DE000030DD000030E6
:1014E000DC00E101BD2A61080319772A782A982ACD
:1014F0000130D0000310D50DD60DD70DD80DD00B6F
:101500007A2A0130D0000310CC0DCD0DCE0DCF0DB9
:10151000D00B832ADF1F8D2A8E2A8F2A4C1401308C
:10152000D0000310DC0DDD0DDE0DDF0DD00B912A98
:101530004B085802031DA62A4A085702031DA62A73
:1015400049085602031DA62A48085502031CA92A69
:10155000AA2AB92A5F174808D5024908031C490F6F
:10156000D6024A08031C4A0FD7024B08031C4B0F34
:10157000D8020130D0005008E1071A306102031C84
:10158000C22AC32A732A580857045604550403195B
:10159000CA2ACB2AEA2A5C14EA2A0130D0000310B6
:1015A000CC0DCD0DCE0DCF0DD00BCF2ADF1FD92AFC
:1015B000DA2ADB2A4C140130D0000310DC0DDD0DDB
:1015C000DE0DDF0DD00BDD2AFF30DA070318DB0A52
:1015D000FF30DB07CE1FED2AEE2ACD2AE101DF1F07
:1015E000F22AF32A0F2BFF305C05D000FF305D0597
:1015F000D100FF305E05D2007F305F05D300530875
:101600005204510450040319062B072B0A2BE10145
:10161000E10A0F2B4C1C0D2B0E2B0F2B072B6108F7
:101620000319132B142B452B0130CC070030031862
:101630000130CD07003003180130CE070030031809
:101640000130CF074F1C252B262B452B4C08D000F3
:101650004D08D1004E08D2004F08D3000130D4000D
:10166000530DD30CD20CD10CD00CD40B302B53080F
:10167000CF005208CE005108CD005008CC000130F8
:10168000DA070318DB0A0030DB075B08803AFF004B
:1016900080307F02031D4E2BFF305A02031C512B5A
:1016A000522B602BFF3083120313DA000030DB0073
:1016B0000030CF000030CE000030CD000030CC0034
:1016C000831203135B08803AFF0080307F02031D02
:1016D0006B2B01305A0203186E2B6F2B7C2B83125D
:1016E0000313DA01DB010030CF000030CE00003000
:1016F000CD000030CC00D901831203135A08D0006A
:101700005008E000601C852B862B882BCE178C2B75
:101710007F30D0005008CE056008D0000310500C78
:10172000D1005108CF005908D0005008CF04302A0A
:101730000800831603135E080A168A11BE210A12D6
:101740008A1583160313BA003A08BD005D080A160D
:101750008A11BE210A128A1583160313BA003A08A9
:10176000BE005C080A168A11BE210A128A15831669
:101770000313BA003A08BF005B080A168A11BE219B
:101780000A128A1583160313BA003A08C0005A08D1
:101790000A168A11BE210A128A1583160313BA008B
:1017A0003A08C10059080A168A11BE210A128A1580
:1017B00083160313BA003A08C2000A30B1000030A1
:1017C000B2003F08BA00BB013A08B3003B08B400BE
:1017D0000A168A11AC260A128A15831603133108D9
:1017E000303EBC003C08E3000A3083120313A00023
:1017F0000030A100831603133F08BA00BB013A086A
:1018000083120313A200831603133B0883120313EE
:10181000A3000A168A1121250A128A1583120313BE
:101820002008303E83160313BC003C08E4000A3055
:10183000B1000030B2003E08BA00BB013A08B30064
:101840003B08B4000A168A11AC260A128A158316C0
:1018500003133108303EBC003C08E6000A30831216
:101860000313A0000030A100831603133E08BA0042
:10187000BB013A0883120313A200831603133B082B
:1018800083120313A3000A168A1121250A128A154E
:10189000831203132008303E83160313BC003C0858
:1018A000E7000A30B1000030B2003D08BA00BB01C9
:1018B0003A08B3003B08B4000A168A11AC260A1293
:1018C0008A15831603133108303EBC003C08E9003A
:1018D0000A3083120313A0000030A1008316031303
:1018E0003D08BA00BB013A0883120313A200831615
:1018F00003133B0883120313A3000A168A11212540
:101900000A128A15831203132008303E831603132C
:10191000BC003C08EA000A30B1000030B2004008C8
:10192000BA00BB013A08B3003B08B4000A168A119A
:10193000AC260A128A15831603133108303EBC0008
:101940003C088316031790000A3083120313A0008B
:101950000030A100831603134008BA00BB013A0807
:1019600083120313A200831603133B08831203138D
:10197000A3000A168A1121250A128A15831203135D
:101980002008303E83160313BC003C08831603175F
:1019900091000A3083160313B1000030B2004108F1
:1019A000BA00BB013A08B3003B08B4000A168A111A
:1019B000AC260A128A15831603133108303EBC0088
:1019C0003C088316031793000A3083120313A00008
:1019D0000030A100831603134108BA00BB013A0886
:1019E00083120313A200831603133B08831203130D
:1019F000A3000A168A1121250A128A1583120313DD
:101A00002008303E83160313BC003C0883160317DE
:101A100094000A3083160313B1000030B20042086C
:101A2000BA00BB013A08B3003B08B4000A168A1199
:101A3000AC260A128A15831603133108303EBC0007
:101A40003C088316031798000A3083120313A00082
:101A50000030A100831603134208BA00BB013A0804
:101A600083120313A200831603133B08831203138C
:101A7000A3000A168A1121250A128A15831203135C
:101A80002008303E83160313BC003C08831603175E
:101A90009900083083160313BA003A08831203131F
:101AA000A40001300A168A11DA210A128A15E330DD
:101AB00083120313A4000030A5000A168A11F12333
:101AC0000A128A15063083160313BA003A088312E5
:101AD0000313A40002300A168A11DA210A128A15A9
:101AE000903083120313A4000130A5000A168A1156
:101AF000F1230A128A15023083160313BC00043046
:101B0000BB00B930BA00BA0B832DBB0B832DBC0BC5
:101B1000832D8A2D08000A168A1137240A128A1585
:101B20000A168A11FD200A128A15813083120313C6
:101B3000A0000030A1000A168A1118210A128A1585
:101B4000003083120313A000A1000A168A11A022FC
:101B50000A128A1583120313200883160313D50073
:101B60005508E2000A168A1106210A128A151A304F
:101B700083160313D600F730D500D50BBD2DD60B39
:101B8000BD2DC22D79080319C62DC72DFA2E790354
:101B9000031DCB2DCC2DF62D831603135C08D50029
:101BA000550883120313A80078080A168A11F82131
:101BB0000A128A1583160313D6005608F800083057
:101BC000D5005508C0007808D6005608C1005C084A
:101BD000D7005708C20001300A168A11D2220A1211
:101BE0008A1583160313D8005808DC0002307906E2
:101BF000031DFB2DFC2D262E831603135D08D50037
:101C0000550883120313A80078080A168A11F821D0
:101C10000A128A1583160313D6005608F8000B30F3
:101C2000D5005508C0007808D6005608C1005D08E8
:101C3000D7005708C20001300A168A11D2220A12B0
:101C40008A1583160313D8005808DD00033079067F
:101C5000031D2B2E2C2E562E831603135A08D50047
:101C6000550883120313A80078080A168A11F82170
:101C70000A128A1583160313D6005608F800093095
:101C8000D5005508C0007808D6005608C1005A088B
:101C9000D7005708C20002300A168A11D2220A124F
:101CA0008A1583160313D8005808DA000430790621
:101CB000031D5B2E5C2E862E831603135908D50058
:101CC000550883120313A80078080A168A11F82110
:101CD0000A128A1583160313D6005608F8000E3030
:101CE000D5005508C0007808D6005608C10059082C
:101CF000D7005708C20002300A168A11D2220A12EF
:101D00008A1583160313D8005808D90005307906C0
:101D1000031D8B2E8C2E832FD03083120313A20031
:101D20000030A3000230A4000030A5008316031386
:101D30005C08D500550883120313A6000A168A1101
:101D400007230A128A15D03083120313A200003031
:101D5000A3000130A4000030A500831603135D0822
:101D6000D500550883120313A6000A168A1107230B
:101D70000A128A15D03083120313A2000030A30088
:101D80000530A4000030A500831603135A08D500BF
:101D9000550883120313A6000A168A1107230A1294
:101DA0008A15D03083120313A2000030A30006303E
:101DB000A4000030A500831603135908D500550868
:101DC00083120313A6000A168A1107230A128A1522
:101DD000D03083120313A2000030A3000030A4000F
:101DE000A500A6010A168A1107230A128A15F8010E
:101DF000F901832FD03083120313A6000030A7000F
:101E00000030A800A9000A168A11DE250A128A15D8
:101E100083120313260883160313D5005508DE002A
:101E2000D03083120313A6000030A7000130A800B1
:101E30000030A9000A168A11DE250A128A158312BB
:101E40000313260883160313D5005508DD00D03090
:101E500083120313A6000030A7000230A800003050
:101E6000A9000A168A11DE250A128A1583120313A5
:101E7000260883160313D5005508DC00D0308312E2
:101E80000313A6000030A7000430A8000030A9000A
:101E90000A168A11DE250A128A15831203132608F0
:101EA00083160313D5005508DB00D03083120313CB
:101EB000A6000030A7000530A8000030A9000A16CF
:101EC0008A11DE250A128A15831203132608831647
:101ED0000313D5005508DA00D03083120313A6008F
:101EE0000030A7000630A8000030A9000A168A11A9
:101EF000DE250A128A15831203132608831603139C
:101F0000D5005508D9008316031362080A168A11F2
:101F100015270A128A1583160313D5005508DF000A
:101F200062080A128A15D5200A128A15831603132D
:101F3000D5005508E00062080A128A1127260A1205
:101F40008A1583160313D5005508E1003030D500FB
:101F50005508DF073030D5005508E0073030D50090
:101F60005508E1070A168A112D210A128A158312D3
:101F70000313A40101300A168A11DA210A128A1504
:101F8000013083120313A4008030A5000A168A11C1
:101F9000F1230A128A1583120313A40102300A16D0
:101FA0008A11DA210A128A15831603135F080A16AA
:101FB0008A11A2210A128A15083083120313A40081
:101FC0008030A5000A168A11F1230A128A15831699
:101FD000031360080A168A11A2210A128A158316B1
:101FE000031361080A168A11A2210A128A150A121D
:101FF0008A1599230A128A15902D0A128A110C2823
:1021EE0083120313A0002008880008000A168A1123
:1021FE003A210A168A1183160313111408000A16BF
:10220E008A113A210A168A11831603131115080032
:10221E00303430342F34303430342F343034303492
:10222E0000340A168A113A210A168A1183120313F0
:10223E00200893000800303430342F3430343034DA
:10224E002F343234303430343034003400300A1607
:10225E008A11F7200A168A1101300A168A11F72000
:10226E000A168A1108008316031314193F294029F0
:10227E003A2911081F39031D452946293A29080014
:10228E007E088A007F0882000A168A1147210A16E4
:10229E008A118000840A04087D0603190034FF0A9F
:1022AE000319FE0A4B2983120313A000831603138E
:1022BE0081138312031320088316031395008312D0
:1022CE00031320088316031396008B150B108B1720
:1022DE00080083120313A300A201231C7729782977
:1022EE007C292008A1002108A2070310A00D0310CD
:1022FE00A30C2308031D84298529742922080800AC
:10230E0083120313A300091023080A168A11F7205B
:10231E000A168A118312031389140D3083120313C4
:10232E00A200FB30A100A10B9A29A20B9A298312BD
:10233E0003138910080083120313A3000914230842
:10234E000A168A11F7200A168A11831203138914AA
:10235E000B3083120313A2006130A100A10BB5292B
:10236E00A20BB529BA298312031389100800831210
:10237E000313A7000F302705A4000A30A500250877
:10238E00A0002708A60004300310A60CFF3E031D74
:10239E00CB2926080A168A1170210A168A11831271
:1023AE0003132407080083120313A5002503031D3E
:1023BE00E129E229EA292408803E0A168A1187219A
:1023CE000A168A11F72902302506031DEF29F02976
:1023DE00F7292408C03E0A168A1187210A168A1187
:1023EE00080083120313AA000618FE29FF29152AD6
:1023FE000A168A116F220A168A11031C072A082A46
:10240E00152A8312031328080A168A11BE210A16EA
:10241E008A1183120313A9002908AA008312031339
:10242E002A08080083120313A800A401A50120089E
:10243E00A200A3012208A6002308A700281C282A10
:10244E00292A2F2A2608A4070318A50A2708A50754
:10245E0001300310A60DA70DFF3E031D302A0310F9
:10246E00A80C2808031D3C2A3D2A252A2508A10070
:10247E002408A0000800F201F30183120313061CC6
:10248E00492A4A2A4E2A86184D2A4E2A522A0130A5
:10249E00F0007008F2071A30F100F830F000F00B7F
:1024AE00562AF10B562A00000130F0007008F3078F
:1024BE0005307302031C642A652A442A0330720213
:1024CE00031C6A2A6B2A6D2A03146E2A0310080055
:1024DE0083120313A201A301061C762A772A7B2AF4
:1024EE0086187A2A7B2A7F2A0130A0002008A207AC
:1024FE001A3083120313A100F730A000A00B852A17
:10250E00A10B852A8A2A013083120313A00020080A
:10251E00A30705302302031C952A962A732A03303B
:10252E002202031C9B2A9C2A9E2A03149F2A031014
:10253E0008000A168A113A210A168A118316031305
:10254E0091150A168A113A210A168A11831203135B
:10255E001308A200A3012208A4002308A5000A164E
:10256E008A113A210A168A118312031320032104B9
:10257E00031DC22AC32AC72A831603139112CA2A1D
:10258E008316031391161116831203132508A10047
:10259E002408A000080083160313C40041080A167D
:1025AE008A11B3230A168A1183160313C300430834
:1025BE00C2004008C300430883120313A40083160D
:1025CE00031344080A168A11DA210A168A110A120E
:1025DE008A11DB270A168A11053083120313A40011
:1025EE008030A5000A168A11F1230A168A110A12E2
:1025FE008A11DB270A168A11831603134208080074
:10260E000A168A11FD200A168A1183120313230853
:10261E00A1002208A0000A168A1118210A168A1192
:10262E00831203132508A1002408A0000A168A119C
:10263E0018210A168A11831203132608A700A8016F
:10264E002708A0002808A1000A168A1118210A16C8
:10265E008A110A168A1106210A168A11343083123B
:10266E000313A800F130A700A70B3B2BA80B3B2BA5
:10267E00080083120313EE01EF0183160313251CCA
:10268E00492B4A2B562B270883120313EE070318E8
:10269E00EF0A83160313280883120313EF07013082
:1026AE00831603130310A70DA80DFF3E031D592B10
:1026BE0001300310A60CA50CFF3E031D602B250850
:1026CE002604031D6B2B6C2B442B831203136F08F4
:1026DE0083160313A600831203136E0883160313C7
:1026EE00A5000800283083120313940083160313E9
:1026FE009101831203132E08B2002F08B300300885
:10270E00B4003108B50002300310B20DB30DB40D94
:10271E00B50DFF3E031D8B2B3508A3003408A20018
:10272E003308A1003208A0000030A7007A30A600BE
:10273E001230A5000030A4000A168A1144260A168B
:10274E008A11831203132008FF3E8316031393008E
:10275E00940187150716080083160313BF000A306D
:10276E00B1000030B2003F08BA00BB013A08B30016
:10277E003B08B4000A168A11AC260A168A11831673
:10278E0003133108BC0004300310BC0DFF3E031DC3
:10279E00CB2B0A3083120313A0000030A100831646
:1027AE0003133F08BD00BE013D0883120313A200B0
:1027BE00831603133E0883120313A3000A168A110D
:1027CE0021250A168A118312031320088316031378
:1027DE003C07080083120313A901AA011A2C290829
:1027EE002407A7002508A6000318A60AA91F002C77
:1027FE00A603831203132608A8002808FF00270843
:10280E0084000A128A1500200A168A110A168A11E5
:10281E00A2210A168A11013083120313A907031885
:10282E00AA0A0030AA0729082407A7002508A6002F
:10283E000318A60AA91F242CA60383120313260825
:10284E00A8002808FF00270884000A128A15002015
:10285E000A168A11003A031D352C362CF62B080069
:10286E0001300A168A117C250A168A11831603175F
:10287E0088018901831603138801831203138801CB
:10288E008316031389018312031389010330831600
:10289E000313860083120313860103300A168A116E
:1028AE005A210A168A1183160313E201E101E0018F
:1028BE00DF01DE01DD01DC01DB01DA01D901F90105
:1028CE00F8010A168A11CD240A168A1100308312D5
:1028DE000313B1000130B0008630AF00A030AE005F
:1028EE000A168A1179230A168A1108008030831677
:1028FE000313AC06300883120313A30083160313CD
:10290E002F0883120313A200831603132E088312BB
:10291E000313A100831603132D0883120313A000C3
:10292E00831603132C0883120313A70083160313B5
:10293E002B0883120313A600831603132A0883128F
:10294E000313A50083160313290883120313A4008F
:10295E000A128A119F230A168A118312031323085F
:10296E0083160313AC00831203132208831603137A
:10297E00AB0083120313210883160313AA008312DC
:10298E000313200883160313A900080000300A164B
:10299E008A11F7200A168A11831203130910413087
:1029AE0083120313A500ED30A400A40BDC2CA50BA1
:1029BE00DC2CE12C30300A168A1187210A168A1176
:1029CE000D3083120313A500FB30A400A40BED2CD5
:1029DE00A50BED2C30300A168A1187210A168A11A2
:1029EE00273083120313A500F430A400A40BFD2C92
:1029FE00A50BFD2C000030300A168A1187210A160D
:102A0E008A1138300A168A1187210A168A110C305B
:102A1E000A168A1187210A168A1101300A168A119E
:102A2E0087210A168A1106300A168A1187210A167C
:102A3E008A11080083120313A601A31F272D282D28
:102A4E002F2DA209A309A20A0319A30AA601A60AF9
:102A5E00A11F322D332D382DA009A109A00A03196B
:102A6E00A10A2008210403193D2D3E2D6D2DA5012F
:102A7E00A50A4C2D01300310A00DA10DFF3E031D24
:102A8E00422D0130A4002408A507A11F4F2D502D63
:102A9E00412D21082302031D562D20082202031C5E
:102AAE00592D5A2D602D2008A2022108031CA303C4
:102ABE00A30201300310A10CA00CFF3E031D612DDB
:102ACE000130A502031D6C2D6D2D502D2608031906
:102ADE00712D722D772DA209A309A20A0319A30A3B
:102AEE002308A1002208A000080083120313A200ED
:102AFE00831603130F14B92D831603130F178F1696
:102B0E000F16DD2D831603130F178F160F12DD2DE3
:102B1E00831603130F178F120F16DD2D8316031353
:102B2E000F178F120F12DD2D831603130F138F162F
:102B3E000F16DD2D831603130F138F160F12DD2DB7
:102B4E00831603130F138F120F16DD2D8316031327
:102B5E000F138F120F12DD2D831603130F178F16FF
:102B6E000F12DD2D831203132208A000A1012108EC
:102B7E00003A0319C32DB32D2008013A0319832DF2
:102B8E00033A0319892D013A03198F2D073A0319B8
:102B9E00952D013A03199B2D033A0319A12D013AE4
:102BAE000319A72D0F3A0319AD2DB32D08000A16E0
:102BBE008A11FD200A168A11831203132708A10019
:102BCE002608A0000A168A1118210A168A118312E5
:102BDE0003132908A1002808A0000A168A1118213B
:102BEE000A168A110A168A1106210A168A111A3035
:102BFE0083120313AB00F730AA00AA0B042EAB0B03
:102C0E00042E092E0A168A11FD200A168A11831225
:102C1E0003132608013EA00027080318013E003EBC
:102C2E00A1000A168A1118210A168A110030831281
:102C3E000313A000A1000A168A11A0220A168A11F7
:102C4E00831203132108AD002008AC000A168A1166
:102C5E0006210A168A111A3083120313AB00F730BD
:102C6E00AA00AA0B382EAB0B382E3D2E831203135F
:102C7E002D08A7002C08A6000800003083120313AD
:102C8E00AC000030AB000030AA000030A9002308D1
:102C9E002204210420040319552E562EA32EAD0115
:102CAE00AD0A662E0130A8000310A00DA10DA20DD5
:102CBE00A30DA80B5B2E0130A8002808AD07A31F9B
:102CCE00692E6A2E592E0130A8000310A90DAA0DE7
:102CDE00AB0DAC0DA80B6C2E23082702031D812E05
:102CEE0022082602031D812E21082502031D812E96
:102CFE0020082402031C842E852E942E2008A40264
:102D0E002108031C210FA5022208031C220FA60274
:102D1E002308031C230FA702291401300310A30C50
:102D2E00A20CA10CA00CFF3E031D952E0130AD028E
:102D3E00031DA22EA32E6A2E2C08A3002B08A20080
:102D4E002A08A1002908A000080083160313B70162
:102D5E00B21FB22EB32EBA2EB109B209B10A03199F
:102D6E00B20AB701B70AB41FBD2EBE2EC72EB309C5
:102D7E00B409B30A0319B40A0130B5003508B70611
:102D8E00B801B901310832040319CE2ECF2E062F09
:102D9E00B601B60ADD2E01300310B10DB20DFF3EA5
:102DAE00031DD32E0130B5003508B607B21FE02E35
:102DBE00E12ED22E01300310B80DB90DFF3E031DCA
:102DCE00E22E32083402031DEE2E31083302031CAC
:102DDE00F12EF22EF92E3108B3023208031CB40381
:102DEE00B402381401300310B20CB10CFF3E031DB7
:102DFE00FA2E0130B602031D052F062FE12E3708DD
:102E0E0003190A2F0B2F102FB809B909B80A031985
:102E1E00B90A3908B2003808B1000800831203134A
:102E2E00ED006D0883160313A000A101A201A301FA
:102E3E00230883120313A30083160313220883129D
:102E4E000313A20083160313210883120313A10098
:102E5E0083160313200883120313A00001300A12F5
:102E6E008A1519200A168A11831203132308B50036
:102E7E002208B4002108B3002008B2003F30B10090
:102E8E00FA30B000F830AF003830AE000A128A11B6
:102E9E003E200A168A11831203133108CF00300820
:102EAE00CE002F08CD002E08CC004230CB00C8300B
:102EBE00CA000030C9000030C8000A128A15BC21B1
:102ECE000A168A11831203134B08E5004A08E40020
:102EDE004908E3004808E2000A168A1184270A16F8
:102EEE008A1183120313620883160313A4002408A5
:102EFE0083120313ED006D080800031083120313F1
:102F0E00640D650DE6006608EC006C08031D902F3D
:102F1E00912F9A2F0030E5000030E4000030E300DE
:102F2E000030E200FF2F6208E6006308E700640845
:102F3E00E8006508E9001F300310E90CE80CE70C07
:102F4E00E60CFF3E031DA32F6608EA006A08EB009D
:102F5E00E417FF30E205FF30E305FF30E4050030F3
:102F6E00E5059630EC02EC1FBD2FBE2FD82F6C0856
:102F7E00803A973E0318C42FC52FC62F912F0130CC
:102F8E000310E50CE40CE30CE20CFF3E031DC72F0F
:102F9E000130E6006608EC07031DD62FD72FC62F8B
:102FAE00EF2F20306C02031CDD2FDE2FEA2F912F26
:102FBE000130E6000310E20DE30DE40DE50DE60B26
:102FCE00E12F0130EC026C08031DEE2FEF2FDF2FE7
:102FDE006B080319F32FF42FFF2FE209E309E4091D
:102FEE00E509E20A0319E30A0319E40A0319E50ADB
:022FFE000800C9
:08400000FF3FFF3FFF3FFF3FC0
:04400E00D420FF3F7C
:00000001FF
