:060000000A128A110C280F
:10000800FE00030EF1000A08F2000A128A11CA283B
:100018000A128A110F28F701F80183010A128A11BE
:10002800BF29F5008028831203139F121F129F1106
:100038001F11B428831203139F121F129F111F153B
:10004800B428831203139F121F129F151F11B4287F
:10005800831203139F121F129F151F15B4288312B2
:1000680003139F121F169F111F11B4288312031325
:100078009F121F169F111F15B428831203139F1276
:100088001F169F151F11B428831203139F121F16E2
:100098009F151F15B428831203139F161F129F1153
:1000A8001F11B428831203139F161F129F111F15C7
:1000B800B428831203139F161F129F151F11B4280B
:1000C800831203139F161F129F151F15B42883123E
:1000D80003139F161F169F111F11B42883120313B1
:1000E8009F161F169F111F15B428831203139F1202
:1000F8001F129F111F11B4287508F300F40174082A
:10010800003A0319882879287308003A0319172830
:10011800013A03191E28033A03192528013A03193D
:100128002C28073A03193328013A03193A28033AC5
:1001380003194128013A031948280F3A03194F288F
:10014800013A03195628033A03195D28013A03199D
:100158006428073A03196B28013A03197228792889
:10016800831603131F129F12831203131F139F1763
:10017800831603139F13831203131F142130F300F4
:10018800F30BC428831203139F140800831203136C
:100198008C1DCF28D02826291412141BD428D52822
:1001A800D928941FD828D928E0281308F000700807
:1001B800F80014139413141683160313941AE528DD
:1001C800E62802291419E928EA28022983120313C8
:1001D8001308F0007008F8008C1114168316031326
:1001E800141CF728F828F228831203131308880030
:1001F800A630F000F00BFE2800002329941A0529E8
:1002080006292329141D09290A29232983120313DE
:100218001308F0007008F800831603131410770809
:100228008312031393001416A630F000F00B1A295A
:100238000000831603131418222923291D29831269
:1002480003138C1172088A00710E8300FE0E7E0E55
:100258000900F500831603130F1456290F178F167C
:100268000F1678290F178F160F1278290F178F126C
:100278000F1678290F178F120F1278290F138F1660
:100288000F1678290F138F160F1278290F138F1254
:100298000F1678290F138F120F1278290F178F1640
:1002A8000F1278297508F300F4017408003A03194D
:1002B8005E2952297308013A03193229033A0319AE
:1002C8003629013A03193A29073A03193E29013A0E
:1002D80003194229033A03194629013A03194A29FD
:1002E8000F3A03194E2952290800F30073088316A0
:1002F800031393003630831203139400803083165F
:100308000313940001309100871507168B170B17FC
:10031800831203138C11831603138C150800013004
:100328000A128A112D210A128A1120308316031706
:100338008800890105300A128A1115200A128A11CB
:1003480080300A128A1179210A128A110800831250
:1003580003139F148230F400DD30F300F30BB2294D
:10036800F40BB229B729831203139F18BC29BD299E
:10037800B7291E0808000A128A1193210A128A1145
:100388000A128A11AB210A128A11F6007608F700C0
:08039800C4290A128A110C2885
:08400000FF3FFF3FFF3FFF3FC0
:04400E00D420FF3F7C
:00000001FF
