:100000000A128A11F12F00308A000408840A82073C
:100010000034533431343A342034203420345334CF
:1000200032343A34203420342034533433343A34A4
:1000300000342E3400348312031341088039C20087
:100040004208CB004108C2004207C3004308D20067
:10005000C01F2B282C282D28521452080319312890
:1000600032284228520A031D362837283F280030FC
:10007000C1000030C0000030BF000030BE00C0171B
:10008000C1014A280030C1000030C0000030BF006C
:100090000030BE003D088039C2004208CB063D0852
:1000A000C2004207C3004308D300BC1F5828592888
:1000B0005A285314530803195E285F286F28530ADF
:1000C000031D632864286C280030BD000030BC008C
:1000D0000030BB000030BA00BC17BD0177280030EB
:1000E000BD000030BC000030BB000030BA003D084D
:1000F0003C043B043A04031D7E287F2898280030E6
:10010000C1000030C0000030BF000030BE008030B1
:10011000C0047F30C1044B08C2004208C10441083A
:10012000BD004008BC003F08BB003E08BA00F729EC
:100130005208031D9C289D28A6280030BD000030D1
:10014000BC000030BB000030BA00F7295208C200E2
:10015000C3014308C50053084202C400031CC50381
:1001600044087F3ECC0045080318013E003ECD0008
:100170004108CA004008C9003F08C8003E08C7003F
:100180000030C1000030C0000030BF000030BE00B1
:100190000030D1000030D0000030CF000030CE0061
:1001A000D3011C2953080319D628D728F728013072
:1001B000C2000310C70DC80DC90DCA0DC20BD92846
:1001C0000130C2000310BE0DBF0DC00DC10DC20B2A
:1001D000E228D11FEC28ED28EE283E140130C200A1
:1001E0000310CE0DCF0DD00DD10DC20BF0283D0860
:1001F0004A02031D05293C084902031D05293B0845
:100200004802031D05293A084702031C0829092949
:10021000182951173A08C7023B08031C3B0FC802B4
:100220003C08031C3C0FC9023D08031C3D0FCA02D9
:100230000130C2004208D3071A305302031C21299F
:100240002229D2284A0849044804470403192929C5
:100250002A2949294E1449290130C2000310BE0D34
:10026000BF0DC00DC10DC20B2E29D11F3829392950
:100270003A293E140130C2000310CE0DCF0DD00D2F
:10028000D10DC20B3C29FF30CC070318CD0AFF303B
:10029000CD07C01F4C294D292C29D301D11F51292D
:1002A00052296E29FF304E05C200FF304F05C300B2
:1002B000FF305005C4007F305105C5004508440497
:1002C000430442040319652966296929D301D30A25
:1002D0006E293E1C6C296D296E2966295308031965
:1002E00072297329A4290130BE0700300318013098
:1002F000BF07003003180130C00700300318013079
:10030000C107411C84298529A4293E08C2003F0851
:10031000C3004008C4004108C5000130C600450DB7
:10032000C50CC40CC30CC20CC60B8F294508C100F8
:100330004408C0004308BF004208BE000130CC079B
:100340000318CD0A0030CD074D08803AFF008030F9
:100350007F02031DAD29FF304C02031CB029B129D7
:10036000BF29FF3083120313CC000030CD000030D2
:10037000C1000030C0000030BF000030BE0083125A
:1003800003134D08803AFF0080307F02031DCA2905
:1003900001304C020318CD29CE29DB298312031327
:1003A000CC01CD010030C1000030C0000030BF00E2
:1003B0000030BE00CB01831203134C08C200420878
:1003C000D200521CE429E529E729C017EB297F3028
:1003D000C2004208C0055208C2000310420CC3000C
:1003E0004308C1004B08C2004208C1048F2808001E
:1003F0007308803983120313A0002008F8007308E3
:10040000A0002007A1002108FA00F21F082A092AEB
:100410000A2A7A147A0803190E2A0F2A1F2A7A0A3E
:10042000031D132A142A1C2A0030F3000030F200A6
:100430000030F1000030F000F217F301272A0030FD
:10044000F3000030F2000030F1000030F0007708D7
:100450008039A0002008F900790878060319312AAC
:10046000322A332A78177708A0002007A100210834
:10047000F900F61F3C2A3D2A3E2A7914790803190F
:10048000422A432A532A790A031D472A482A502A16
:100490000030F7000030F6000030F5000030F400C6
:1004A000F617F7015B2A0030F7000030F600003045
:1004B000F5000030F4007A0879020318602A612AF6
:1004C000A52A781F642A652A692A8030A00020089E
:1004D000F8067A08A0002008FB007908A000200890
:1004E000FA007B08A0002008F9007008A00020088E
:1004F000FB007408A0002008F0007B08A000200882
:10050000F4007108A0002008FB007508A000200876
:10051000F1007B08A0002008F5007208A000200868
:10052000FB007608A0002008F2007B08A00020084D
:10053000F6007308A0002008FB007708A000200840
:10054000F3007B08A0002008F700FB017908A00059
:10055000A1012108A3007A082002A200031CA30322
:100560002308803AFF0080307F02031DB92A1A3029
:100570002202031CBC2ABD2AFE2A730872047104DD
:100580007004031DC42AC62A0130C72A0030831212
:100590000313A0002008FB000030F3000030F2003D
:1005A0000030F1000030F0007908A0002008FA00C7
:1005B000042B7B1CDC2ADD2AE82A7B088312031328
:1005C000A0000310200C0138A1002108FB00EA2A3A
:1005D0000310FB0C701CED2AEE2AEF2AFB170130EA
:1005E00083120313A000730DF30CF20CF10CF00C4A
:1005F000A00BF32A0130A0002008FA0779087A023C
:10060000031C032B042BD92A781B072B082B572BF1
:100610007A08031D0C2B0D2B162B0030F300003035
:10062000F2000030F1000030F0008F2C7408F00769
:10063000750803110318013E03191F2BF1077608F3
:1006400003110318013E0319262BF2077708031143
:100650000318013E03192D2BF307731C302B312B8C
:100660000F2C7B1C342B352B402B7B088312031360
:10067000A0000310200C0138A1002108FB00422B30
:100680000310FB0C701C452B462B472BFB1701302E
:1006900083120313A000730DF30CF20CF10CF00C99
:1006A000A00B4B2B0130A0002008FA070F2C730879
:1006B000803AFF007708803A7F02031D692B760895
:1006C0007202031D692B75087102031D692B7408E2
:1006D000700203186C2B6D2BC72BFF308312031392
:1006E000A000FF30A100FF30A200FF30A30074087B
:1006F000A4007508A5007608A6007708A700700872
:10070000A4027108031C710F862B872BA5027208A7
:10071000031C720F8C2B8D2BA6027308031C730F06
:10072000922B932BA7022408A00725080318250F56
:100730009A2B9B2BA10726080318260FA02BA12B71
:10074000A20727080318270AA3072308F300220893
:10075000F2002108F1002008F0008030A0002008FD
:10076000F806FB09FB0A7B08031DB72BB82BD52B1A
:100770000130F007003003180130F1070030031892
:100780000130F207003003180130F307D52B74084D
:10079000F0027508031C750FF1027608031C760F32
:1007A000F2027708031C770FF302730872047104D6
:1007B0007004031DDC2BDD2B0B2C7B08031DE12BB0
:1007C000E22B0B2C0030F3000030F2000030F1007F
:1007D0000030F0008F2C013083120313A0000310AF
:1007E000F00DF10DF20DF30DA00BEF2BFB1FF92B0C
:1007F000FA2BFB2B70147B1CFE2BFF2B022C0314FB
:10080000FB0D042C0310FB0D7A080319082C092C8E
:100810000B2C0130FA02F21F0E2C0F2CEB2BF901DE
:10082000FB1F132C142C222C7B087F390319192C45
:100830001A2C1D2CF901F90A222C701C202C212CB9
:10084000222C1A2C79080319262C272C5D2C013018
:10085000F007003003180130F107003003180130B1
:10086000F207003003180130F307731C382C392CC1
:100870005D2C700883120313A0007108A100720898
:10088000A2007308A3000130A400230DA30CA20C46
:10089000A10CA00CA40B452C2308F3002208F200A5
:1008A0002108F1002008F0007A0A0319582C592C6D
:1008B0005D2C0130A0002008FA077A0A0319612C88
:1008C000622C672C7A08031D662C672C752C00306F
:1008D000F3000030F2000030F1000030F0007A0840
:1008E000031D732C742C752CF8017A1C782C792C30
:1008F0007B2CF217812C7F3083120313A000200879
:10090000F2057A0883120313A0000310200CA10043
:100910002108F300F81F8D2C8E2C8F2CF317080064
:100920008312031323088039A8002808AD00230888
:10093000A8002807A9002908B300A21FA02CA12CF9
:10094000A22C331433080319A62CA72CB62C330A77
:10095000031DAB2CAC2CB42C0030A3000030A20043
:100960000030A1000030A000A217BE2C0030A30070
:100970000030A2000030A1000030A000270880391C
:10098000A8002808AD062708A8002807A9002908FC
:10099000B200A61FCC2CCD2CCE2C32143208031959
:1009A000D22CD32CE22C320A031DD72CD82CE02CCD
:1009B0000030A7000030A6000030A5000030A400E1
:1009C000A617EA2C0030A7000030A6000030A500D2
:1009D0000030A40032080319EE2CEF2CF42C33085D
:1009E000031DF32CF42CFD2C0030A3000030A200DA
:1009F0000030A1000030A000F02F2008A800280837
:100A0000F00026080A128A159E210A128A1171081E
:100A100083120313B9007008B8003808A800A901B0
:100A2000AA01AB012B08B1002A08B0002908AF00C9
:100A30002808AE003908A800A901AA01AB012B08BB
:100A4000B7002A08B6002908B5002808B400210814
:100A5000A8002808F00025080A128A159E210A120B
:100A60008A11710883120313B9007008B80038089E
:100A7000A800A901AA01AB012808AE0729080311A3
:100A80000318013E0319452DAF072A080311031867
:100A9000013E03194C2DB0072B0803110318013E2A
:100AA0000319532DB1073908A800A901AA01AB0108
:100AB0002808B407290803110318013E0319612D02
:100AC000B5072A0803110318013E0319682DB6075C
:100AD0002B0803110318013E03196F2DB7072208D5
:100AE000A8002808F00024080A128A159E210A127C
:100AF0008A11710883120313B9007008B80038080E
:100B0000A800A901AA01AB012808AE072908031112
:100B10000318013E03198D2DAF072A08031103188E
:100B2000013E0319942DB0072B0803110318013E51
:100B300003199B2DB1073908A800A901AA01AB012F
:100B40002808B407290803110318013E0319A92D29
:100B5000B5072A0803110318013E0319B02DB60783
:100B60002B0803110318013E0319B72DB7070830EE
:100B7000A8000310AE0DAF0DB00DB10DA80BB92D2F
:100B80002108A8002808F00024080A128A159E21CE
:100B90000A128A11710883120313B9007008B80091
:100BA0003808A8003908A900AA01AB012808AE0737
:100BB000290803110318013E0319DF2DAF072A0886
:100BC00003110318013E0319E62DB0072B0803118A
:100BD0000318013E0319ED2DB1072008A8002808CD
:100BE000F00025080A128A159E210A128A1171083E
:100BF00083120313B9007008B8003808A800390838
:100C0000A900AA01AB012808AE072908031103189F
:100C1000013E03190C2EAF072A0803110318013EE9
:100C20000319132EB0072B0803110318013E0319F3
:100C30001A2EB1070830A8000310AE0DAF0DB00D8D
:100C4000B10DA80B1C2E2008A8002808F0002408CD
:100C50000A128A159E210A128A117108831203133F
:100C6000B9007008B8003808A8003908A900AA011E
:100C7000AB012808AE07290803110318013E031928
:100C8000422EAF072A0803110318013E0319492E0B
:100C9000B0072B0803110318013E0319502EB107AA
:100CA0002108A8002808F00026080A128A159E21AB
:100CB0000A128A11710883120313B9007008B80070
:100CC0003808A8003908A900AA01AB012808B40710
:100CD000290803110318013E03196F2EB5072A08CE
:100CE00003110318013E0319762EB6072B080311D2
:100CF0000318013E03197D2EB7072208A800280813
:100D0000F00025080A128A159E210A128A1171081C
:100D100083120313B9007008B8003808A800390816
:100D2000A900AA01AB012808B40729080311031878
:100D3000013E03199C2EB5072A0803110318013E32
:100D40000319A32EB6072B0803110318013E03193C
:100D5000AA2EB7072208A8002808F00026080A12C1
:100D60008A159E210A128A11710883120313B90091
:100D70007008B8003808A8003908A900AA01AB011A
:100D800008300310A80DA90DAA0DAB0DFF3E031DE1
:100D9000C12E2808B407290803110318013E0319BE
:100DA000D22EB5072A0803110318013E0319D92EC4
:100DB000B6072B0803110318013E0319E02EB707ED
:100DC0002E08A8002F08A9003008AA003108AB009F
:100DD00018300310AB0CAA0CA90CA80CFF3E031D85
:100DE000E92E2808B407290803110318013E031946
:100DF000FA2EB5072A0803110318013E0319012F23
:100E0000B6072B0803110318013E0319082FB70773
:100E10000830A8000310AE0DAF0DB00DB10DA80B3A
:100E20000A2F33083207A800A901A90D2808823E1D
:100E3000B80029080318013EFF3EB9003C2F0130DD
:100E4000A8000310B40DB50DB60DB70DA80B212FDA
:100E5000B11F2B2F2C2F2D2F34140130A80003107D
:100E6000AE0DAF0DB00DB10DA80B2F2FFF30B80791
:100E70000318B90AFF30B907B61F3F2F402F1F2FA5
:100E8000B201B11F442F452F612FFF302E05A8005E
:100E9000FF302F05A900FF303005AA007F30310553
:100EA000AB002B082A04290428040319582F592FB2
:100EB0005C2FB201B20A612F341C5F2F602F612FAB
:100EC000592F32080319652F662F972F0130B40769
:100ED000003003180130B507003003180130B607A1
:100EE000003003180130B707371C772F782F972F62
:100EF0003408A8003508A9003608AA003708AB0056
:100F00000130AC002B0DAB0CAA0CA90CA80CAC0B3F
:100F1000822F2B08B7002A08B6002908B500280838
:100F2000B4000130B8070318B90A0030B90739080E
:100F3000803AFF0080307F02031DA02FFF3038026F
:100F4000031CA32FA42FAF2F7F3083120313B700EE
:100F50008030B6000030B5000030B400E42F8312BA
:100F600003133908803AFF0080307F02031DBA2F37
:100F7000013038020318BD2FBE2FCA2F0030831254
:100F80000313B7000030B6000030B5000030B400E5
:100F9000AD01E42F831203133808A8002808B3001A
:100FA000FF30B405FF30B5057F30B6050030B7051A
:100FB000331CDB2FDC2FDD2FB6173308A8000310FE
:100FC000280CA9002908B7002D08A8002808B70494
:100FD0003708A3003608A2003508A1003408A00095
:100FE000080083160313CA01CB01CC01CD01CE0149
:100FF000CF01D001D101D20183010A128A15412EFD
:10114E00F00070088312031386000800F000700888
:10115E00831203139300080083160313141CB8287C
:10116E00B928B32808000A128A15B3200A128A1564
:10117E00831203131308080000300A128A15A720E1
:10118E000A128A1501300A128A15A7200A128A1528
:10119E000800F300831603138712731DD728D8286F
:1011AE00DC28720894008715E028700872049400F9
:1011BE008711730871048312031394000800F3005F
:1011CE0083120313081773080A128A15A7200A122E
:1011DE008A158312031388170B30F2006230F10068
:1011EE00F10BF728F20BF728000083120313881374
:1011FE000800F30083120313081373080A128A15EA
:10120E00A7200A128A158312031388170D30F200D5
:10121E00FB30F100F10B1129F20B11291629831263
:10122E00031388130800F5007503031D1F292029D9
:10123E0028297408803E0A128A1500210A128A157E
:10124E00352902307506031D2D292E2935297408DE
:10125E00C03E0A128A1500210A128A15080083164A
:10126E00031788018901831603130711871086015E
:10127E0088018312031388018601071587140A1249
:10128E008A15EC210A128A15F001F101F2012030C3
:10129E000A128A15D0200A128A1508008030831689
:1012AE000313A3062708F3002608F2002508F10011
:1012BE002408F0002308F7002208F6002108F500A4
:1012CE002008F4000A128A11F8210A128A157308EE
:1012DE0083160313A3007208A2007108A100700800
:1012EE00A0000800F600F401F501902974087607B5
:1012FE0084000A128A1103200A128A150A128A150C
:10130E00E6200A128A150130F4070318F50A003098
:10131E00F5077408760784000A128A1103200A1250
:10132E008A15003A031D9C299D297D290800F80085
:10133E00F401F5017008F200F3017208F60073086B
:10134E00F700781CAB29AC29B2297608F4070318EC
:10135E00F50A7708F50701300310F60DF70DFF3E7D
:10136E00031DB3290310F80C7808031DBF29C029EB
:10137E00A8297508F1007408F00008008312031301
:10138E00E901EA01651CCC29CD29D3296708E907B3
:10139E000318EA0A6808EA0701300310E70DE80DA2
:1013AE00FF3E031DD42901300310E60CE50CFF3E71
:1013BE00031DDB2965086604031DE629E729C929F3
:1013CE006A08E6006908E500080000300A128A156E
:1013DE00A7200A128A158312031308134130F50051
:1013EE00EE30F400F40BF929F50BF929000030303A
:1013FE000A128A1500210A128A150D30F500FB30EB
:10140E00F400F40B082AF50B082A0D2A30300A12C4
:10141E008A1500210A128A152730F500F530F400DE
:10142E00F40B172AF50B172A30300A128A150021F1
:10143E000A128A1538300A128A1500210A128A15E4
:10144E000C300A128A1500210A128A1501300A126E
:10145E008A1500210A128A1506300A128A150021F1
:10146E000A128A15080083120313E4006408DF00D1
:10147E00E001E101E2016208F3006108F200600898
:10148E00F1005F08F00001300A128A159C230A123F
:10149E008A15730883120313A7007208A600710839
:1014AE00A5007008A4003F30A300FA30A200F83067
:1014BE00A1003830A0000A128A1190240A128A154F
:1014CE00831203132308C1002208C0002108BF00A5
:1014DE002008BE004230BD00C830BC000030BB004A
:1014EE000030BA000A128A111B200A128A158312C2
:1014FE0003133D08D7003C08D6003B08D5003A0838
:10150E00D4000A128A1595220A128A158312031321
:10151E005408E3006308E400640808000310831213
:10152E000313560D570DD8005808DE005E08031D34
:10153E00A12AA22AAB2A0030D7000030D6000030F4
:10154E00D5000030D400102B5408D8005508D9000F
:10155E005608DA005708DB001F300310DB0CDA0CDC
:10156E00D90CD80CFF3E031DB42A5808DC005C08C9
:10157E00DD00D617FF30D405FF30D505FF30D60578
:10158E000030D7059630DE02DE1FCE2ACF2AE92A9A
:10159E005E08803A973E0318D52AD62AD72AA22A61
:1015AE0001300310D70CD60CD50CD40CFF3E031D06
:1015BE00D82A0130D8005808DE07031DE72AE82A8A
:1015CE00D72A002B20305E02031CEE2AEF2AFB2ABC
:1015DE00A22A0130D8000310D40DD50DD60DD70D8B
:1015EE00D80BF22A0130DE025E08031DFF2A002B03
:1015FE00F02A5D080319042B052B102BD409D509ED
:10160E00D609D709D40A0319D50A0319D60A03191C
:10161E00D70A080083160313A90183120313EC1FC4
:10162E00192B1A2B232BEB09EC09EB0A0319EC0AE5
:10163E0083160313A901A90A8312EE1F272B282B49
:10164E00332BED09EE09ED0A0319EE0A0130EF0016
:10165E006F0883160313A90683160313AA01AB01A1
:10166E00831203136B086C0403193E2B3F2B852B3F
:10167E0083160313A801A80A512B01300310EB0D9A
:10168E00EC0DFF3E031D452B0130EF006F08831656
:10169E000313A80783120313EC1F562B572B442B4F
:1016AE000130831603130310AA0DAB0DFF3E031D6D
:1016BE005A2B831203136C086E02031D682B6B08E2
:1016CE006D02031C6B2B6C2B752B6B08ED026C08DB
:1016DE00031CEE03EE02831603132A140130831249
:1016EE000310EC0CEB0CFF3E031D772B0130831621
:1016FE000313A802031D842B852B572B831603136C
:10170E00290803198B2B8C2B912BAA09AB09AA0A3A
:10171E000319AB0A2B0883120313EC008316031371
:10172E002A0883120313EB000800F8007808031947
:10173E00A12BA22BB62BF31FA52BA62BB62B700914
:10174E00FA007109FB007209FC007309FD00FA0A28
:10175E000319FB0A0319FC0A0319FD0ABE2B7308B1
:10176E00FD007208FC007108FB007008FA00730897
:10177E00720471047004031DC52BC62BCF2B0030D1
:10178E00F3000030F2000030F1000030F000552C74
:10179E009630F4007408F900E12B0130F40074085F
:1017AE00F90701300310FD0CFC0CFB0CFA0CFF3E8C
:1017BE00031DD92BFE307D05031DE62BE72BD42B05
:1017CE00032C0130F4007408F9070130FA070030D9
:1017DE0003180130FB07003003180130FC070030FE
:1017EE0003180130FD0701300310FD0CFC0CFB0C3F
:1017FE00FA0CFF3E031DFB2BFF307D05031D082C4D
:10180E00092CE82B152C0130F9020130F4000310DD
:10181E00FA0DFB0DFC0DFD0DF40B0E2CFC1B182C04
:10182E00192C1F2C0230790203181E2C1F2C0A2C87
:10183E007918222C232C2B2CFF30FA05FF30FB05B8
:10184E007F30FC05FF30FD050310F90C7908F4001C
:10185E00F501F601F70118300310F40DF50DF60D34
:10186E00F70DFF3E031D332C7408FA047508FB04B4
:10187E007608FC047708FD0478080319472C482CD9
:10188E004D2CF31F4B2C4C2C4D2CFD177D08F300CB
:10189E007C08F2007B08F1007A08F000080083163D
:1018AE000313B700643083120313E7000030E8001F
:1018BE008316031337080A128A153A220A128A155A
:1018CE0083160313AC00AD012C0883120313E5003D
:1018DE00831603132D0883120313E6000A128A15CA
:1018EE00C5210A128A158312031365088316031382
:1018FE00B30083120313660883160313B40000307B
:10190E00B41BFF30B500B6000A3083120313EB0090
:10191E000030EC00831603133708AC00AD01AE01A6
:10192E00AF012F08F3002E08F2002D08F1002C084D
:10193E00F00001300A128A159C230A128A157308C8
:10194E0083120313A7007208A6007108A500700881
:10195E00A4003F30A300FA30A200F830A1003830C6
:10196E00A0000A128A1190240A128A1583120313F8
:10197E00230883160313A70083120313220883166A
:10198E000313A60083120313210883160313A50065
:10199E0083120313200883160313A4003608F300E2
:1019AE003508F2003408F1003308F00001300A1255
:1019BE008A159C230A128A15730883160313A30033
:1019CE007208A2007108A1007008A0000A128A1500
:1019DE0055210A128A158316031323088312031343
:1019EE00D70083160313220883120313D60083161F
:1019FE000313210883120313D50083160313200843
:101A0E0083120313D4000A128A1595220A128A151C
:101A1E0083120313540883160313B000B101300868
:101A2E0083120313ED00831603133108831203137D
:101A3E00EE000A128A1511230A128A158312031355
:101A4E006B0883160313B2003208B700370808007C
:101A5E0083160313C600643083120313E7000030AD
:101A6E00E8008316031346080A128A153A220A1250
:101A7E008A1583160313B800B901380883120313AD
:101A8E00E50083160313390883120313E6000A12C6
:101A9E008A15C5210A128A15831203136508831647
:101AAE000313BC0083120313660883160313BD00D1
:101ABE000030BD1BFF30BE00BF0046080A128A155B
:101ACE0056240A128A1583160313B800B901380872
:101ADE00C4003908C5004608B800B901BA01BB01F7
:101AEE003B08F3003A08F2003908F1003808F0001C
:101AFE0001300A128A159C230A128A157308831262
:101B0E000313A7007208A6007108A5007008A400B0
:101B1E003F30A300FA30A200F830A1003830A00008
:101B2E000A128A1190240A128A15831203132308AB
:101B3E0083160313A70083120313220883160313BD
:101B4E00A60083120313210883160313A500831224
:101B5E000313200883160313A4003F08F3003E0866
:101B6E00F2003D08F1003C08F00001300A128A151F
:101B7E009C230A128A15730883160313A300720896
:101B8E00A2007108A1007008A0000A128A15552142
:101B9E000A128A15831603132308C3002208C200F3
:101BAE002108C1002008C0004308A7004208A60073
:101BBE004108A5004008A4000A3083120313E70071
:101BCE000030E80083160313450883120313E60062
:101BDE0083160313440883120313E5000A128A15B1
:101BEE00C5210A128A15831203136508F0006608D0
:101BFE00F1000030F11BFF30F200F30001300A1249
:101C0E008A159C230A128A15730883160313A300E0
:101C1E007208A2007108A1007008A0000A128A15AD
:101C2E0055210A128A1583160313230883120313F0
:101C3E00D70083160313220883120313D6008316CC
:101C4E000313210883120313D500831603132008F0
:101C5E0083120313D4000A128A1595220A128A15CA
:101C6E0083120313540883160313B8003808C600F2
:101C7E00460808000A128A1536210A128A1583129E
:101C8E000313071187141A3083160313C800F73095
:101C9E00C700C70B502EC80B502E552EFF300A1200
:101CAE008A15AD200A128A150A128A15BA200A124E
:101CBE008A1583160313C7004708CC001A30831603
:101CCE000313C800F730C700C70B6B2EC80B6B2E63
:101CDE00702E0B3083160313C9002630C8005D30FA
:101CEE00C700C70B782EC80B782EC90B782EAA30DA
:101CFE000A128A15AD200A128A150A128A15BA20FE
:101D0E000A128A1583160313C7004708CA001A3031
:101D1E0083160313C800F730C700C70B942EC80BE9
:101D2E00942E992E831203130715871003308316F2
:101D3E000313C8009730C700C70BA32EC80BA32EE2
:101D4E00FF300A128A15AD200A128A150A128A1558
:101D5E00BA200A128A1583160313C7004708CB0050
:101D6E00033083160313C8009730C700C70BBD2E70
:101D7E00C80BBD2E831603134C080A128A153A227D
:101D8E000A128A1583160313C7004708D0004C08A1
:101D9E000A128A1556240A128A1583160313C700CF
:101DAE004708D1004C080A128A152F250A128A15E7
:101DBE0083160313C7004708D2003030C700470808
:101DCE00D0073030C7004708D1073030C70047086A
:101DDE00D2074A080A128A153A220A128A1583165F
:101DEE000313C7004708CD004A080A128A15562465
:101DFE000A128A1583160313C7004708CE004A0835
:101E0E000A128A152F250A128A1583160313C70084
:101E1E004708CF003030C7004708CD073030C70025
:101E2E004708CE073030C7004708CF070A128A1579
:101E3E00C3200A128A15F40101300A128A151A21DA
:101E4E000A128A1501300A128A1579210A128A1588
:101E5E00F40102300A128A151A210A128A15831603
:101E6E00031350080A128A15E6200A128A15113039
:101E7E000A128A1579210A128A158316031351083C
:101E8E000A128A15E6200A128A15831603135208BF
:101E9E000A128A15E6200A128A15831603134A08B7
:101EAE000A128A153A220A128A1583160313C700DC
:101EBE004708CD004A080A128A1556240A128A15B6
:101ECE0083160313C7004708CE004A080A128A1564
:101EDE002F250A128A1583160313C7004708CF0051
:101EEE003030C7004708CD073030C7004708CE074F
:101EFE003030C7004708CF070630C7004708F40048
:101F0E0002300A128A151A210A128A158316031331
:101F1E004D080A128A15E6200A128A158316031333
:101F2E004E080A128A15E6200A128A158316031322
:101F3E004F080A128A15E6200A128A158316031311
:101F4E004B080A128A153A220A128A1583160313AF
:101F5E00C7004708D0004B080A128A1556240A12E9
:101F6E008A1583160313C7004708D1004B080A12BF
:101F7E008A152F250A128A1583160313C7004708E0
:101F8E00D2003030C7004708D0073030C7004708AE
:101F9E00D1073030C7004708D2070B30C7004708BB
:101FAE00F40002300A128A151A210A128A158316B3
:101FBE00031350080A128A15E6200A128A151130E8
:101FCE000A128A1579210A128A15831603135108EB
:101FDE000A128A15E6200A128A158316031352086E
:101FEE000A128A15E6200A128A15462E0A128A113C
:021FFE000028B9
:08400000FF3FFF3FFF3FFF3FC0
:04400E00D420FF3F7C
:00000001FF
