:060000000A128A11FC2F18
:100F1200F000700883120313930008008316031372
:100F2200141C942F952F8F2F08000A128A118F27D5
:100F32000A128A118312031313080800F30083169E
:100F420003138712731DA62FA72FAB2F72089400CD
:100F52008715AF2F7008720494008711730871040B
:100F62008312031394000800831603178801890172
:100F72008316031307118601880183120313860166
:100F820088010715F001F101F20120300A128A11DD
:100F92009F270A128A1108000A128A11B5270A121B
:100FA2008A118312031307110330F5009730F400FE
:100FB200F40BD92FF50BD92FDE2FFF300A128A112D
:100FC20089270A128A110A128A1196270A128A118D
:100FD2008312031388000330F5009730F400F40BFA
:100FE200F02FF50BF02FF52F831203130715D22FD5
:0E0FF2000A128A11002883010A128A11CD2FDB
:08400000FF3FFF3FFF3FFF3FC0
:04400E00D420FF3F7C
:00000001FF
