:060000000A128A11FC2F18
:100ECA00F0007008831203139300080083160313BB
:100EDA00141C702F712F6B2F08000A128A116B27AE
:100EEA000A128A118312031313080800F3008316E7
:100EFA0003138712731D822F832F872F7208940082
:100F0A0087158B2F70087204940087117308710477
:100F1A0083120313940008008316031788018901BA
:100F2A00831603130711871086018801831203139E
:100F3A008801860107158714F001F101F2012030BA
:100F4A000A128A117B270A128A1108000A128A11C8
:100F5A0091270A128A118312031307118714033087
:100F6A00F5009730F400F40BB82FF50BB82FBD2F0E
:100F7A00FF300A128A1165270A128A110A128A1187
:100F8A0072270A128A118312031386000330F500AE
:100F9A009730F400F40BCF2FF50BCF2FD42F8312F9
:100FAA000313071587100330F5009730F400F40B8C
:100FBA00DC2FF50BDC2FE12FFF300A128A1165278F
:100FCA000A128A110A128A1172270A128A118312C4
:100FDA00031388000330F5009730F400F40BF32F65
:100FEA00F50BF32FF82FB02F0A128A11002883016C
:060FFA000A128A11AB2F60
:08400000FF3FFF3FFF3FFF3FC0
:04400E00D420FF3F7C
:00000001FF
