:020000040000FA
:08000000803102288731FD2F39
:100E8E00F00020000E1370088F0087316527873120
:100E9E000800F00020000E1770088F0087316527BC
:100EAE008731080001308731472787311430F10030
:100EBE007A30890B602FF10B602F080020008E17FF
:100ECE00C8300032890B682F20008E13C8300032D4
:100EDE00890B6E2F08007F2F710884007208850021
:100EEE0000088731502787310130F1070030F23D7D
:100EFE0071088400720885001200031D872F882F49
:100F0E00732F0800F10080307102031C8F2F902F79
:100F1E00962FA9307102031C952F962FA22FC03049
:100F2E007102031C9B2F9C2FA62FE9307102031810
:100F3E00A12FA22FA62F71088731472787310800CE
:100F4E0020008E130E138F0121008F018E130E13AE
:100F5E004130F200EE30890BB22FF20BB22F00327D
:100F6E0038308731472787310F3087314727873110
:100F7E000630873147278731873159278731080057
:100F8E008731A72787318731592787310330F500FD
:100F9E008A30F4005630890BD22FF40BD22FF50B7A
:100FAE00D22F80308731892787311030F100883079
:100FBE00F200873172278731C03087318927873118
:100FCE000030F1008830F2008731722787310D3002
:100FDE00F500AF30F400B630890BF32FF40BF32F7E
:100FEE00F50BF32F0032CA2F8031022820008731F3
:100FFE00C72F20344D346934633472346F34643403
:10100E0069346734693473346F346634743420341D
:10101E00003420342034573465346C3463346F34E8
:0A102E006D346534203420340034A2
:020000040001F9
:04000E00E23FFF1FAF
:00000001FF
